:020000040800F2
:10000000C8050020C501000843220008351D00086E
:10001000412200083D03000893250008000000006D
:10002000000000000000000000000000F1220008B5
:10003000A10500080000000045220008F322000886
:10004000DF010008DF010008DF010008DF01000810
:10005000DF010008DF010008DF010008DF01000800
:10006000DF010008DF010008DF010008DF010008F0
:10007000DF010008DF010008DF010008DF010008E0
:10008000DF010008DF010008DF010008DF010008D0
:10009000DF010008DF010008DF010008DF010008C0
:1000A000DF010008DF010008DF010008DF010008B0
:1000B000DF010008DF010008DF010008DF010008A0
:1000C000DF010008DF010008DF010008DF01000890
:1000D000DF010008DF010008DF010008DF01000880
:1000E000DF010008DF010008DF010008DF01000870
:1000F000DF010008DF010008DF010008DF01000860
:10010000DF010008DF010008DF010008DF0100084F
:10011000DF010008DF010008DF010008DF0100083F
:10012000DF010008DF010008DF010008DF0100082F
:10013000DF010008DF010008DF010008DF0100081F
:10014000DF010008DF010008DF010008DF0100080F
:10015000DF010008DF010008DF010008DF010008FF
:10016000DF010008DF010008DF010008DF010008EF
:10017000DF010008DF010008DF01000800000000C7
:10018000DF010008DF010008DF010008DF010008CF
:10019000DF010008DF010008DF010008DF010008BF
:1001A000DF010008DF010008DF010008DFF810D0E0
:1001B00000F0B2F8004800477D2A0008AFF3008045
:1001C000C80500200648804706480047FEE7FEE7CE
:1001D000FEE7FEE7FEE7FEE7FEE7FEE7FEE7FEE7F7
:1001E00095230008AD0100082DE9F05F05460020C9
:1001F00092469B4688460646814640241BE0284698
:1002000041464746224600F077F853465A46C01A00
:10021000914110D311461846224600F05EF82D1A7F
:1002200067EB01084F4622460120002100F055F8F7
:1002300017EB00094E41201EA4F10104DFDC484603
:1002400031462A464346BDE8F09F40EA01039B073A
:1002500003D009E008C9121F08C0042AFAD203E03B
:1002600011F8013B00F8013B521EF9D27047D2B29F
:1002700001E000F8012B491EFBD270470022F6E78F
:1002800010B513460A4604461946FFF7F0FF20460C
:1002900010BD10B5002200E0521C835C8C5CA342B0
:1002A00001D1002BF8D1D8B2E1B2401A10BD30B55F
:1002B0000B46014600202022012409E021FA02F524
:1002C0009D4205D303FA02F5491B04FA02F52844BE
:1002D000151EA2F10102F1DC30BD202A04DB203A18
:1002E00000FA02F1002070479140C2F1200320FA89
:1002F00003F3194390407047202A04DB203A21FA87
:1003000002F00021704721FA02F3D040C2F120022E
:100310009140084319467047064C074D06E0E068D7
:1003200040F0010394E8070098471034AC42F6D33C
:10033000FFF740FF0C2B00082C2B0008FEE7000005
:1003400070B5124C00220821204600F0BCFD0220AE
:1003500002F09FFA0E4D01224021284600F0B3FD25
:10036000022002F096FA00224021284600F0ABFD60
:10037000022002F08EFA01220821204600F0A3FD9F
:10038000BDE87040022002F084BA00000020024064
:10039000001C024010B501220821054800F093FD21
:1003A0000122BDE810404021024800F08CBD000051
:1003B00000200240001C024010B5012208210C4818
:1003C00000F081FD022002F064FA0A4C0122402173
:1003D000204600F078FD022002F05BFA0022402166
:1003E000204600F070FDBDE81040022002F051BA36
:1003F00000200240001C02402DE9F0410025DFF8FA
:100400004C80134E0746802401224021304600F0E4
:100410005AFD022002F03DFA0821404600F046FD58
:1004200000B1254300224021304600F04CFD02205F
:1004300002F02FFA6408E7D127B1FFF781FF2846C1
:10044000BDE8F081FFF7B8FFF9E7000000200240A7
:10045000001C02402DE9F041124F134E0546802446
:10046000254201D0012200E000220821384600F098
:100470002AFD022002F00DFA01224021304600F050
:1004800022FD022002F005FA00224021304600F051
:100490001AFD6408E4D13846BDE8F0410122082184
:1004A00000F011BD00200240001C024070B5104C4D
:1004B00001220821204600F006FD0E4D01224021B8
:1004C000284600F000FD022002F0E3F90022082196
:1004D000204600F0F8FC022002F0DBF90022402167
:1004E000284600F0F0FCBDE87040022002F0D1B9CF
:1004F00000200240001C024010B50D4C00220821D3
:10050000204600F0E0FC022002F0C3F90122402165
:10051000084800F0D8FC022002F0BBF901220821B3
:10052000204600F0D0FCBDE81040022002F0B1B936
:1005300000200240001C02402DE9F041164E00242C
:10054000254601220821304600F0BDFC022002F0C1
:10055000A0F9124F01224021384600F0B4FC07E018
:10056000641CE4B2FA2C03D9FFF7C6FF012508E0AA
:10057000022002F08EF90821304600F097FC002896
:10058000EED100224021384600F09DFC022002F00E
:1005900080F92846BDE8F08100200240001C02409E
:1005A000704772B6FEE7F0B5D1E907354C6A0A68C4
:1005B000C2B102682B4322F4F84214432343036080
:1005C000D1E901231A43D1E9033423431A434B6988
:1005D00089691A430A4341686FF30E010A43426076
:1005E0000020F0BDD1E901263243D1E903673E4343
:1005F00032434E69896932430A431A432A430168E8
:1006000022436FF30E010A430260E9E7426943F6B1
:10061000FE739A4342EA410141610020704770B580
:1006200014460546D1E9000210438A686FF01F03A3
:10063000C96803EB421242EA4121084329696FF37A
:1006400015010843286100F043FC064609E0601CE0
:1006500007D024B100F03CFC801BA04201D903204C
:1006600070BDA8698006F2D4002070BDF0B56FF0AF
:100670000F058C8A2E014FEA054ECB682F034FF0F1
:100680007F4C0EEB04540AB31A03A2F58052836820
:1006900022431D4C23401A438260D1E9002305EB1D
:1006A0000313521E1A438B6806EB03231A430B8A6B
:1006B000097E07EB03431A430CEB01610A43C1684F
:1006C00001F070410A43C2600020F0BDD1E9002E64
:1006D00005EB0E15521E2A438D6806EB05252A43AD
:1006E0000A4D05EB03331A430B8A097E07EB0343DC
:1006F0001A4322430CEB01610A43816801F0704107
:100700000A438260E0E70000FF0F0FFF00F0FFFFE9
:1007100070B5324988B00024086840F08000086055
:10072000086800F080000790086840F48070086056
:10073000086802A900F4807007908020012681E8F3
:10074000510003200590264800F096FA3502CDE9C5
:100750000256244E02A9304600F08EFAFFF71AFE28
:1007600000222946304600F0AEFB142002F084F847
:1007700001222946304600F0A6FB322002F07CF828
:100780008DF800400422694648F2401000F026F936
:100790008DF80440694614A001F0FCFE154800994C
:1007A00048F24005C0F80A1002208DF8000001222E
:1007B0006946284600F042F901226946E81D00F02A
:1007C0000DF90A2002F058F88DF800400122694620
:1007D000284600F033F908B0204670BD303802409A
:1007E000001C0240002002404354502049443A2556
:1007F000730D0A00080000202DE9F14F82B0002699
:10080000724C8DF8006005276078DFF8C491401CB9
:10081000C0B20A21B0FBF1F201FB1201B2466070D6
:1008200009F1140509B10A287ED2684869A10A3085
:10083000FFF72FFDA8B948F24E18012202A9404641
:1008400000F0CCF89DF8080001060AD500F00F0072
:10085000052806D88DF8006001226946404600F060
:10086000EDF89DF8080001077CD000F00F00052886
:1008700078D8FF218140C8B2C043B4F808B040F036
:10088000C00053492081B9F800000881143128883C
:100890000881042001F0F0FF8DF800604FF0010A9C
:1008A0004FEA04089DF800100AFA01F0B8F80810A1
:1008B000084232D0454847A10A30FFF7EAFC60BB46
:1008C00045489DF80010042230F8110001A900F0FD
:1008D00085F898F802009DF80510C0079DF80400FF
:1008E00000EB01219DF800000AD029F810109DF8B6
:1008F00006109DF8072001EB022125F810100CE0EE
:1009000025F810109DF806109DF8072001EB022134
:10091000B8F80420511A29F810109DF80000401C66
:10092000C0B28DF8000000E01CE0B842BAD3B9F8BC
:100930000010B8F804204FF0010A4846914204D84C
:100940002988B8F8062091420AD99DF8081001F0CC
:100950000F0101290DD94188A9F800106888288065
:1009600088F8016019481BA10A30FFF792FC88B192
:1009700024E000EB470105EB470031F8021CA9F821
:10098000001030F8020C288080208DF80800A8F8AC
:1009900008B0E7E79DF8080000F08F0080280DD12F
:1009A0002089010602D520F0800006E04FF6FF7195
:1009B000A9F80010298000F0E00020816078F0287C
:1009C00001D90A2060705046BDE8FE8F0800002063
:1009D000A001002039313100D42A00082DE9F0416E
:1009E00015460E460446FFF761FD2820FFF732FD4D
:1009F000FFF7A2FD200AFFF72DFDFFF79DFDE0B2F6
:100A0000FFF728FDFFF798FDFFF750FD2920FFF7BE
:100A100021FDFFF791FD00246F1E09E0BC4201D0CB
:100A2000012000E00020FFF7E7FC3055641CE4B231
:100A3000AC42F3D3BDE8F041FFF75EBD2DE9F041D4
:100A400016460F4604460025FFF730FD2820FFF725
:100A500001FDFFF771FD200AFFF7FCFCFFF76CFDBD
:100A6000E0B2FFF7F7FCFFF767FD002408E0385D10
:100A7000FFF7F0FCFFF760FD050003D1641CE4B252
:100A8000B442F4D3FFF738FD2846BDE8F0810000FA
:100A900070B590F83820012A24D0012680F83860FB
:100AA000022280F8392000EB0112148CD36918322D
:100AB00043EA04451E4C0A2B16D0092B14D0137B95
:100AC00045EA03630029016813D0CD69A5431D439E
:100AD000CD6103681168196151680A291BD0092981
:100AE00019D01DE0022070BDD36803F07F432B4373
:100AF000E8E74D6AA5431D434D620368116899619B
:100B000051680A2901D009290AD1D168026821F067
:100B10007F41916204E0D168026821F07F41116257
:100B200080F83960002180F83810084670BD000058
:100B30000F0003FF70B5040004D094F839000025BD
:100B400010B106E0012070BD84F83850204600F056
:100B50001FF8022084F8390020680168626821F4D7
:100B60004031114301602068416BA26821F0070108
:100B7000114341632068016CE2686FF30D0111437A
:100B80000164E563012084F83900002070BD000095
:100B900008B500680649884208D10648016841F452
:100BA00000010160006800F40000009008BD000032
:100BB00000B0024030380240F0B587B014216846DA
:100BC000FFF75CFB25480168002944D10121016041
:100BD00023480024016841F00101016000680225FA
:100BE00000F0010005904FF63F00CDE9000502AA94
:100BF00003260C2782E8D00069461A4800F03CF82A
:100C00000D20CDE9000502AA694682E8D000164809
:100C100000F032F848F23710CDE9000502AA694623
:100C200082E8D000114800F027F84FF68370CDE934
:100C3000000502AA694682E8D0000D4800F01CF8C1
:100C40004CF20370CDE9000502AA694682E8D000A3
:100C5000084800F011F807B0F0BD000000000020C7
:100C600038380240001402400008024000180240D8
:100C700000100240000C02402DE9F84FDFF8F8A107
:100C80000022012403254FF00F090AF1040BAAF1F9
:100C9000040E00BF0B6804FA02F63340B34270D171
:100CA0000F7907F00307012F01D0022F16D18768B3
:100CB0004FEA420805FA08FC27EA0C07D1F80CC0F5
:100CC0000CFA08FC4CEA070CC0F808C04768B743A8
:100CD0000E79C6F3001696403E4346600E79F64301
:100CE000B6070AD0C7684FEA420C05FA0CF6B743BC
:100CF0008E6806FA0CF63E43C6600E7906F00306CF
:100D0000022E10D1D60800EB8608D8F820605707CD
:100D10004FEAD76C09FA0CF7BE430F6907FA0CF7D4
:100D20003743C8F8207006684FEA420C05FA0CF702
:100D3000BE430F7907F0030707FA0CF73743076044
:100D40004E6816F4403F1CD04C4E376847F480473D
:100D50003760366822F0030706F480460096484E56
:100D600007EB060CDCF8086897073F0F09FA07F84D
:100D700026EA0806DFF80C81404503D14FF0000851
:100D800041E072E0DFF80081404502D14FF00108F8
:100D900039E0DFF8F880404502D14FF0020832E038
:100DA000DFF8EC80404502D14FF003082BE0DFF87C
:100DB000E480404502D14FF0040824E0DFF8D880F9
:100DC000404502D14FF005081DE0DFF8D0804045D6
:100DD00002D14FF0060816E0DFF8C480404502D18A
:100DE0004FF007080FE0DFF8BC80404502D14FF01C
:100DF000080808E0DFF8B080404502D14FF009084C
:100E000001E04FF00A0808FA07F848EA0608CCF8AB
:100E10000888DAF800605746D1F804C09E435FEABC
:100E2000CC2C00D51E433E60DBF800605F46D1F855
:100E300004C09E435FEA8C2C00D51E433E60DEF862
:100E400000607746D1F804C09E435FEA8C3C00D531
:100E50001E433E60084F083F3E68D1F804C09E43E1
:100E60005FEACC3C00D51E433E60521C102AFFF4C2
:100E700011AFBDE8F88F0000083C01404438024043
:100E8000003001400000024000040240000802401F
:100E9000000C024000100240001402400018024002
:100EA000001C02400020024000240240006908406B
:100EB00000D001207047426921EA02030A4043EA58
:100EC0000241816170470AB1816170470904FBE703
:100ED00001488068704700001800002002488168BF
:100EE0000278114481607047180000200B4810B54B
:100EF000016841F400710160016841F480610160A2
:100F0000016841F480710160032000F0D9F90F20DD
:100F100000F006F800F09CF9002010BD003C0240F3
:100F200070B50D4D04464FF47A712878B1FBF0F09E
:100F30000A490968B1FBF0F000F030FE48B9102C06
:100F400007D200222146501E00F09AF900206C6062
:100F500070BD012070BD000018000020240000209A
:100F60002DE9F041044690F8A00016460F460128EE
:100F70001DD0012584F8A050022084F8A10006EBC2
:100F8000860000EBC60004EB800034223830FFF707
:100F90005CF932463946204600F04AFF2068456237
:100FA00084F8A150002084F8A000BDE8F081022060
:100FB000FBE7000070B5040004D094F8A100002500
:100FC00010B106E0012070BD84F8A050204600F06A
:100FD0006BF8022084F8A1002068816921F070413B
:100FE0008161D4E901010843D4E9031211430843A4
:100FF00021688A691043886121688A68294802400B
:101000008A60A18A0A0421688B68A6693343134366
:101010008B602168CA680240CA60A18B0B042168FA
:10102000CA68266A32431A43CA6021680A690240C4
:101030000A61A18C22680B041169A66A3143194325
:10104000116121684A6902404A61A08D010420684B
:101050004269236B1A430A43426194F835002168C0
:10106000020294F83600CB6A03F07F43CB6221681A
:10107000CB6A94F8346042EA004033430343CB62C6
:101080002068416B41F0060141632068816941F0AD
:1010900001018161C4F8A450012084F8A10000205E
:1010A00070BD000000F800F070B592B00446142145
:1010B0006846FFF7E3F8302105A8FFF7DFF8344969
:1010C0002068884261D10820059000256C200E958B
:1010D000022409900B9405A800F03CF908B1FFF731
:1010E00060FA2C48016841F080610160006800F0FE
:1010F0008060119027481438016841F480710160C4
:10110000016801F480711191016841F020010160D2
:10111000016801F020011191016841F08001016036
:10112000016801F080011191016841F04001016006
:1011300000680E2600F04000119040F2F7608DE844
:101140003100CDE9034669461348FFF795FD4FF49A
:1011500080608DE83100CDE9034669460F48FFF70E
:101160008BFD4FF47E408DE83100CDE903466946A2
:101170000B48FFF781FD4FF40C608DE83100CDE99D
:10118000034669460748FFF777FD12B070BD0000BF
:101190000068014044380240002002400014024030
:1011A000001C02400018024070B5044690F8A000F0
:1011B0000E46012820D0012584F8A050022084F892
:1011C000A10003EB830000EBC30004EB800141F8B6
:1011D000386F886A3044C1E90102C86A1044C860A7
:1011E0001A46204600F024FE2068456284F8A1508B
:1011F000002084F8A00070BD022070BD70B50446C8
:1012000090F8A0000E46012820D0012584F8A050B7
:10121000022084F8A10003EB830000EBC30004EB81
:10122000800151F8380F3044486088681044C86025
:10123000C1E90A621A46204600F0FAFD20684562BC
:1012400084F8A150002084F8A00070BD022070BD79
:101250000A4808B5016841F480410160006800F463
:10126000804000900548001F016841F080510160F6
:10127000006800F08050009008BD00004438024033
:10128000F0B40E4B1B680C46C3F30223C3F10705F1
:10129000042D00D90425191D072901D2002300E0DF
:1012A000DB1E012606FA05F1491E214099409E40A9
:1012B000761E16403143F0BC01F07CB90CED00E025
:1012C000064900F0070208684FF6FF03184040EA9D
:1012D0000220034A10430860704700000CED00E054
:1012E0000000FA052DE9F8431748016841F08051E4
:1012F00001600068154F00F08050012600903E64A8
:10130000FFF7E6FD05464FF47A78114C05E000BF83
:10131000FFF7DEFD401B40450DD86068C003F7D5E0
:101320007E64FFF7D5FD0546464607E0FFF7D0FD92
:10133000401BB04202D90320BDE8F88360688003F7
:10134000F4D50020F8E700004038024000000E42CB
:10135000007000402DE9F84F04460068DFF824A231
:10136000894F8A4DC1074FF001084FF0000603D1A5
:10137000810701D4400648D5CAF86860FFF7A8FD88
:10138000814605E0FFF7A4FDA0EB090002287DD807
:1013900028680001F6D42078C1077D4805D061682F
:1013A000227A890141EA027101602178890711D509
:1013B00001686268237B9201C1F3027142EA036211
:1013C00042EA017101603968E26921F01F01521E91
:1013D000114339602178490608D56168227B89016B
:1013E00041EA0261227A41EA02710160CAF868802A
:1013F000FFF76EFD814605E0FFF76AFDA0EB0900EF
:10140000022843D828680001F6D52068410701D496
:1014100000074ED5CAF87060FFF75AFD814605E017
:10142000FFF756FDA0EB090002282FD82868C0431B
:101430008000F5D520784107564814D50168226907
:10144000237D9201C1F3027142EA036242EA017113
:1014500001603968226A6FF0FF0321F4F85103EB51
:101460000222114339602178090712D501682269E7
:10147000C1F30361920142EA0161227E41EA0271F5
:1014800001603868616A20F4403000E051E00843B0
:101490003860CAF87080FFF71BFD074605E000BF03
:1014A000FFF716FDC01B022843D82868C043800000
:1014B000F6D42078800653D534484030016841F096
:1014C000805101600068344D00F080500090286821
:1014D00040F480702860FFF7FBFC074605E000BF82
:1014E000FFF7F6FCC01B022823D82868C005F7D5F3
:1014F000274D143D286810F4407020D0218D01F450
:10150000407181421BD0286820F440712348C0F804
:101510000080066029602868C00710D0FFF7D8FC5B
:10152000064641F2883707E0FFF7D2FC801BB8423D
:1015300002D90320BDE8F88F28688007F4D5A16A96
:101540001248C1F301220830032A13D0016821F4A4
:10155000F81101602868218DC1F30B010843286050
:101560002078C00604D50E4994F82C00C1F8E0019B
:101570000020DFE702680B4B22F4F81219400A43FF
:101580000260E7E7000047428C3802400038024022
:10159000843802408838024000700040400E4742C4
:1015A00000104742FFFCFF0F2DE9F0470E460500F3
:1015B00065D0DFF81481D8F80000F7B200F00F0012
:1015C000B04207D288F80070D8F8000000F00F0091
:1015D000B04254D128683D4C810712D5400703D54D
:1015E000206840F4E05020602878000703D5206888
:1015F00040F4604020602068A96820F0F0000843B3
:1016000020602878C0072DD0304968680839012843
:1016100012D0022813D0032811D0096889070029A5
:101620002DDA216821F0030101432160FFF750FC0E
:10163000814641F2883A0EE009688903EFE70968BC
:101640008901ECE7FFF744FCA0EB0901514502D901
:101650000320BDE8F0872068696800F00C00B0EB5B
:10166000810FEFD1D8F80010404601F00F01B142D0
:1016700007D90770006800F00F00B04201D00120C8
:10168000E7E72878400705D52068E96820F4E050AE
:10169000084320602878000706D52068296920F4CF
:1016A000604040EAC100206000F038F82168084A34
:1016B000C1F30311515CC840064908600648006840
:1016C000FFF72EFC0020C4E7003C0240083802402F
:1016D000F22A0008240000201C00002004480549CC
:1016E00000680968044AC1F38221515CC840704710
:1016F0002400002008380240022B00080448054955
:1017000000680968044AC1F34231515CC84070471F
:101710002400002008380240022B0008154810B5AC
:10172000006810F00C02144813D01449042A0FD09A
:10173000082A0ED10F4C241F2268236802F03F02B2
:101740005B0207D52068C0F38810A0FB010106E00A
:10175000084610BD2168C1F38811A1FB00010023D8
:10176000FEF742FD2168C1F30141491C4900B0FB6D
:10177000F1F010BD083802400024F40040787D01EB
:101780002DE9F84F04006ED02078DFF84C93C007A5
:10179000A9F104054AD009F104000168C1F38101EF
:1017A000012908D00068C0F3810002280AD1D9F8C5
:1017B0000000400206D52868800337D560680028FD
:1017C000E1D033E06068B0F5803F10D0B0F5A02FD5
:1017D000286810D020F480302860286820F4802009
:1017E00028606068A8B1FFF773FB06460DE0286823
:1017F00040F48030F4E740F480202860F7E700BF31
:10180000FFF766FB801B642873D828688003F7D530
:101810000CE0FFF75DFB064605E000BFFFF758FB55
:10182000801B6428F0D828688003F7D42078DFF87C
:10183000AC8280074FF0000A3ED5A748001D016822
:1018400011F00C0F08D00068C0F3810002280BD102
:10185000D9F80000400207D42868800716D5E06850
:10186000012800D112E033E1E068B8B10120C8F8E6
:101870000000FFF72DFB064605E000BFFFF728FB41
:10188000801B0228C0D828688007F7D528682169FE
:1018900020F0F80040EAC10028600DE0C8F800A080
:1018A000FFF716FB064604E0FFF712FB801B022839
:1018B0001FD828688007F7D42078000722D5864FE4
:1018C00087486169703771B101210160FFF700FB42
:1018D000064604E0FFF7FCFA801B022809D83868A6
:1018E0008007F7D50EE0C0F800A0FFF7F1FA064632
:1018F00005E082E0FFF7ECFA801B02287DD838680B
:101900008007F7D42078400768D5DFF8CCB10027EE
:101910000BF13C0BDBF80000C0000BD4DBF800102F
:1019200041F08051CBF80010DBF80000012700F0F7
:10193000805000906B4E3068C00510D4306840F481
:1019400080703060FFF7C4FA009005E0FFF7C0FA3E
:101950000099401A022850D83068C005F6D55E4E6E
:10196000A0686C3601280FD00528306810D020F010
:1019700001003060306820F004003060A068B8B129
:10198000FFF7A6FA00900FE0306840F00100F4E79E
:1019900040F004003060F7E7FFF79AFA0099411A27
:1019A00041F28830814266D830688007F4D50EE075
:1019B000FFF78EFA009007E0FFF78AFA0099411AC4
:1019C00041F28830814256D830688007F4D42FB174
:1019D000DBF8001021F08051CBF80010A069C8B3EB
:1019E0003D49091D0968C1F3810102294AD0022835
:1019F000504607D0C8F8600000E03CE0FFF768FA06
:101A000004463BE04746C8F86000FFF761FA064627
:101A100005E000BFFFF75CFA801B02282BD828687E
:101A20008001F7D4D4E907010843A16A2E4A490886
:101A300002EB0141626A41EA8211084394F82C10DA
:101A400040EA0161C9F8001001203866FFF740FA4A
:101A5000044606E03EE000BFFFF73AFA001B02280A
:101A600009D828688001F7D534E000BFFFF730FAC5
:101A7000001B022802D90320BDE8F88F28688001E6
:101A8000F4D427E00128F7D0D9F80000E26900F487
:101A9000800191421CD1226A00F03F01914217D18E
:101AA00047F6C071626A0140B1EB821F10D1A26A91
:101AB0004FF0FF3300F4403103EB5202B1EB024F21
:101AC00006D194F82C1000F07060B0EB016F01D0DB
:101AD0000120D1E70020CFE7043802400000474250
:101AE000800E4742007000400000FFFF70B50D46B9
:101AF000040003D094F82C0010B107E0012070BD61
:101B0000002084F82D00204600F011F8022084F80F
:101B10002C00211D2068FEF746FDD4E9000229466D
:101B2000FEF7A4FD012084F82C00002070BDFFF713
:101B300043B810B5044690F82C00022804D094F85D
:101B40002C00012801D0012010BD022084F82C00B7
:101B50002068FEF75BFD012084F82C00002010BDFA
:101B600070B5044690F82C000D46022804D00128D8
:101B700003D0052801D0012070BD022084F82C007C
:101B80002068FEF74CFD2868022805D05FF00100B0
:101B900084F82C00002070BD0520F9E710B5401E28
:101BA000B0F1807F01D3012010BD4FF0E0246061CF
:101BB0000F21601700F0FEFC0020A06107202061CB
:101BC000002010BD70B5040004D094F84100002539
:101BD00010B106E0012070BD84F84050204600F0AE
:101BE00023F8242084F841002068C16821F40051C2
:101BF000C160204600F00EFC2068016921F490418C
:101C000001612068416921F02A0141612068C168B1
:101C100041F40051C1606564202084F8410084F8DB
:101C200042006563002070BD10B586B004461421E3
:101C30006846FEF723FB14492068884221D11348E7
:101C40000021026842F010020260006800F01000FB
:101C500005900E481438026842F0010202600068E4
:101C600000F0010005904FF4C06000900220CDE923
:101C70000101032003900720049069460448FEF701
:101C8000FBFF06B010BD00000010014044380240C8
:101C9000000002402DE9F843044690F841009846C0
:101CA00016460D46202802D00220BDE8F88385B1F3
:101CB0007EB100206064212084F84100FFF708F91C
:101CC000A6848146E684A0682027B0F5805F02D014
:101CD00003E00120E9E7206910B12E4600250EE05F
:101CE00000260CE08021204600F01AFCA8B9C6B1FD
:101CF00016F8010B21684860E08C401EE084E08CFF
:101D00004B464FF00002CDF800800028EAD14FF09A
:101D10004001204600F004FC40B184F841700320EB
:101D2000C3E735F8020BC0F30800E3E784F841701D
:101D30000020BAE7FEE708B50021009040F2FF332B
:101D400040F25722084600F001F808BDF8B5A0F2AD
:101D50005720A2F2572246425B1A00245242A3F2B5
:101D6000FF30404287B201EB82204FF0404101EB4F
:101D700040011C48069DD0F800C04CF4000CC0F88F
:101D800000C0006800F4000000901748D0F800C0C0
:101D90002CF0010CC0F800C04FF4403CC0F800C06B
:101DA0004FF0020CC0F834C00764C163B11A4FF49D
:101DB000803202EB0342491C114341648563016890
:101DC00041F0010101604FF4001102E0641C8C42FB
:101DD00002D242689207F9D5816841F00201816020
:101DE000F8BD00003038024000B00240002310B5BA
:101DF0001A4619460948FFF7D7F900234FF416721F
:101E00004FF480610548FFF7F9F900F009F8BDE8E3
:101E100010404FF0FF30FFF78EBF0000B0000020F1
:101E2000012220210148FFF74EB8000000040240C3
:101E3000F0B503688C88DD68C5F30B452C44250498
:101E4000882404EBC2141E5906F470461E51036820
:101E50000F68DE68C6F30B46761C3E442E431E51C7
:101E600004688B89E568C5F30A052B441D048C239F
:101E700003EBC213E65806F47046E65004688F6818
:101E8000E668C6F30A06761C3E442E43E6509423C9
:101E9000046803EBC213E55825F00705E550056813
:101EA0000C69EC5091F831300C7E1F0226069C2400
:101EB000056804EBC21491F8323055F804C04FF0B5
:101EC000000C45F804C091F8305046EA03433D4306
:101ED0001D4303681D519823046803EBC213E558A2
:101EE00025F0FF05E55005684C69EC50A023046817
:101EF00003EBC213E55840F20776B543E550D1E94C
:101F000007452C430568EC50AC23046803EBC2136F
:101F1000E55844F803C005684C6AEC500B698BB374
:101F2000012B32D0042B32D0022B30D0032B2ED0F9
:101F3000072B2CD00123B024056804EBC2142E59C2
:101F400006F0E0262E51D1E90065AD1B0E8D5D43F4
:101F50005E43ED1C45EA064305682B51B423046833
:101F600003EBC213E5586FF30A05E5500468C96A2C
:101F7000E1500068842101EBC211425842F0010295
:101F80004250F0BDFFE70423D5E70323D3E7022344
:101F9000D1E700000F4810B50D4901600021022271
:101FA000C0E90112C160C0E90A1201634163FEF792
:101FB000C1FD08B1FEF7F5FA01210648FEF768FDFC
:101FC000002803D0BDE81040FEF7EBBA10BD0000BA
:101FD00000B002402C00002000B587B01C216846EC
:101FE000FEF74CF916481549012201600021C0E9AD
:101FF00001120822C26010220261402242614FF4A5
:10200000C072C0E906214FF4006202625200C0E9CA
:1020100009210220072105228DE8070003910321F1
:10202000CDE90410069069460548FFF75FFD0028DA
:1020300001D0FEF7B6FA07B000BD0000400100A0D5
:102040007C0000202DE9F04186B014216846FEF79F
:1020500015F93E480025016841F00401016001685E
:1020600001F004010591016841F48071016001688B
:1020700001F480710591016841F02001016001685F
:1020800001F020010591016841F0800101600168C3
:1020900001F080010591016841F0020101600168D1
:1020A00001F002010591016841F040010160016801
:1020B00001F040010591016841F0100101600168E3
:1020C00001F010010591016841F00801016001680B
:1020D00001F008010591016841F00101016000680B
:1020E0001B4F00F001000590002223213846FEF727
:1020F000EAFE184E012240213046FEF7E4FEDFF8EA
:102100005880012208214046FEF7DDFE23200124ED
:102110008DE83100694638460395FEF7ADFD402055
:1021200011250227CDE90005CDE902476946304671
:10213000FEF7A2FD0820CDE90005CDE9024769467A
:102140004046FEF799FD06B0BDE8F0813038024008
:1021500000040240001C02400020024030B58DB057
:1021600034216846FEF78AF8264825490024C0E94C
:10217000001484601321C460C0E9044102259F213A
:10218000C0E906511621016240F29F41416240F2CE
:102190006E21816240F23F51C16240F27A210163B7
:1021A00080F8344080F8354080F83640FEF702FF72
:1021B00008B1FEF7F6F94FF416714FF48060CDE9DF
:1021C0000241CDE90040CDE906400520FF210890FD
:1021D0008807CDE90904CDE904518DF830408DF828
:1021E00031400B948DF83240002269460548FEF7D5
:1021F000B7FE002801D0FEF7D4F90DB030BD0000C5
:1022000000680140B00000200C4810B50A49016088
:102210004FF4E1314160002181600C22C160C0E9CE
:1022200004128161C161FFF7CDFC002803D0BDE835
:102230001040FEF7B6B910BD001001405801002053
:10224000FEE7FEE770470000024901F1100000F0D0
:1022500003B800006C0000202DE9F8430C4600256F
:10226000012610270095C4E90067C4E902654FF410
:10227000805881464246FFF773FC052000F02AF89B
:102280000220C4E90007C4E90265424621464846E7
:10229000FFF766FC0320C4E900070820C4E9020533
:1022A000424621464846FFF75BFC40F231200421BC
:1022B0000090C4E90017C4E902604246214648463E
:1022C000FFF74EFC4846BDE8F84340F2F921FFF71E
:1022D00030BC000001B581B004490198484300902A
:1022E000002801D0401EFAE70CBD0000400D03009D
:1022F0007047FEF7F3BD000070B592B0302168461C
:10230000FDF7BCFF14210CA8FDF7B8FF1F480025FE
:10231000016841F080510160006800F08050119028
:102320001B48016841F4404101600068022400F448
:102330004040119001200090000401908001CDE9FF
:1023400006400F260896D820CDE9090404200B90FA
:102350006846FFF715FA08B172B6FEE7FEF7C2FF4E
:1023600008B172B6FEE74FF4A050CDE90E504FF41D
:102370008050CDE90C64109005210CA8FFF714F9EA
:10238000002801D072B6FEE712B070BD403802409E
:10239000007000400248016841F47001016070471C
:1023A00088ED00E010B5FEF7B3F9054881780278B2
:1023B00041F0800102F001020A438270002010BD4A
:1023C0000800002001680C3151E8002F22F49072BF
:1023D00041E80023002BF5D10168143151E8002FAA
:1023E00022F0010241E80023002BF5D1016B012905
:1023F00009D101680C3151E8002F22F0100241E8A8
:102400000023002BF5D1202180F842100021016328
:102410007047000070B5044600680169E26821F465
:102420004051114301612169A068E2690843616973
:10243000114308432168CA6849F20C639A43024376
:10244000CA6020684169A26921F440711143416169
:1024500031492068884202D03049884202D1FFF7D2
:102460004DF901E0FFF73AF9E269002319216425EB
:102470003226B2F5004F626828D0A0FB0101930F0D
:102480009200FDF7B1FE0146B0FBF5F06FF01802C7
:10249000504301EB800006EB0010B0FBF5F000F0BC
:1024A000F002B1FBF5F002EB0012B1FBF5F06FF0BA
:1024B0001803584301EB800006EB0010B0FBF5F069
:1024C00000F00F0021681044886070BDA0FB01017E
:1024D00092185B41FDF788FE0146B0FBF5F0020162
:1024E000B1FBF5F06FF01803584301EB800006EBE9
:1024F000C000B0FBF5F000F0F80002EB4002B1FBC9
:10250000F5F0584301EB800006EBC000B0FBF5F09E
:1025100000F00700D6E70000001001400014014061
:102520002DE9F843984617460D460446089E24E0D8
:10253000701C22D0FEF7CCFCA0EB0800B0421AD8E9
:10254000CEB12068C168490717D5802D15D0402D20
:1025500013D00168C94309070FD4016800254068FA
:1025600000902046FFF72EFF0820606484F840505A
:102570000120BDE8F8830320FBE72068006835EA06
:10258000000004D00020B842D2D00020F1E70120A2
:10259000F9E7FEE70FB4054B10B503A9044A02980A
:1025A00000F028F810BC5DF814FB0000C1280008FA
:1025B000280000200907090E002804DB00F1E020B4
:1025C00080F80014704700F00F0000F1E02080F860
:1025D000141D704702E008C8121F08C1002AFAD172
:1025E00070477047002001E001C1121F002AFBD193
:1025F000704700002DE9FF4F8BB09A460F46054605
:10260000002606E025280BD052460D9990476D1CF8
:10261000761C28780028F5D10FB03046BDE8F08F41
:102620000024A0460122604900E0044315F8013F60
:10263000203B02FA03F00842F7D128782E2817D160
:1026400015F8010F44F004042A280ED06FF02F0271
:102650002878A0F1300109290AD808EB880102EB9B
:10266000410100EB01086D1CF2E757F8048B6D1C6B
:10267000287869283ED006DC0028CDD063280BD00E
:10268000642804D136E0732810D075284BD0524608
:102690000D999047761C85E017F8040B8DF8000023
:1026A00000208DF80100E946012003E057F8049B63
:1026B0004FF0FF3061074FF0000401D40AE0641CC2
:1026C00044450DDA8442FADB19F804100029F6D1EA
:1026D00006E0641C8442FCDB19F804100029F8D1E0
:1026E000264404E019F8010B52460D999047641EE8
:1026F000F8D257E001CF4FF00A0B002802DA40422F
:102700002D2102E0210504D52B218DF82410012173
:1027100003E0E10705D02021F7E70DF1200908913A
:102720000CE00021F9E701CF4FF00A0BF9E7594619
:10273000FDF7BDFD01F1300209F8012D0028F6D1A9
:10274000ADEB090000F1200B600701D44FF0010848
:10275000D84502DDA8EB0B0000E0002080460024F5
:1027600006E009A85246005D0D999047641C761C4E
:1027700008988442F5DB04E0302052460D999047DA
:10278000761CB8F10001A8F10108F5DC05E019F8A4
:10279000010B52460D999047761CBBF10001ABF13D
:1027A000010BF4DC6D1C34E7092801008EB0002613
:1027B0002D4DDFF8B8B005274FF001080DF10809DD
:1027C0004FF6FF7A0020FEF717F80024298908FA4F
:1027D00004F0084230D03BF81420A9888A422DD258
:1027E000DFF888E0E9880EF1140E3EF814308B42D1
:1027F00024D239F824C0D44504D109EB840129F846
:1028000024204B801A494FF0020C09EB840031F868
:1028100014100C90CDE900C1418839F8240000F073
:10282000D2F812483BF81410143029F8241030F86C
:1028300014100C98418001E029F824A0641CE4B233
:10284000BC42C3D3052000F017F8761CF6B2142062
:10285000B6FBF0F100FB11600028B3D1032105485D
:10286000FEF729FBAEE7000008000020A0010020D1
:10287000DE2A00080004024070B5054600244FF42B
:102880007A7603E0304600F004F8641CAC42F9D3D9
:1028900070BD70B54FF0E02400226569B421484353
:1028A000A169A3698B42FCD002D2A1EB030102E033
:1028B000A5EB030631440A4419468242F1D370BDA8
:1028C00013B54FF6FF73012269460248FFF7E2F99C
:1028D00000981CBD58010020F8B51D46002A14D0F0
:1028E0000A4C8618761EA3889E4202DB981A401E68
:1028F00080B2E388994201D35B1E99B20244521E12
:1029000092B20B460095FFF721FAF8BD08000020AF
:102910002DE9FF5F80460E4640F2C32050434FF43E
:102920007A71B0FBF1F702FB02F000EB520B144698
:102930004FF6FF7000EA4202A8EB040080B2314675
:102940007F1C039BFFF7C8FF012538E005FB05F05E
:1029500004FB040159451BD9BC4218D96800A0F1F9
:102960000209301981B2A8EB050000F1010A1FFA33
:1029700089F21FFA8AF0039BFFF7AEFF301B81B28A
:102980001FFA89F21FFA8AF0039BFFF7A5FF641E66
:102990004FF6FF7000EA4402701981B2A8EB040AF6
:1029A00091461FFA8AF0039BFFF796FF701B81B2D6
:1029B0004A461FFA8AF0039BFFF78EFF6D1CBD424B
:1029C000C4D9BDE8FF9F2DE9FF5F4FF00008DDF897
:1029D00038A0474650454FD352454DD351454BD370
:1029E000534549D3161A5D1A029000914FF0FF30FB
:1029F000002E02DD4FF0010102E003D14FF0000193
:102A00008B4602E08346C6F10006002D02DD4FF042
:102A1000010002E003D14FF00000019002E0C5F197
:102A200000050190AE4201DD344600E02C46601CFA
:102A30004FF0000903901CE00098524681B20298C2
:102A40000F9B80B2FFF764FFB0442F44A04505DD23
:102A50000299A8EB040801EB0B000290A74204DDE9
:102A6000DDE9000108443F1B009009F101001FFA55
:102A700080F903998945DFDDBDE8FF9FFEF736FA4F
:102A8000FFF73AFCFFF7DEFAFFF7BEFBFFF7A4FA09
:102A9000FFF780FAFFF762FBFFF7D6FBFFF7A6F917
:102AA000FFF780FCFFF782FE064C4FF4FA75032116
:102AB0002046FEF700FA04A0FFF76CFD2846FFF75A
:102AC000DBFEF4E700040240746573742E2E0D0AD9
:102AD000000000005081588160816881708100F899
:102AE000E0071F0040BCE0FF1FF8FF077C7D07FCEC
:102AF000308400000000000000000102030406070B
:102B00000809000000000102030400002C2B00084B
:102B1000000000202C000000D4250008582B0008DD
:102B20002C0000209C050000E425000800000000A7
:102B30000000000000000000580200040000000037
:102B40000000000001000000100000000000000074
:082B50000024F4000000000065
:04000005080001AD41
:00000001FF
