:020000040800F2
:1000000090050020C5010008171C000855170008BE
:10001000151C0008210300084B1F00080000000009
:10002000000000000000000000000000C51C0008E7
:100030002303000800000000191C0008C71C00086A
:10004000DF010008DF010008DF010008DF01000810
:10005000DF010008DF010008DF010008DF01000800
:10006000DF010008DF010008DF010008DF010008F0
:10007000DF010008DF010008DF010008DF010008E0
:10008000DF010008DF010008DF010008DF010008D0
:10009000DF010008DF010008DF010008DF010008C0
:1000A000DF010008DF010008DF010008DF010008B0
:1000B000DF010008DF010008DF010008DF010008A0
:1000C000DF010008DF010008DF010008DF01000890
:1000D000DF010008DF010008DF010008DF01000880
:1000E000DF010008DF010008DF010008DF01000870
:1000F000DF010008DF010008DF010008DF01000860
:10010000DF010008DF010008DF010008DF0100084F
:10011000DF010008DF010008DF010008DF0100083F
:10012000DF010008DF010008DF010008DF0100082F
:10013000DF010008DF010008DF010008DF0100081F
:10014000DF010008DF010008DF010008DF0100080F
:10015000DF010008DF010008DF010008DF010008FF
:10016000DF010008DF010008DF010008DF010008EF
:10017000DF010008DF010008DF01000800000000C7
:10018000DF010008DF010008DF010008DF010008CF
:10019000DF010008DF010008DF010008DF010008BF
:1001A000DF010008DF010008DF010008DFF810D0E0
:1001B00000F0A4F80048004719210008AFF30080C0
:1001C000900500200648804706480047FEE7FEE706
:1001D000FEE7FEE7FEE7FEE7FEE7FEE7FEE7FEE7F7
:1001E0006D1D0008AD0100082DE9F05F05460020F7
:1001F00092469B4688460646814640241BE0284698
:1002000041464746224600F069F853465A46C01A0E
:10021000914110D311461846224600F050F82D1A8D
:1002200067EB01084F4622460120002100F047F805
:1002300017EB00094E41201EA4F10104DFDC484603
:1002400031462A464346BDE8F09F40EA01039B073A
:1002500003D009E008C9121F08C0042AFAD203E03B
:1002600011F8013B00F8013B521EF9D27047D2B29F
:1002700001E000F8012B491EFBD270470022F6E78F
:1002800010B513460A4604461946FFF7F0FF20460C
:1002900010BD30B50B46014600202022012409E0A4
:1002A00021FA02F59D4205D303FA02F5491B04FA2F
:1002B00002F52844151EA2F10102F1DC30BD202A0E
:1002C00004DB203A00FA02F1002070479140C2F1AD
:1002D000200320FA03F3194390407047202A04DBDF
:1002E000203A21FA02F00021704721FA02F3D040AF
:1002F000C2F120029140084319467047064C074D51
:1003000006E0E06840F0010394E8070098471034E5
:10031000AC42F6D3FFF74EFFA8210008C821000821
:10032000FEE7704772B6FEE7F0B5D1E907354C6AD3
:100330000A68C2B102682B4322F4F84214432343F3
:100340000360D1E901231A43D1E9033423431A435B
:100350004B6989691A430A4341686FF30E010A43E6
:1003600042600020F0BDD1E901263243D1E90367A4
:100370003E4332434E69896932430A431A432A4352
:10038000016822436FF30E010A430260E9E7426904
:1003900043F6FE739A4342EA4101416100207047EF
:1003A00070B514460546D1E9000210438A686FF023
:1003B0001F03C96803EB421242EA4121084329693D
:1003C0006FF315010843286100F092FA064609E030
:1003D000601C07D024B100F08BFA801BA04201D929
:1003E000032070BDA8698006F2D4002070BD000013
:1003F000F0B56FF00F058C8A2E014FEA054ECB68E1
:100400002F034FF07F4C0EEB04540AB31A03A2F5EE
:100410008052836822431D4C23401A438260D1E9F5
:10042000002305EB0313521E1A438B6806EB0323CC
:100430001A430B8A097E07EB03431A430CEB016155
:100440000A43C16801F070410A43C2600020F0BD58
:10045000D1E9002E05EB0E15521E2A438D6806EBDE
:1004600005252A430A4D05EB03331A430B8A097EFF
:1004700007EB03431A4322430CEB01610A438168F3
:1004800001F070410A438260E0E70000FF0F0FFFB8
:1004900000F0FFFF70B590F83820012A24D0012623
:1004A00080F83860022280F8392000EB0112148CA9
:1004B000D369183243EA04451E4C0A2B16D0092B87
:1004C00014D0137B45EA03630029016813D0CD697A
:1004D000A5431D43CD6103681168196151680A295C
:1004E0001BD0092919D01DE0022070BDD36803F08C
:1004F0007F432B43E8E74D6AA5431D434D620368E4
:100500001168996151680A2901D009290AD1D16875
:10051000026821F07F41916204E0D168026821F015
:100520007F41116280F83960002180F83810084658
:1005300070BD00000F0003FF70B5040004D094F8F4
:100540003900002510B106E0012070BD84F8385054
:10055000204600F01FF8022084F839002068016866
:10056000626821F44031114301602068416BA26848
:1005700021F00701114341632068016CE2686FF3C9
:100580000D0111430164E563012084F83900002066
:1005900070BD000008B500680649884208D10648C9
:1005A000016841F400010160006800F4000000905F
:1005B00008BD000000B002403038024070B504466B
:1005C00000F096F90546601C02D004480078044407
:1005D00000F08EF9401BA042FAD370BD0800002045
:1005E000F0B587B014216846FFF748FE254801683A
:1005F000002944D10121016023480024016841F011
:10060000010101600068022500F0010005904FF62D
:100610003F00CDE9000502AA03260C2782E8D0009E
:1006200069461A4800F03CF80D20CDE9000502AA01
:10063000694682E8D000164800F032F848F23710D8
:10064000CDE9000502AA694682E8D000114800F011
:1006500027F84FF68370CDE9000502AA694682E8C3
:10066000D0000D4800F01CF84CF20370CDE90005F5
:1006700002AA694682E8D000084800F011F807B0E5
:10068000F0BD000000000020383802400014024095
:10069000000802400018024000100240000C024016
:1006A0002DE9F84FDFF8F8A10022012403254FF0CF
:1006B0000F090AF1040BAAF1040E00BF0B6804FA3B
:1006C00002F63340B34270D10F7907F00307012FD0
:1006D00001D0022F16D187684FEA420805FA08FCBC
:1006E00027EA0C07D1F80CC00CFA08FC4CEA070CFE
:1006F000C0F808C04768B7430E79C6F300169640A5
:100700003E4346600E79F643B6070AD0C7684FEA03
:10071000420C05FA0CF6B7438E6806FA0CF63E4317
:10072000C6600E7906F00306022E10D1D60800EB43
:100730008608D8F8206057074FEAD76C09FA0CF7FB
:10074000BE430F6907FA0CF73743C8F820700668F4
:100750004FEA420C05FA0CF7BE430F7907F0030786
:1007600007FA0CF7374307604E6816F4403F1CD079
:100770004C4E376847F480473760366822F00307ED
:1007800006F480460096484E07EB060CDCF8086835
:1007900097073F0F09FA07F826EA0806DFF80C81E9
:1007A000404503D14FF0000841E072E0DFF80081DE
:1007B000404502D14FF0010839E0DFF8F8804045AC
:1007C00002D14FF0020832E0DFF8EC80404502D160
:1007D0004FF003082BE0DFF8E480404502D14FF0F2
:1007E000040824E0DFF8D880404502D14FF0050826
:1007F0001DE0DFF8D080404502D14FF0060816E03A
:10080000DFF8C480404502D14FF007080FE0DFF861
:10081000BC80404502D14FF0080808E0DFF8B08006
:10082000404502D14FF0090801E04FF00A0808FAEC
:1008300007F848EA0608CCF80888DAF80060574656
:10084000D1F804C09E435FEACC2C00D51E433E6025
:10085000DBF800605F46D1F804C09E435FEA8C2C51
:1008600000D51E433E60DEF800607746D1F804C034
:100870009E435FEA8C3C00D51E433E60084F083F14
:100880003E68D1F804C09E435FEACC3C00D51E43CD
:100890003E60521C102AFFF411AFBDE8F88F000033
:1008A000083C014044380240003001400000024052
:1008B0000004024000080240000C02400010024008
:1008C0000014024000180240001C024000200240B8
:1008D00000240240426921EA02030A4043EA02413D
:1008E000816170470AB1816170470904FBE700002C
:1008F00001488068704700000800002002488168B5
:100900000278114481607047080000200B4810B540
:10091000016841F400710160016841F48061016087
:10092000016841F480710160032000F0D9F90F20C3
:1009300000F006F800F09CF9002010BD003C0240D9
:1009400070B50D4D04464FF47A712878B1FBF0F084
:100950000A490968B1FBF0F000F030FE48B9102CEC
:1009600007D200222146501E00F09AF900206C6048
:1009700070BD012070BD00000800002014000020A0
:100980002DE9F041044690F8A00016460F460128D4
:100990001DD0012584F8A050022084F8A10006EBA8
:1009A000860000EBC60004EB800034223830FFF7ED
:1009B0004CFC32463946204600F04AFF206845622A
:1009C00084F8A150002084F8A000BDE8F081022046
:1009D000FBE7000070B5040004D094F8A1000025E6
:1009E00010B106E0012070BD84F8A050204600F050
:1009F0006BF8022084F8A1002068816921F0704121
:100A00008161D4E901010843D4E903121143084389
:100A100021688A691043886121688A6829480240F0
:100A20008A60A18A0A0421688B68A669334313434C
:100A30008B602168CA680240CA60A18B0B042168E0
:100A4000CA68266A32431A43CA6021680A690240AA
:100A50000A61A18C22680B041169A66A314319430B
:100A6000116121684A6902404A61A08D0104206831
:100A70004269236B1A430A43426194F835002168A6
:100A8000020294F83600CB6A03F07F43CB62216800
:100A9000CB6A94F8346042EA004033430343CB62AC
:100AA0002068416B41F0060141632068816941F093
:100AB00001018161C4F8A450012084F8A100002044
:100AC00070BD000000F800F070B592B0044614212B
:100AD0006846FFF7D3FB302105A8FFF7CFFB344969
:100AE0002068884261D10820059000256C200E9571
:100AF000022409900B9405A800F03CF908B1FFF717
:100B000011FC2C48016841F080610160006800F030
:100B10008060119027481438016841F480710160A9
:100B2000016801F480711191016841F020010160B8
:100B3000016801F020011191016841F0800101601C
:100B4000016801F080011191016841F040010160EC
:100B500000680E2600F04000119040F2F7608DE82A
:100B60003100CDE9034669461348FFF799FD4FF47C
:100B700080608DE83100CDE9034669460F48FFF7F4
:100B80008FFD4FF47E408DE83100CDE90346694684
:100B90000B48FFF785FD4FF40C608DE83100CDE97F
:100BA000034669460748FFF77BFD12B070BD0000A1
:100BB0000068014044380240002002400014024016
:100BC000001C02400018024070B5044690F8A000D6
:100BD0000E46012820D0012584F8A050022084F878
:100BE000A10003EB830000EBC30004EB800141F89C
:100BF000386F886A3044C1E90102C86A1044C8608D
:100C00001A46204600F024FE2068456284F8A15070
:100C1000002084F8A00070BD022070BD70B50446AD
:100C200090F8A0000E46012820D0012584F8A0509D
:100C3000022084F8A10003EB830000EBC30004EB67
:100C4000800151F8380F3044486088681044C8600B
:100C5000C1E90A621A46204600F0FAFD20684562A2
:100C600084F8A150002084F8A00070BD022070BD5F
:100C70000A4808B5016841F480410160006800F449
:100C8000804000900548001F016841F080510160DC
:100C9000006800F08050009008BD00004438024019
:100CA000F0B40E4B1B680C46C3F30223C3F10705D7
:100CB000042D00D90425191D072901D2002300E0C5
:100CC000DB1E012606FA05F1491E214099409E408F
:100CD000761E16403143F0BC01F048B90CED00E03F
:100CE000064900F0070208684FF6FF03184040EA83
:100CF0000220034A10430860704700000CED00E03A
:100D00000000FA052DE9F8431748016841F08051C9
:100D100001600068154F00F08050012600903E648D
:100D2000FFF7E6FD05464FF47A78114C05E000BF69
:100D3000FFF7DEFD401B40450DD86068C003F7D5C6
:100D40007E64FFF7D5FD0546464607E0FFF7D0FD78
:100D5000401BB04202D90320BDE8F88360688003DD
:100D6000F4D50020F8E700004038024000000E42B1
:100D7000007000402DE9F84F04460068DFF824A217
:100D8000894F8A4DC1074FF001084FF0000603D18B
:100D9000810701D4400648D5CAF86860FFF7A8FD6E
:100DA000814605E0FFF7A4FDA0EB090002287DD8ED
:100DB00028680001F6D42078C1077D4805D0616815
:100DC000227A890141EA027101602178890711D5EF
:100DD00001686268237B9201C1F3027142EA0362F7
:100DE00042EA017101603968E26921F01F01521E77
:100DF000114339602178490608D56168227B890151
:100E000041EA0261227A41EA02710160CAF868800F
:100E1000FFF76EFD814605E0FFF76AFDA0EB0900D4
:100E2000022843D828680001F6D52068410701D47C
:100E300000074ED5CAF87060FFF75AFD814605E0FD
:100E4000FFF756FDA0EB090002282FD82868C04301
:100E50008000F5D520784107564814D501682269ED
:100E6000237D9201C1F3027142EA036242EA0171F9
:100E700001603968226A6FF0FF0321F4F85103EB37
:100E80000222114339602178090712D501682269CD
:100E9000C1F30361920142EA0161227E41EA0271DB
:100EA00001603868616A20F4403000E051E0084396
:100EB0003860CAF87080FFF71BFD074605E000BFE9
:100EC000FFF716FDC01B022843D82868C0438000E6
:100ED000F6D42078800653D534484030016841F07C
:100EE000805101600068344D00F080500090286807
:100EF00040F480702860FFF7FBFC074605E000BF68
:100F0000FFF7F6FCC01B022823D82868C005F7D5D8
:100F1000274D143D286810F4407020D0218D01F435
:100F2000407181421BD0286820F440712348C0F8EA
:100F30000080066029602868C00710D0FFF7D8FC41
:100F4000064641F2883707E0FFF7D2FC801BB84223
:100F500002D90320BDE8F88F28688007F4D5A16A7C
:100F60001248C1F301220830032A13D0016821F48A
:100F7000F81101602868218DC1F30B010843286036
:100F80002078C00604D50E4994F82C00C1F8E00181
:100F90000020DFE702680B4B22F4F81219400A43E5
:100FA0000260E7E7000047428C3802400038024008
:100FB000843802408838024000700040400E4742AA
:100FC00000104742FFFCFF0F2DE9F0470E460500D9
:100FD00065D0DFF81481D8F80000F7B200F00F00F8
:100FE000B04207D288F80070D8F8000000F00F0077
:100FF000B04254D128683D4C810712D5400703D533
:10100000206840F4E05020602878000703D520686D
:1010100040F4604020602068A96820F0F000084398
:1010200020602878C0072DD0304968680839012829
:1010300012D0022813D0032811D00968890700298B
:101040002DDA216821F0030101432160FFF750FCF4
:10105000814641F2883A0EE009688903EFE70968A2
:101060008901ECE7FFF744FCA0EB0901514502D9E7
:101070000320BDE8F0872068696800F00C00B0EB41
:10108000810FEFD1D8F80010404601F00F01B142B6
:1010900007D90770006800F00F00B04201D00120AE
:1010A000E7E72878400705D52068E96820F4E05094
:1010B000084320602878000706D52068296920F4B5
:1010C000604040EAC100206000F038F82168084A1A
:1010D000C1F30311515CC840064908600648006826
:1010E000FFF72EFC0020C4E7003C02400838024015
:1010F00090210008140000200C000020044805493D
:1011000000680968044AC1F38221515CC8407047F5
:101110001400002008380240A021000804480549B6
:1011200000680968044AC1F34231515CC840704705
:101130001400002008380240A0210008154810B50E
:10114000006810F00C02144813D01449042A0FD080
:10115000082A0ED10F4C241F2268236802F03F0298
:101160005B0207D52068C0F38810A0FB010106E0F0
:10117000084610BD2168C1F38811A1FB00010023BE
:10118000FFF732F82168C1F30141491C4900B0FB67
:10119000F1F010BD083802400024F40040787D01D1
:1011A0002DE9F84F04006ED02078DFF84C93C0078B
:1011B000A9F104054AD009F104000168C1F38101D5
:1011C000012908D00068C0F3810002280AD1D9F8AB
:1011D0000000400206D52868800337D560680028E3
:1011E000E1D033E06068B0F5803F10D0B0F5A02FBB
:1011F000286810D020F480302860286820F48020EF
:1012000028606068A8B1FFF773FB06460DE0286808
:1012100040F48030F4E740F480202860F7E700BF16
:10122000FFF766FB801B642873D828688003F7D516
:101230000CE0FFF75DFB064605E000BFFFF758FB3B
:10124000801B6428F0D828688003F7D42078DFF862
:10125000AC8280074FF0000A3ED5A748001D016808
:1012600011F00C0F08D00068C0F3810002280BD1E8
:10127000D9F80000400207D42868800716D5E06836
:10128000012800D112E033E1E068B8B10120C8F8CC
:101290000000FFF72DFB064605E000BFFFF728FB27
:1012A000801B0228C0D828688007F7D528682169E4
:1012B00020F0F80040EAC10028600DE0C8F800A066
:1012C000FFF716FB064604E0FFF712FB801B02281F
:1012D0001FD828688007F7D42078000722D5864FCA
:1012E00087486169703771B101210160FFF700FB28
:1012F000064604E0FFF7FCFA801B022809D838688C
:101300008007F7D50EE0C0F800A0FFF7F1FA064617
:1013100005E082E0FFF7ECFA801B02287DD83868F0
:101320008007F7D42078400768D5DFF8CCB10027D4
:101330000BF13C0BDBF80000C0000BD4DBF8001015
:1013400041F08051CBF80010DBF80000012700F0DD
:10135000805000906B4E3068C00510D4306840F467
:1013600080703060FFF7C4FA009005E0FFF7C0FA24
:101370000099401A022850D83068C005F6D55E4E54
:10138000A0686C3601280FD00528306810D020F0F6
:1013900001003060306820F004003060A068B8B10F
:1013A000FFF7A6FA00900FE0306840F00100F4E784
:1013B00040F004003060F7E7FFF79AFA0099411A0D
:1013C00041F28830814266D830688007F4D50EE05B
:1013D000FFF78EFA009007E0FFF78AFA0099411AAA
:1013E00041F28830814256D830688007F4D42FB15A
:1013F000DBF8001021F08051CBF80010A069C8B3D1
:101400003D49091D0968C1F3810102294AD002281A
:10141000504607D0C8F8600000E03CE0FFF768FAEB
:1014200004463BE04746C8F86000FFF761FA06460D
:1014300005E000BFFFF75CFA801B02282BD8286864
:101440008001F7D4D4E907010843A16A2E4A49086C
:1014500002EB0141626A41EA8211084394F82C10C0
:1014600040EA0161C9F8001001203866FFF740FA30
:10147000044606E03EE000BFFFF73AFA001B0228F0
:1014800009D828688001F7D534E000BFFFF730FAAB
:10149000001B022802D90320BDE8F88F28688001CC
:1014A000F4D427E00128F7D0D9F80000E26900F46D
:1014B000800191421CD1226A00F03F01914217D174
:1014C00047F6C071626A0140B1EB821F10D1A26A77
:1014D0004FF0FF3300F4403103EB5202B1EB024F07
:1014E00006D194F82C1000F07060B0EB016F01D0C1
:1014F0000120D1E70020CFE7043802400000474236
:10150000800E4742007000400000FFFF70B50D469E
:10151000040003D094F82C0010B107E0012070BD46
:10152000002084F82D00204600F011F8022084F8F5
:101530002C00211D2068FEF7F7FED4E900022946A1
:10154000FEF756FF012084F82C00002070BDFFF745
:1015500047B810B5044690F82C00022804D094F83F
:101560002C00012801D0012010BD022084F82C009D
:101570002068FEF70CFF012084F82C00002010BD2D
:1015800070B5044690F82C000D46022804D00128BE
:1015900003D0052801D0012070BD022084F82C0062
:1015A0002068FEF7FDFE2868022805D05FF00100E4
:1015B00084F82C00002070BD0520F9E710B5401E0E
:1015C000B0F1807F01D3012010BD4FF0E0246061B5
:1015D0000F21601700F0CAFC0020A06107202061E5
:1015E000002010BD70B5040004D094F8410000251F
:1015F00010B106E0012070BD84F84050204600F094
:1016000023F8242084F841002068C16821F40051A7
:10161000C160204600F0DAFB2068016921F49041A6
:1016200001612068416921F02A0141612068C16897
:1016300041F40051C1606564202084F8410084F8C1
:1016400042006563002070BD10B586B004461421C9
:101650006846FEF713FE14492068884221D11348DA
:101660000021026842F010020260006800F01000E1
:1016700005900E481438026842F0010202600068CA
:1016800000F0010005904FF4C06000900220CDE909
:101690000101032003900720049069460448FEF7E7
:1016A000FFFF06B010BD00000010014044380240AA
:1016B000000002402DE9F843044690F841009846A6
:1016C00016460D46202802D00220BDE8F88385B1D9
:1016D0007EB100206064212084F84100FFF708F902
:1016E000A6848146E684A0682027B0F5805F02D0FA
:1016F00003E00120E9E7206910B12E4600250EE045
:1017000000260CE08021204600F0E6FBA8B9C6B117
:1017100016F8010B21684860E08C401EE084E08CE4
:101720004B464FF00002CDF800800028EAD14FF080
:101730004001204600F0D0FB40B184F84170032006
:10174000C3E735F8020BC0F30800E3E784F8417003
:101750000020BAE7FEE708B50021009040F2FF3311
:1017600040F25722084600F001F808BDF8B5A0F293
:101770005720A2F2572246425B1A00245242A3F29B
:10178000FF30404287B201EB82204FF0404101EB35
:1017900040011C48069DD0F800C04CF4000CC0F875
:1017A00000C0006800F4000000901748D0F800C0A6
:1017B0002CF0010CC0F800C04FF4403CC0F800C051
:1017C0004FF0020CC0F834C00764C163B11A4FF483
:1017D000803202EB0342491C114341648563016876
:1017E00041F0010101604FF4001102E0641C8C42E1
:1017F00002D242689207F9D5816841F00201816006
:10180000F8BD00003038024000B00240002310B59F
:101810001A4619460948FFF7D7F900234FF4167204
:101820004FF480610548FFF7F9F900F009F8BDE8C9
:1018300010404FF0FF30FFF78EBF0000A0000020E7
:10184000012220210148FFF74DB8000000040240AA
:10185000F0B503688C88DD68C5F30B452C4425047E
:10186000882404EBC2141E5906F470461E51036806
:101870000F68DE68C6F30B46761C3E442E431E51AD
:1018800004688B89E568C5F30A052B441D048C2385
:1018900003EBC213E65806F47046E65004688F68FE
:1018A000E668C6F30A06761C3E442E43E6509423AF
:1018B000046803EBC213E55825F00705E5500568F9
:1018C0000C69EC5091F831300C7E1F0226069C24E6
:1018D000056804EBC21491F8323055F804C04FF09B
:1018E000000C45F804C091F8305046EA03433D43EC
:1018F0001D4303681D519823046803EBC213E55888
:1019000025F0FF05E55005684C69EC50A0230468FC
:1019100003EBC213E55840F20776B543E550D1E931
:1019200007452C430568EC50AC23046803EBC21355
:10193000E55844F803C005684C6AEC500B698BB35A
:10194000012B32D0042B32D0022B30D0032B2ED0DF
:10195000072B2CD00123B024056804EBC2142E59A8
:1019600006F0E0262E51D1E90065AD1B0E8D5D43DA
:101970005E43ED1C45EA064305682B51B423046819
:1019800003EBC213E5586FF30A05E5500468C96A12
:10199000E1500068842101EBC211425842F001027B
:1019A0004250F0BDFFE70423D5E70323D3E702232A
:1019B000D1E700000F4810B50D4901600021022257
:1019C000C0E90112C160C0E90A1201634163FEF778
:1019D000B3FD08B1FEF7A6FC01210648FEF75AFD4B
:1019E000002803D0BDE81040FEF79CBC10BD0000ED
:1019F00000B002401C00002000B587B01C216846E2
:101A0000FEF73CFC16481549012201600021C0E99F
:101A100001120822C26010220261402242614FF48A
:101A2000C072C0E906214FF4006202625200C0E9B0
:101A300009210220072105228DE8070003910321D7
:101A4000CDE90410069069460548FFF75FFD0028C0
:101A500001D0FEF767FC07B000BD0000400100A008
:101A60006C00002030B587B014216846FEF706FCF4
:101A70002D480024016841F004010160016801F073
:101A800004010591016841F480710160016801F46D
:101A900080710591016841F020010160016801F049
:101AA00020010591016841F080010160016801F0A9
:101AB00080010591016841F002010160016801F0B7
:101AC00002010591016841F040010160016801F0E7
:101AD00040010591016841F010010160016801F0C9
:101AE00010010591016841F008010160016801F0F1
:101AF00008010591016841F00101016000680B4D8A
:101B000000F001000590002223212846FEF7EAFE9E
:101B1000232000900120CDE9010469462846039462
:101B2000FEF7BEFD07B030BD303802400004024071
:101B300030B58DB034216846FEF7A0FB2648254914
:101B40000024C0E9001484601321C460C0E904418A
:101B500002259F21C0E906511621016240F29F41F2
:101B6000416240F26E21816240F23F51C16240F217
:101B70007A21016380F8344080F8354080F836409F
:101B8000FEF728FF08B1FEF7CDFB4FF416714FF4B6
:101B90008060CDE90241CDE90040CDE90640052055
:101BA000FF2108908807CDE90904CDE904518DF89B
:101BB00030408DF831400B948DF832400022694658
:101BC0000548FEF7DDFE002801D0FEF7ABFB0DB0A7
:101BD00030BD000000680140A00000200C4810B596
:101BE0000A4901604FF4E1314160002181600C221B
:101BF000C160C0E904128161C161FFF7F3FC0028F4
:101C000003D0BDE81040FEF78DBB10BD00100140B1
:101C100048010020FEE7FEE770470000024901F19D
:101C2000100000F003B800005C0000202DE9F8432C
:101C30000C460025012610270095C4E90067C4E979
:101C400002654FF4805881464246FFF799FC052013
:101C500000F02AF80220C4E90007C4E90265424600
:101C600021464846FFF78CFC0320C4E90007082002
:101C7000C4E90205424621464846FFF781FC40F28E
:101C8000312004210090C4E90017C4E902604246F3
:101C900021464846FFF774FC4846BDE8F84340F249
:101CA000F921FFF756BC000001B581B00449019845
:101CB00048430090002801D0401EFAE70CBD000008
:101CC000400D03007047FEF719BE000030B593B019
:101CD00030216846FEF7D2FA14210CA8FEF7CEFA9E
:101CE00020480025016841F080510160006800F043
:101CF000805011901C48016841F440410160006827
:101D0000022400F440401190012000900004019052
:101D10008001CDE9064010200890D820CDE90904C3
:101D200004200B906846FFF73BFA08B172B6FEE755
:101D3000FEF7E8FF08B172B6FEE70CA90F2081E8B4
:101D400031004FF4A0500F904FF4805010900521B7
:101D50000CA8FFF739F9002801D072B6FEE713B0DE
:101D600030BD000040380240007000400248016869
:101D700041F470010160704788ED00E001680C31AA
:101D800051E8002F22F4907241E80023002BF5D196
:101D90000168143151E8002F22F0010241E80023CC
:101DA000002BF5D1016B012909D101680C3151E8F3
:101DB000002F22F0100241E80023002BF5D1202152
:101DC00080F84210002101637047000070B504469E
:101DD00000680169E26821F4405111430161216901
:101DE000A068E26908436169114308432168CA6831
:101DF00049F20C639A430243CA6020684169A269B0
:101E000021F440711143416131492068884202D078
:101E10003049884202D1FFF781F901E0FFF76EF9FE
:101E2000E2690023192164253226B2F5004F626869
:101E300028D0A0FB0101930F9200FEF7D5F90146CF
:101E4000B0FBF5F06FF01802504301EB800006EB99
:101E50000010B0FBF5F000F0F002B1FBF5F002EB82
:101E60000012B1FBF5F06FF01803584301EB80004E
:101E700006EB0010B0FBF5F000F00F0021681044F5
:101E8000886070BDA0FB010192185B41FEF7ACF9C0
:101E90000146B0FBF5F00201B1FBF5F06FF018035D
:101EA000584301EB800006EBC000B0FBF5F000F0FA
:101EB000F80002EB4002B1FBF5F0584301EB800063
:101EC00006EBC000B0FBF5F000F00700D6E700001D
:101ED00000100140001401402DE9F84398461746D0
:101EE0000D460446089E24E0701C22D0FEF700FD3B
:101EF000A0EB0800B0421AD8CEB12068C1684907EB
:101F000017D5802D15D0402D13D00168C94309077E
:101F10000FD401680025406800902046FFF72EFF8F
:101F20000820606484F840500120BDE8F883032055
:101F3000FBE72068006835EA000004D00020B842C2
:101F4000D2D00020F1E70120F9E7FEE70FB4054BFE
:101F500010B503A9044A029800F028F810BC5DF8F7
:101F600014FB000001210008180000200907090ED9
:101F7000002804DB00F1E02080F80014704700F036
:101F80000F0000F1E02080F8141D704702E008C83F
:101F9000121F08C1002AFAD170477047002001E0E3
:101FA00001C1121F002AFBD1704700002DE9FF4F2D
:101FB00089B09B460446002506E025280BD05A46EA
:101FC0000B999047641C6D1C20780028F5D10DB04A
:101FD0002846BDE8F08F0027B8460122474900E0B7
:101FE000074314F8013F203B02FA03F00842F7D1FF
:101FF00020782E2819D114F8010F47F004072A2859
:102000000ED06FF02F022078A0F1300109290CD8F2
:1020100008EB880102EB410100EB0108641CF2E7C8
:102020000A98641C50F8048B0A9020780028CED0BF
:10203000642808D0692806D075281ED05A460B9906
:1020400090476D1C58E00A994FF00A0901C90A919E
:10205000002802DA40422D2102E0390504D52B2167
:102060008DF82010012103E0F90704D02021F7E7C3
:102070008A4608AE0DE00021FAE70A994FF00A09F6
:1020800001C90A91F7E74946FEF703F9303106F82E
:10209000011D0028F7D1ADEB060000F120097807FB
:1020A00001D44FF00108C84502DDA8EB090000E0AB
:1020B00000208046002706E008A85A46C05D0B991C
:1020C00090476D1C7F1C5745F6DB04E030205A46D4
:1020D0000B9990476D1CB8F10001A8F10108F5DCDF
:1020E00005E016F8010B5A460B9990476D1CB9F1A3
:1020F0000001A9F10109F4DC641C65E7092801006D
:1021000013B54FF6FF73012269460248FFF7D2FA72
:1021100000981CBD48010020FEF7F8FBFFF7D6FD34
:10212000FFF7A0FCFFF75AFDFFF766FCFFF742FC44
:10213000FFF7FEFCFFF772FDFFF768FB104D4FF64F
:10214000E0764FF4FA744FF4784703212846FEF7FF
:10215000C1FB0CA0FFF7FAFE3046FFF7FCFA204661
:10216000FEF72CFA1F20FFF7F6FA2046FEF726FAB4
:102170003846FFF7F0FA2046FEF720FAE5E70000C0
:1021800000040240746573742E2E0D0A00000000D6
:102190000000000000000000010203040607080917
:1021A0000000000001020304C82100080000002014
:1021B0001C0000008C1F0008E42100081C00002007
:1021C000740500009C1F00080000000000000000D3
:1021D0000100000010000000000000000024F400D6
:0421E00000000000FB
:04000005080001AD41
:00000001FF
