:020000040800F2
:10000000C8050020C50100081F230008111E0008B4
:100010001D2300083D0300086F26000800000000B3
:10002000000000000000000000000000CD230008D8
:10003000A10500080000000021230008CF230008CC
:10004000DF010008DF010008DF010008DF01000810
:10005000DF010008DF010008DF010008DF01000800
:10006000DF010008DF010008DF010008DF010008F0
:10007000DF010008DF010008DF010008DF010008E0
:10008000DF010008DF010008DF010008DF010008D0
:10009000DF010008DF010008DF010008DF010008C0
:1000A000DF010008DF010008DF010008DF010008B0
:1000B000DF010008DF010008DF010008DF010008A0
:1000C000DF010008DF010008DF010008DF01000890
:1000D000DF010008DF010008DF010008DF01000880
:1000E000DF010008DF010008DF010008DF01000870
:1000F000DF010008DF010008DF010008DF01000860
:10010000DF010008DF010008DF010008DF0100084F
:10011000DF010008DF010008DF010008DF0100083F
:10012000DF010008DF010008DF010008DF0100082F
:10013000DF010008DF010008DF010008DF0100081F
:10014000DF010008DF010008DF010008DF0100080F
:10015000DF010008DF010008DF010008DF010008FF
:10016000DF010008DF010008DF010008DF010008EF
:10017000DF010008DF010008DF01000800000000C7
:10018000DF010008DF010008DF010008DF010008CF
:10019000DF010008DF010008DF010008DF010008BF
:1001A000DF010008DF010008DF010008DFF810D0E0
:1001B00000F0B2F800480047592B0008AFF3008068
:1001C000C80500200648804706480047FEE7FEE7CE
:1001D000FEE7FEE7FEE7FEE7FEE7FEE7FEE7FEE7F7
:1001E00071240008AD0100082DE9F05F05460020EC
:1001F00092469B4688460646814640241BE0284698
:1002000041464746224600F077F853465A46C01A00
:10021000914110D311461846224600F05EF82D1A7F
:1002200067EB01084F4622460120002100F055F8F7
:1002300017EB00094E41201EA4F10104DFDC484603
:1002400031462A464346BDE8F09F40EA01039B073A
:1002500003D009E008C9121F08C0042AFAD203E03B
:1002600011F8013B00F8013B521EF9D27047D2B29F
:1002700001E000F8012B491EFBD270470022F6E78F
:1002800010B513460A4604461946FFF7F0FF20460C
:1002900010BD10B5002200E0521C835C8C5CA342B0
:1002A00001D1002BF8D1D8B2E1B2401A10BD30B55F
:1002B0000B46014600202022012409E021FA02F524
:1002C0009D4205D303FA02F5491B04FA02F52844BE
:1002D000151EA2F10102F1DC30BD202A04DB203A18
:1002E00000FA02F1002070479140C2F1200320FA89
:1002F00003F3194390407047202A04DB203A21FA87
:1003000002F00021704721FA02F3D040C2F120022E
:100310009140084319467047064C074D06E0E068D7
:1003200040F0010394E8070098471034AC42F6D33C
:10033000FFF740FFF02B0008102C0008FEE700003C
:1003400070B5124C00220821204600F02AFE02203F
:1003500002F00DFB0E4D01224021284600F021FE47
:10036000022002F004FB00224021284600F019FE82
:10037000022002F0FCFA01220821204600F011FEC2
:10038000BDE87040022002F0F2BA000000200240F6
:10039000001C024010B501220821054800F001FEB2
:1003A0000122BDE810404021024800F0FABD0000E3
:1003B00000200240001C024010B5012208210C4818
:1003C00000F0EFFD022002F0D2FA0A4C0122402197
:1003D000204600F0E6FD022002F0C9FA002240218A
:1003E000204600F0DEFDBDE81040022002F0BFBA5A
:1003F00000200240001C02402DE9F0410025DFF8FA
:100400004C80134E0746802401224021304600F0E4
:10041000C8FD022002F0ABFA0821404600F0B4FD0E
:1004200000B1254300224021304600F0BAFD0220F1
:1004300002F09DFA6408E7D127B1FFF781FF284653
:10044000BDE8F081FFF7B8FFF9E7000000200240A7
:10045000001C02402DE9F041124F134E0546802446
:10046000254201D0012200E000220821384600F098
:1004700098FD022002F07BFA01224021304600F074
:1004800090FD022002F073FA00224021304600F075
:1004900088FD6408E4D13846BDE8F0410122082116
:1004A00000F07FBD00200240001C024070B5104CDF
:1004B00001220821204600F074FD0E4D012240214A
:1004C000284600F06EFD022002F051FA00220821B9
:1004D000204600F066FD022002F049FA0022402189
:1004E000284600F05EFDBDE87040022002F03FBAF1
:1004F00000200240001C024010B50D4C00220821D3
:10050000204600F04EFD022002F031FA0122402187
:10051000084800F046FD022002F029FA01220821D5
:10052000204600F03EFDBDE81040022002F01FBA58
:1005300000200240001C02402DE9F041164E00242C
:10054000254601220821304600F02BFD022002F052
:100550000EFA124F01224021384600F022FD07E03A
:10056000641CE4B2FA2C03D9FFF7C6FF012508E0AA
:10057000022002F0FCF90821304600F005FD0028B9
:10058000EED100224021384600F00BFD022002F09F
:10059000EEF92846BDE8F08100200240001C024030
:1005A000704772B6FEE7F0B5D1E907354C6A0A68C4
:1005B000C2B102682B4322F4F84214432343036080
:1005C000D1E901231A43D1E9033423431A434B6988
:1005D00089691A430A4341686FF30E010A43426076
:1005E0000020F0BDD1E901263243D1E903673E4343
:1005F00032434E69896932430A431A432A430168E8
:1006000022436FF30E010A430260E9E7426943F6B1
:10061000FE739A4342EA410141610020704770B580
:1006200014460546D1E9000210438A686FF01F03A3
:10063000C96803EB421242EA4121084329696FF37A
:1006400015010843286100F0B1FC064609E0601C72
:1006500007D024B100F0AAFC801BA04201D90320DE
:1006600070BDA8698006F2D4002070BDF0B56FF0AF
:100670000F058C8A2E014FEA054ECB682F034FF0F1
:100680007F4C0EEB04540AB31A03A2F58052836820
:1006900022431D4C23401A438260D1E9002305EB1D
:1006A0000313521E1A438B6806EB03231A430B8A6B
:1006B000097E07EB03431A430CEB01610A43C1684F
:1006C00001F070410A43C2600020F0BDD1E9002E64
:1006D00005EB0E15521E2A438D6806EB05252A43AD
:1006E0000A4D05EB03331A430B8A097E07EB0343DC
:1006F0001A4322430CEB01610A43816801F0704107
:100700000A438260E0E70000FF0F0FFF00F0FFFFE9
:1007100070B5354988B00024086840F08000086052
:10072000086800F080000790086840F48070086056
:10073000086802A900F4807007908020012681E8F3
:10074000510003200590294800F004FB3502CDE953
:100750000256274E02A9304600F0FCFAFFF71AFEB7
:1007600000222946304600F01CFC142002F0F2F86A
:1007700001222946304600F014FC322002F0EAF84B
:100780008DF8004002226946A12000F03BF80422C7
:10079000694648F2401000F08FF98DF80440694630
:1007A00014A001F065FF1648009948F24005C0F812
:1007B0000A1002208DF8000001226946284600F048
:1007C000ABF901226946E81D00F076F90A2002F033
:1007D000C1F88DF8004001226946284600F09CF9D6
:1007E00008B0204670BD000030380240001C0240B6
:1007F000002002404354502049443A25730D0A001A
:10080000080000202DE9F04115460E460446FFF78A
:100810004DFE7020FFF71EFEFFF78EFEE0B2FFF7E1
:1008200019FEFFF789FEFFF741FE7120FFF712FE68
:10083000FFF782FE00246F1E09E0BC4201D00120B8
:1008400000E00020FFF7D8FD3055641CE4B2AC4254
:10085000F3D3BDE8F041FFF74FBE00002DE9F14FA3
:1008600086B04FF00009904C8DF800900527607815
:100870008E4D401CC0B20A21B0FBF1F201FB120107
:10088000CA46607005F1140609B10A2875D2864877
:1008900087A10A30FFF7FDFC4FF0010206A9E8B37B
:1008A0000220FFF7AFFF00BF9DF81800010764D0DA
:1008B00000F00F00052860D8FF218140C8B2C04376
:1008C000B4F808B040F0C000784920812888088139
:1008D000143130880881042002F03CF848468DF835
:1008E00000904FF0010AA046C1B20AFA01F0B8F830
:1008F000081008427ED06C486DA10A30FFF7C9FC91
:10090000D0B36C499DF80000042231F8100002A910
:10091000FFF778FF98F80200C00700E017E09DF8A5
:1009200008109DF8090001F00F0150D000EB0121E3
:100930009DF8000026F810109DF80A209DF80B1075
:1009400002F00F0201EB022125F8101052E048F2EC
:100950004E18404600F0B0F89DF818000106A3D5E7
:1009600000F00F0005289FD88DF8009001226946FD
:10097000404600F0D1F897E700E05CE04D499DF873
:1009800000000A31042231F8100002A900F094F8A6
:1009900098F802009DF80910C0079DF8080000EBC8
:1009A00001219DF8000006D025F810109DF80A10CE
:1009B0009DF80B201AE026F810109DF80A109DF8FB
:1009C0000B2001EB0221B8F80420511ABCE700EB20
:1009D0000120B8F80410091A9DF8000025F810103D
:1009E0009DF80A209DF80B1002F00F0201EB022186
:1009F00026F810109DF80000401CC0B28DF80000D1
:100A0000B842FFF471AF2888B8F804104FF0010A1B
:100A1000884204D83088B8F80610884209D99DF871
:100A2000180000F00F00012813D96888288070880A
:100A3000308088F801901C481DA10A30FFF729FC7E
:100A400000289DF818004FF6FF7112D0C00626D07E
:100A50001CE005EB470030F8020C288006EB47004D
:100A600030F8020C308080208DF81800A8F808B00B
:100A7000E1E700F08F00802811D007E020F080002F
:100A800003E02980318000F0E00020816078F028C8
:100A900001D90A20607007B05046BDE8F08F208968
:100AA0000206EED5EAE7000008000020A0010020C1
:100AB00039313100B02B00082DE9F04115460E46C2
:100AC0000446FFF7F3FC2820FFF7C4FCFFF734FDD2
:100AD000200AFFF7BFFCFFF72FFDE0B2FFF7BAFCDB
:100AE000FFF72AFDFFF7E2FC2920FFF7B3FCFFF731
:100AF00023FD00246F1E09E0BC4201D0012000E06C
:100B00000020FFF779FC3055641CE4B2AC42F3D30B
:100B1000BDE8F041FFF7F0BC2DE9F04116460F4665
:100B200004460025FFF7C2FC2820FFF793FCFFF7DF
:100B300003FD200AFFF78EFCFFF7FEFCE0B2FFF793
:100B400089FCFFF7F9FC002408E0385DFFF782FC20
:100B5000FFF7F2FC050003D1641CE4B2B442F4D305
:100B6000FFF7CAFC2846BDE8F081000070B590F898
:100B70003820012A24D0012680F83860022280F82B
:100B8000392000EB0112148CD369183243EA044572
:100B90001E4C0A2B16D0092B14D0137B45EA036395
:100BA0000029016813D0CD69A5431D43CD610368B9
:100BB0001168196151680A291BD0092919D01DE053
:100BC000022070BDD36803F07F432B43E8E74D6AF2
:100BD000A5431D434D6203681168996151680A2954
:100BE00001D009290AD1D168026821F07F419162C0
:100BF00004E0D168026821F07F41116280F8396019
:100C0000002180F83810084670BD00000F0003FF77
:100C100070B5040004D094F83900002510B106E046
:100C2000012070BD84F83850204600F01FF80220E3
:100C300084F8390020680168626821F4403111436A
:100C400001602068416BA26821F0070111434163F4
:100C50002068016CE2686FF30D0111430164E563E4
:100C6000012084F83900002070BD000008B500683C
:100C70000649884208D10648016841F40001016034
:100C8000006800F40000009008BD000000B00240C1
:100C900030380240F0B587B014216846FFF7EEFA0D
:100CA00025480168002944D101210160234800241E
:100CB000016841F0010101600068022500F00100B7
:100CC00005904FF63F00CDE9000502AA03260C2748
:100CD00082E8D00069461A4800F03CF80D20CDE9C2
:100CE000000502AA694682E8D000164800F032F8F2
:100CF00048F23710CDE9000502AA694682E8D00023
:100D0000114800F027F84FF68370CDE9000502AADC
:100D1000694682E8D0000D4800F01CF84CF20370E0
:100D2000CDE9000502AA694682E8D000084800F033
:100D300011F807B0F0BD0000000000203838024074
:100D40000014024000080240001802400010024057
:100D5000000C02402DE9F84FDFF8F8A10022012431
:100D600003254FF00F090AF1040BAAF1040E00BF8E
:100D70000B6804FA02F63340B34270D10F7907F0E2
:100D80000307012F01D0022F16D187684FEA4208CE
:100D900005FA08FC27EA0C07D1F80CC00CFA08FC8D
:100DA0004CEA070CC0F808C04768B7430E79C6F391
:100DB000001696403E4346600E79F643B6070AD0C9
:100DC000C7684FEA420C05FA0CF6B7438E6806FA7C
:100DD0000CF63E43C6600E7906F00306022E10D1D3
:100DE000D60800EB8608D8F8206057074FEAD76C82
:100DF00009FA0CF7BE430F6907FA0CF73743C8F836
:100E0000207006684FEA420C05FA0CF7BE430F79D2
:100E100007F0030707FA0CF7374307604E6816F42C
:100E2000403F1CD04C4E376847F4804737603668E7
:100E300022F0030706F480460096484E07EB060CA6
:100E4000DCF8086897073F0F09FA07F826EA080652
:100E5000DFF80C81404503D14FF0000841E072E01B
:100E6000DFF80081404502D14FF0010839E0DFF89A
:100E7000F880404502D14FF0020832E0DFF8EC8004
:100E8000404502D14FF003082BE0DFF8E4804045F5
:100E900002D14FF0040824E0DFF8D880404502D1A9
:100EA0004FF005081DE0DFF8D080404502D14FF03B
:100EB000060816E0DFF8C480404502D14FF007086D
:100EC0000FE0DFF8BC80404502D14FF0080808E091
:100ED000DFF8B080404502D14FF0090801E04FF043
:100EE0000A0808FA07F848EA0608CCF80888DAF889
:100EF00000605746D1F804C09E435FEACC2C00D571
:100F00001E433E60DBF800605F46D1F804C09E439C
:100F10005FEA8C2C00D51E433E60DEF80060774609
:100F2000D1F804C09E435FEA8C3C00D51E433E606E
:100F3000084F083F3E68D1F804C09E435FEACC3CAE
:100F400000D51E433E60521C102AFFF411AFBDE8CD
:100F5000F88F0000083C0140443802400030014056
:100F6000000002400004024000080240000C024061
:100F7000001002400014024000180240001C024011
:100F800000200240002402400069084000D00120F7
:100F90007047426921EA02030A4043EA0241816143
:100FA00070470AB1816170470904FBE70148806816
:100FB0007047000018000020024881680278114440
:100FC00081607047180000200B4810B5016841F49B
:100FD00000710160016841F480610160016841F4C1
:100FE00080710160032000F0D9F90F2000F006F8AD
:100FF00000F09CF9002010BD003C024070B50D4D82
:1010000004464FF47A712878B1FBF0F00A49096878
:10101000B1FBF0F000F030FE48B9102C07D20022EE
:101020002146501E00F09AF900206C6070BD01202E
:1010300070BD000018000020240000202DE9F041C0
:10104000044690F8A00016460F4601281DD0012541
:1010500084F8A050022084F8A10006EB860000EB83
:10106000C60004EB800034223830FFF7EEF8324639
:101070003946204600F04AFF2068456284F8A150B6
:10108000002084F8A000BDE8F0810220FBE700000A
:1010900070B5040004D094F8A100002510B106E05A
:1010A000012070BD84F8A050204600F06BF80220AB
:1010B00084F8A1002068816921F070418161D4E940
:1010C00001010843D4E903121143084321688A69E6
:1010D0001043886121688A68294802408A60A18A91
:1010E0000A0421688B68A669334313438B60216827
:1010F000CA680240CA60A18B0B042168CA68266ACC
:1011000032431A43CA6021680A6902400A61A18C0D
:1011100022680B041169A66A3143194311612168E1
:101120004A6902404A61A08D010420684269236B2C
:101130001A430A43426194F835002168020294F888
:101140003600CB6A03F07F43CB622168CB6A94F808
:10115000346042EA004033430343CB622068416B72
:1011600041F0060141632068816941F0010181611C
:10117000C4F8A450012084F8A100002070BD000034
:1011800000F800F070B592B0044614216846FFF7ED
:1011900075F8302105A8FFF771F8344920688842B6
:1011A00061D10820059000256C200E95022409903D
:1011B0000B9405A800F03CF908B1FFF7F2F92C48B0
:1011C000016841F080610160006800F0806011906A
:1011D00027481438016841F480710160016801F406
:1011E00080711191016841F020010160016801F0F6
:1011F00020011191016841F080010160016801F056
:1012000080011191016841F04001016000680E26E3
:1012100000F04000119040F2F7608DE83100CDE918
:10122000034669461348FFF795FD4FF480608DE84B
:101230003100CDE9034669460F48FFF78BFD4FF4B7
:101240007E408DE83100CDE9034669460B48FFF743
:1012500081FD4FF40C608DE83100CDE9034669460D
:101260000748FFF777FD12B070BD0000006801402D
:10127000443802400020024000140240001C02409A
:101280000018024070B5044690F8A0000E460128F0
:1012900020D0012584F8A050022084F8A10003EB9F
:1012A000830000EBC30004EB800141F8386F886ACB
:1012B0003044C1E90102C86A1044C8601A46204699
:1012C00000F024FE2068456284F8A150002084F8D4
:1012D000A00070BD022070BD70B5044690F8A0005B
:1012E0000E46012820D0012584F8A050022084F861
:1012F000A10003EB830000EBC30004EB800151F875
:10130000380F3044486088681044C860C1E90A62F8
:101310001A46204600F0FAFD2068456284F8A15084
:10132000002084F8A00070BD022070BD0A4808B5F6
:10133000016841F480410160006800F48040009041
:101340000548001F016841F080510160006800F00D
:101350008050009008BD000044380240F0B40E4BAD
:101360001B680C46C3F30223C3F10705042D00D903
:101370000425191D072901D2002300E0DB1E0126E8
:1013800006FA05F1491E214099409E40761E1640FE
:101390003143F0BC01F07CB90CED00E0064900F0EF
:1013A000070208684FF6FF03184040EA0220034A8C
:1013B00010430860704700000CED00E00000FA05E3
:1013C0002DE9F8431748016841F080510160006839
:1013D000154F00F08050012600903E64FFF7E6FDB7
:1013E00005464FF47A78114C05E000BFFFF7DEFDAB
:1013F000401B40450DD86068C003F7D57E64FFF7F9
:10140000D5FD0546464607E0FFF7D0FD401BB0423C
:1014100002D90320BDE8F88360688003F4D500207A
:10142000F8E700004038024000000E420070004023
:101430002DE9F84F04460068DFF824A2894F8A4D51
:10144000C1074FF001084FF0000603D1810701D416
:10145000400648D5CAF86860FFF7A8FD814605E058
:10146000FFF7A4FDA0EB090002287DD82868000141
:10147000F6D42078C1077D4805D06168227A8901B9
:1014800041EA027101602178890711D5016862681B
:10149000237B9201C1F3027142EA036242EA0171C5
:1014A00001603968E26921F01F01521E1143396061
:1014B0002178490608D56168227B890141EA0261E9
:1014C000227A41EA02710160CAF86880FFF76EFD76
:1014D000814605E0FFF76AFDA0EB0900022843D82A
:1014E00028680001F6D52068410701D400074ED5D1
:1014F000CAF87060FFF75AFD814605E0FFF756FD18
:10150000A0EB090002282FD82868C0438000F5D539
:1015100020784107564814D501682269237D92013D
:10152000C1F3027142EA036242EA01710160396863
:10153000226A6FF0FF0321F4F85103EB02221143FA
:1015400039602178090712D501682269C1F3036166
:10155000920142EA0161227E41EA0271016038682B
:10156000616A20F4403000E051E008433860CAF876
:101570007080FFF71BFD074605E000BFFFF716FD73
:10158000C01B022843D82868C0438000F6D42078C6
:10159000800653D534484030016841F080510160E5
:1015A0000068344D00F080500090286840F480704E
:1015B0002860FFF7FBFC074605E000BFFFF7F6FCDD
:1015C000C01B022823D82868C005F7D5274D143D35
:1015D000286810F4407020D0218D01F440718142C0
:1015E0001BD0286820F440712348C0F800800660B2
:1015F00029602868C00710D0FFF7D8FC064641F2E2
:10160000883707E0FFF7D2FC801BB84202D90320DD
:10161000BDE8F88F28688007F4D5A16A1248C1F3A5
:1016200001220830032A13D0016821F4F811016067
:101630002868218DC1F30B01084328602078C0067B
:1016400004D50E4994F82C00C1F8E0010020DFE732
:1016500002680B4B22F4F81219400A430260E7E7D4
:10166000000047428C380240003802408438024073
:101670008838024000700040400E47420010474248
:10168000FFFCFF0F2DE9F0470E46050065D0DFF89F
:101690001481D8F80000F7B200F00F00B04207D272
:1016A00088F80070D8F8000000F00F00B04254D164
:1016B00028683D4C810712D5400703D5206840F4C7
:1016C000E05020602878000703D5206840F460408F
:1016D00020602068A96820F0F00008432060287886
:1016E000C0072DD0304968680839012812D0022877
:1016F00013D0032811D00968890700292DDA216841
:1017000021F0030101432160FFF750FC814641F2C3
:10171000883A0EE009688903EFE709688901ECE778
:10172000FFF744FCA0EB0901514502D90320BDE8B5
:10173000F0872068696800F00C00B0EB810FEFD1F2
:10174000D8F80010404601F00F01B14207D90770E8
:10175000006800F00F00B04201D00120E7E72878D0
:10176000400705D52068E96820F4E0500843206070
:101770002878000706D52068296920F4604040EAEF
:10178000C100206000F038F82168084AC1F3031155
:10179000515CC8400649086006480068FFF72EFC07
:1017A0000020C4E7003C024008380240D82B000863
:1017B000240000201C000020044805490068096836
:1017C000044AC1F38221515CC840704724000020C4
:1017D00008380240E82B00080448054900680968F9
:1017E000044AC1F34231515CC840704724000020D4
:1017F00008380240E82B0008154810B5006810F0C2
:101800000C02144813D01449042A0FD0082A0ED110
:101810000F4C241F2268236802F03F025B0207D5A9
:101820002068C0F38810A0FB010106E0084610BD47
:101830002168C1F38811A1FB00010023FEF7D4FC4D
:101840002168C1F30141491C4900B0FBF1F010BD12
:10185000083802400024F40040787D012DE9F84F5B
:1018600004006ED02078DFF84C93C007A9F104057E
:101870004AD009F104000168C1F38101012908D0AF
:101880000068C0F3810002280AD1D9F800004002A4
:1018900006D52868800337D560680028E1D033E09A
:1018A0006068B0F5803F10D0B0F5A02F286810D048
:1018B00020F480302860286820F480202860606848
:1018C000A8B1FFF773FB06460DE0286840F48030AE
:1018D000F4E740F480202860F7E700BFFFF766FBDD
:1018E000801B642873D828688003F7D50CE0FFF7C5
:1018F0005DFB064605E000BFFFF758FB801B642830
:10190000F0D828688003F7D42078DFF8AC8280070D
:101910004FF0000A3ED5A748001D016811F00C0FDA
:1019200008D00068C0F3810002280BD1D9F800006C
:10193000400207D42868800716D5E068012800D146
:1019400012E033E1E068B8B10120C8F80000FFF709
:101950002DFB064605E000BFFFF728FB801B022891
:10196000C0D828688007F7D52868216920F0F800DA
:1019700040EAC10028600DE0C8F800A0FFF716FBA0
:10198000064604E0FFF712FB801B02281FD82868D8
:101990008007F7D42078000722D5864F87486169F1
:1019A000703771B101210160FFF700FB064604E0CA
:1019B000FFF7FCFA801B022809D838688007F7D5A2
:1019C0000EE0C0F800A0FFF7F1FA064605E082E05D
:1019D000FFF7ECFA801B02287DD838688007F7D41F
:1019E0002078400768D5DFF8CCB100270BF13C0B1D
:1019F000DBF80000C0000BD4DBF8001041F0805190
:101A0000CBF80010DBF80000012700F080500090B8
:101A10006B4E3068C00510D4306840F48070306080
:101A2000FFF7C4FA009005E0FFF7C0FA0099401AEA
:101A3000022850D83068C005F6D55E4EA0686C36D6
:101A400001280FD00528306810D020F00100306048
:101A5000306820F004003060A068B8B1FFF7A6FA43
:101A600000900FE0306840F00100F4E740F004001F
:101A70003060F7E7FFF79AFA0099411A41F288308F
:101A8000814266D830688007F4D50EE0FFF78EFA01
:101A9000009007E0FFF78AFA0099411A41F2883076
:101AA000814256D830688007F4D42FB1DBF800109B
:101AB00021F08051CBF80010A069C8B33D49091D41
:101AC0000968C1F3810102294AD00228504607D093
:101AD000C8F8600000E03CE0FFF768FA04463BE02D
:101AE0004746C8F86000FFF761FA064605E000BF08
:101AF000FFF75CFA801B02282BD828688001F7D4F6
:101B0000D4E907010843A16A2E4A490802EB0141C2
:101B1000626A41EA8211084394F82C1040EA01619C
:101B2000C9F8001001203866FFF740FA044606E0C5
:101B30003EE000BFFFF73AFA001B022809D82868E8
:101B40008001F7D534E000BFFFF730FA001B022810
:101B500002D90320BDE8F88F28688001F4D427E07B
:101B60000128F7D0D9F80000E26900F48001914221
:101B70001CD1226A00F03F01914217D147F6C07193
:101B8000626A0140B1EB821F10D1A26A4FF0FF33AD
:101B900000F4403103EB5202B1EB024F06D194F84E
:101BA0002C1000F07060B0EB016F01D00120D1E784
:101BB0000020CFE70438024000004742800E474231
:101BC000007000400000FFFF70B50D46040003D018
:101BD00094F82C0010B107E0012070BD002084F8BB
:101BE0002D00204600F011F8022084F82C00211D61
:101BF0002068FEF7D8FCD4E900022946FEF736FD3E
:101C0000012084F82C00002070BDFFF743B810B508
:101C1000044690F82C00022804D094F82C000128E7
:101C200001D0012010BD022084F82C002068FEF7AE
:101C3000EDFC012084F82C00002010BD70B5044696
:101C400090F82C000D46022804D0012803D0052866
:101C500001D0012070BD022084F82C002068FEF71E
:101C6000DEFC2868022805D05FF0010084F82C0013
:101C7000002070BD0520F9E710B5401EB0F1807F4F
:101C800001D3012010BD4FF0E02460610F216017E7
:101C900000F0FEFC0020A06107202061002010BDA4
:101CA00070B5040004D094F84100002510B106E09E
:101CB000012070BD84F84050204600F023F8242015
:101CC00084F841002068C16821F40051C1602046B9
:101CD00000F00EFC2068016921F490410161206848
:101CE000416921F02A0141612068C16841F4005135
:101CF000C1606564202084F8410084F84200656377
:101D0000002070BD10B586B0044614216846FEF769
:101D1000B5FA14492068884221D11348002102688D
:101D200042F010020260006800F0100005900E48BA
:101D30001438026842F001020260006800F00100FD
:101D400005904FF4C06000900220CDE9010103200E
:101D500003900720049069460448FEF7FBFF06B095
:101D600010BD000000100140443802400000024055
:101D70002DE9F843044690F84100984616460D4672
:101D8000202802D00220BDE8F88385B17EB1002072
:101D90006064212084F84100FFF708F9A684814699
:101DA000E684A0682027B0F5805F02D003E0012020
:101DB000E9E7206910B12E4600250EE000260CE070
:101DC0008021204600F01AFCA8B9C6B116F8010B14
:101DD00021684860E08C401EE084E08C4B464FF068
:101DE0000002CDF800800028EAD14FF040012046E3
:101DF00000F004FC40B184F841700320C3E735F8DB
:101E0000020BC0F30800E3E784F841700020BAE752
:101E1000FEE708B50021009040F2FF3340F2572260
:101E2000084600F001F808BDF8B5A0F25720A2F26C
:101E3000572246425B1A00245242A3F2FF3040422E
:101E400087B201EB82204FF0404101EB40011C487A
:101E5000069DD0F800C04CF4000CC0F800C000682B
:101E600000F4000000901748D0F800C02CF0010CDE
:101E7000C0F800C04FF4403CC0F800C04FF0020C66
:101E8000C0F834C00764C163B11A4FF4803202EB6A
:101E90000342491C114341648563016841F001011B
:101EA00001604FF4001102E0641C8C4202D24268CF
:101EB0009207F9D5816841F002018160F8BD000008
:101EC0003038024000B00240002310B51A461946CF
:101ED0000948FFF7D7F900234FF416724FF48061D9
:101EE0000548FFF7F9F900F009F8BDE810404FF098
:101EF000FF30FFF78EBF0000B0000020012220213C
:101F00000148FFF74EB8000000040240F0B5036836
:101F10008C88DD68C5F30B452C442504882404EB2C
:101F2000C2141E5906F470461E5103680F68DE681D
:101F3000C6F30B46761C3E442E431E5104688B8923
:101F4000E568C5F30A052B441D048C2303EBC2137B
:101F5000E65806F47046E65004688F68E668C6F3F3
:101F60000A06761C3E442E43E6509423046803EB95
:101F7000C213E55825F00705E55005680C69EC50DB
:101F800091F831300C7E1F0226069C24056804EB74
:101F9000C21491F8323055F804C04FF0000C45F8E7
:101FA00004C091F8305046EA03433D431D430368A3
:101FB0001D519823046803EBC213E55825F0FF0573
:101FC000E55005684C69EC50A023046803EBC2138C
:101FD000E55840F20776B543E550D1E907452C4373
:101FE0000568EC50AC23046803EBC213E55844F8D1
:101FF00003C005684C6AEC500B698BB3012B32D0DF
:10200000042B32D0022B30D0032B2ED0072B2CD018
:102010000123B024056804EBC2142E5906F0E02613
:102020002E51D1E90065AD1B0E8D5D435E43ED1C65
:1020300045EA064305682B51B423046803EBC21339
:10204000E5586FF30A05E5500468C96AE150006875
:10205000842101EBC211425842F001024250F0BD0E
:10206000FFE70423D5E70323D3E70223D1E70000EA
:102070000F4810B50D49016000210222C0E901128C
:10208000C160C0E90A1201634163FEF7C1FD08B1F6
:10209000FEF787FA01210648FEF768FD002803D005
:1020A000BDE81040FEF77DBA10BD000000B0024050
:1020B0002C00002000B587B01C216846FEF7DEF832
:1020C00016481549012201600021C0E901120822C9
:1020D000C26010220261402242614FF4C072C0E926
:1020E00006214FF4006202625200C0E90921022079
:1020F000072105228DE8070003910321CDE9041093
:10210000069069460548FFF75FFD002801D0FEF7FD
:1021100048FA07B000BD0000400100A07C0000208C
:102120002DE9F04186B014216846FEF7A7F83E4835
:102130000025016841F004010160016801F004011B
:102140000591016841F480710160016801F48071BA
:102150000591016841F020010160016801F0200152
:102160000591016841F080010160016801F0800182
:102170000591016841F002010160016801F002016E
:102180000591016841F040010160016801F04001E2
:102190000591016841F010010160016801F0100132
:1021A0000591016841F008010160016801F0080132
:1021B0000591016841F00101016000681B4F00F0CA
:1021C00001000590002223213846FEF7EAFE184E52
:1021D000012240213046FEF7E4FEDFF8588001225C
:1021E00008214046FEF7DDFE232001248DE8310062
:1021F000694638460395FEF7ADFD402011250227BC
:10220000CDE90005CDE9024769463046FEF7A2FD5B
:102210000820CDE90005CDE9024769464046FEF7B2
:1022200099FD06B0BDE8F08130380240000402405C
:10223000001C02400020024030B58DB034216846B9
:10224000FEF71CF8264825490024C0E900148460E4
:102250001321C460C0E9044102259F21C0E9065151
:102260001621016240F29F41416240F26E2181627B
:1022700040F23F51C16240F27A21016380F834405C
:1022800080F8354080F83640FEF702FF08B1FEF7CF
:1022900088F94FF416714FF48060CDE90241CDE921
:1022A0000040CDE906400520FF2108908807CDE9D0
:1022B0000904CDE904518DF830408DF831400B947C
:1022C0008DF83240002269460548FEF7B7FE002827
:1022D00001D0FEF766F90DB030BD00000068014086
:1022E000B00000200C4810B50A4901604FF4E131FC
:1022F0004160002181600C22C160C0E9041281614B
:10230000C161FFF7CDFC002803D0BDE81040FEF707
:1023100048B910BD0010014058010020FEE7FEE75B
:1023200070470000024901F1100000F003B80000FE
:102330006C0000202DE9F8430C46002501261027EB
:102340000095C4E90067C4E902654FF480588146EE
:102350004246FFF773FC052000F02AF80220C4E98A
:102360000007C4E90265424621464846FFF766FC7D
:102370000320C4E900070820C4E9020542462146BB
:102380004846FFF75BFC40F2312004210090C4E98D
:102390000017C4E90260424621464846FFF74EFC5A
:1023A0004846BDE8F84340F2F921FFF730BC000091
:1023B00001B581B00449019848430090002801D03C
:1023C000401EFAE70CBD0000400D03007047FEF709
:1023D000F3BD000070B592B030216846FDF74EFFA6
:1023E00014210CA8FDF74AFF1F480025016841F0A1
:1023F00080510160006800F0805011901B48016816
:1024000041F4404101600068022400F44040119012
:1024100001200090000401908001CDE906400F26C4
:102420000896D820CDE9090404200B906846FFF7F0
:1024300015FA08B172B6FEE7FEF7C2FF08B172B630
:10244000FEE74FF4A050CDE90E504FF48050CDE997
:102450000C64109005210CA8FFF714F9002801D096
:1024600072B6FEE712B070BD403802400070004006
:102470000248016841F470010160704788ED00E096
:1024800010B5FEF745F905488178027841F08001E2
:1024900002F001020A438270002010BD08000020F3
:1024A00001680C3151E8002F22F4907241E80023BA
:1024B000002BF5D10168143151E8002F22F0010200
:1024C00041E80023002BF5D1016B012909D10168F6
:1024D0000C3151E8002F22F0100241E80023002BBC
:1024E000F5D1202180F842100021016370470000DF
:1024F00070B5044600680169E26821F44051114357
:1025000001612169A068E2690843616911430843D8
:102510002168CA6849F20C639A430243CA60206882
:102520004169A26921F44071114341613149206838
:10253000884202D03049884202D1FFF74DF901E0CC
:10254000FFF73AF9E2690023192164253226B2F532
:10255000004F626828D0A0FB0101930F9200FDF7A5
:1025600043FE0146B0FBF5F06FF01802504301EB5B
:10257000800006EB0010B0FBF5F000F0F002B1FBBC
:10258000F5F002EB0012B1FBF5F06FF018035843C1
:1025900001EB800006EB0010B0FBF5F000F00F003F
:1025A00021681044886070BDA0FB010192185B4156
:1025B000FDF71AFE0146B0FBF5F00201B1FBF5F0A4
:1025C0006FF01803584301EB800006EBC000B0FB2E
:1025D000F5F000F0F80002EB4002B1FBF5F05843D3
:1025E00001EB800006EBC000B0FBF5F000F0070047
:1025F000D6E7000000100140001401402DE9F84327
:10260000984617460D460446089E24E0701C22D0CA
:10261000FEF7CCFCA0EB0800B0421AD8CEB120687F
:10262000C168490717D5802D15D0402D13D00168FA
:10263000C94309070FD4016800254068009020466F
:10264000FFF72EFF0820606484F840500120BDE8A9
:10265000F8830320FBE72068006835EA000004D017
:102660000020B842D2D00020F1E70120F9E7FEE7D0
:102670000FB4054B10B503A9044A029800F028F8DE
:1026800010BC5DF814FB00009D2900082800002004
:102690000907090E002804DB00F1E02080F800148F
:1026A000704700F00F0000F1E02080F8141D704723
:1026B00002E008C8121F08C1002AFAD1704770470B
:1026C000002001E001C1121F002AFBD17047000069
:1026D0002DE9FF4F8BB09A460F460546002606E0CF
:1026E00025280BD052460D9990476D1C761C2878F2
:1026F0000028F5D10FB03046BDE8F08F0024A04689
:102700000122604900E0044315F8013F203B02FA32
:1027100003F00842F7D128782E2817D115F8010FB9
:1027200044F004042A280ED06FF02F022878A0F17C
:10273000300109290AD808EB880102EB410100EBBE
:1027400001086D1CF2E757F8048B6D1C2878692886
:102750003ED006DC0028CDD063280BD0642804D1FD
:1027600036E0732810D075284BD052460D9990470B
:10277000761C85E017F8040B8DF8000000208DF81A
:102780000100E946012003E057F8049B4FF0FF30B9
:1027900061074FF0000401D40AE0641C44450DDADF
:1027A0008442FADB19F804100029F6D106E0641C13
:1027B0008442FCDB19F804100029F8D1264404E017
:1027C00019F8010B52460D999047641EF8D257E054
:1027D00001CF4FF00A0B002802DA40422D2102E01F
:1027E000210504D52B218DF82410012103E0E107F8
:1027F00005D02021F7E70DF1200908910CE0002118
:10280000F9E701CF4FF00A0BF9E75946FDF74FFD05
:1028100001F1300209F8012D0028F6D1ADEB0900D5
:1028200000F1200B600701D44FF00108D84502DD0C
:10283000A8EB0B0000E000208046002406E009A879
:102840005246005D0D999047641C761C089884429E
:10285000F5DB04E0302052460D999047761CB8F124
:102860000001A8F10108F5DC05E019F8010B52465A
:102870000D999047761CBBF10001ABF1010BF4DC24
:102880006D1C34E7092801008EB000262D4DDFF8BD
:10289000B8B005274FF001080DF108094FF6FF7A8F
:1028A0000020FDF7DBFF0024298908FA04F0084224
:1028B00030D03BF81420A9888A422DD2DFF888E076
:1028C000E9880EF1140E3EF814308B4224D239F808
:1028D00024C0D44504D109EB840129F824204B807D
:1028E0001A494FF0020C09EB840031F814100C90D7
:1028F000CDE900C1418839F8240000F0D2F812482F
:102900003BF81410143029F8241030F814100C98E7
:10291000418001E029F824A0641CE4B2BC42C3D386
:10292000052000F017F8761CF6B21420B6FBF0F183
:1029300000FB11600028B3D103210548FEF729FBF5
:10294000AEE7000008000020A0010020C42B000812
:102950000004024070B5054600244FF47A7603E087
:10296000304600F004F8641CAC42F9D370BD70B579
:102970004FF0E02400226569B4214843A169A369AE
:102980008B42FCD002D2A1EB030102E0A5EB0306CF
:1029900031440A4419468242F1D370BD13B54FF653
:1029A000FF73012269460248FFF7E2F900981CBD57
:1029B00058010020F8B51D46002A14D00A4C86188C
:1029C000761EA3889E4202DB981A401E80B2E388DE
:1029D000994201D35B1E99B20244521E92B20B4639
:1029E0000095FFF721FAF8BD080000202DE9FF5FF0
:1029F00080460E4640F2C32050434FF47A71B0FB3C
:102A0000F1F702FB02F000EB520B14464FF6FF7099
:102A100000EA4202A8EB040080B231467F1C039B0F
:102A2000FFF7C8FF012538E005FB05F004FB0401B2
:102A300059451BD9BC4218D96800A0F102093019C8
:102A400081B2A8EB050000F1010A1FFA89F21FFA12
:102A50008AF0039BFFF7AEFF301B81B21FFA89F2A9
:102A60001FFA8AF0039BFFF7A5FF641E4FF6FF7065
:102A700000EA4402701981B2A8EB040A91461FFAD9
:102A80008AF0039BFFF796FF701B81B24A461FFA3C
:102A90008AF0039BFFF78EFF6D1CBD42C4D9BDE8D1
:102AA000FF9F2DE9FF5F4FF00008DDF838A0474693
:102AB00050454FD352454DD351454BD3534549D340
:102AC000161A5D1A029000914FF0FF30002E02DDC1
:102AD0004FF0010102E003D14FF000018B4602E00C
:102AE0008346C6F10006002D02DD4FF0010002E032
:102AF00003D14FF00000019002E0C5F10005019004
:102B0000AE4201DD344600E02C46601C4FF0000967
:102B100003901CE00098524681B202980F9B80B24D
:102B2000FFF764FFB0442F44A04505DD0299A8EBF0
:102B3000040801EB0B000290A74204DDDDE900016F
:102B400008443F1B009009F101001FFA80F9039926
:102B50008945DFDDBDE8FF9FFEF736FAFFF73AFC57
:102B6000FFF7DEFAFFF7BEFBFFF7A4FAFFF780FAE4
:102B7000FFF762FBFFF7D6FBFFF7A6F9FFF780FC34
:102B8000FFF782FE064C4FF4FA7503212046FEF74C
:102B900000FA04A0FFF76CFD2846FFF7DBFEF4E720
:102BA00000040240746573742E2E0D0A00000000AC
:102BB000030009000F0015001B005081588160813F
:102BC0006881708100F8E0071F0040BCE0FF1FF83B
:102BD000FF077C7D07FC308400000000000000003F
:102BE00001020304060708090000000001020304B3
:102BF000102C0008000000202C000000B026000867
:102C00003C2C00082C0000209C050000C026000879
:102C10000000000000000000000000005802000456
:102C20000000000000000000010000001000000093
:0C2C3000000000000024F4000000000080
:04000005080001AD41
:00000001FF
