:020000040800F2
:10000000704F00208502000807260008B92000086C
:1000100005260008FD0300088F2A000800000000E4
:10002000000000000000000000000000C501000802
:10003000610600080000000021020008F526000803
:100040009F0200089F0200089F0200089F0200080C
:100050009F0200089F0200089F0200089F020008FC
:100060009F0200089F0200089F0200089F020008EC
:100070009F0200089F0200089F0200089F020008DC
:100080009F0200089F0200089F0200089F020008CC
:100090009F0200089F0200089F0200089F020008BC
:1000A0009F0200089F0200089F0200089F020008AC
:1000B0009F0200089F0200089F0200089F0200089C
:1000C0009F0200089F0200089F0200089F0200088C
:1000D0009F0200089F0200089F0200089F0200087C
:1000E0009F0200089F0200089F0200089F0200086C
:1000F0009F0200089F0200089F0200089F0200085C
:100100009F0200089F0200089F0200089F0200084B
:100110009F0200089F0200089F020008BD270008F8
:100120009F0200089F0200089F0200089F0200082B
:100130009F0200089F0200089F0200089F0200081B
:100140009F0200089F0200089F0200089F0200080B
:100150009F0200089F0200089F0200089F020008FB
:100160009F0200089F0200089F0200089F020008EB
:100170009F0200089F0200089F0200080000000084
:100180009F0200089F0200089F0200089F020008CB
:100190009F0200089F0200089F0200089F020008BB
:1001A0009F0200089F0200089F020008DFF810D09D
:1001B00000F012F9004800477D2F0008AFF30080DF
:1001C000704F00202C4B19680868B0E8F04F80F39E
:1001D0000988BFF36F8F4FF0000080F311887047DC
:1001E0000000000008480068006880F308884FF0AD
:1001F000000080F3148862B661B6BFF34F8FBFF37F
:100200006F8F00DF00BF00BF08ED00E0DFF80C00DB
:10021000016841F470010160704700BF88ED00E0A3
:10022000EFF30980BFF36F8F134B1A681EF0100FA6
:1002300008BF20ED108A20E9F04F106009B44FF09C
:10024000500080F31188BFF34F8FBFF36F8F03F01F
:1002500061FD4FF0000080F3118809BC196808683F
:10026000B0E8F04F1EF0100F08BFB0EC108A80F31A
:100270000988BFF36F8F704730000020EFF30580CF
:10028000704700000648804706480047FEE7FEE743
:10029000FEE7FEE7FEE7FEE7FEE7FEE7FEE7FEE736
:1002A000AD270008AD0100082DE9F05F05460020EC
:1002B00092469B4688460646814640241BE02846D7
:1002C00041464746224600F077F853465A46C01A40
:1002D000914110D311461846224600F05EF82D1ABF
:1002E00067EB01084F4622460120002100F055F837
:1002F00017EB00094E41201EA4F10104DFDC484643
:1003000031462A464346BDE8F09F40EA01039B0779
:1003100003D009E008C9121F08C0042AFAD203E07A
:1003200011F8013B00F8013B521EF9D27047D2B2DE
:1003300001E000F8012B491EFBD270470022F6E7CE
:1003400010B513460A4604461946FFF7F0FF20464B
:1003500010BD10B5002200E0521C835C8C5CA342EF
:1003600001D1002BF8D1D8B2E1B2401A10BD30B59E
:100370000B46014600202022012409E021FA02F563
:100380009D4205D303FA02F5491B04FA02F52844FD
:10039000151EA2F10102F1DC30BD202A04DB203A57
:1003A00000FA02F1002070479140C2F1200320FAC8
:1003B00003F3194390407047202A04DB203A21FAC6
:1003C00002F00021704721FA02F3D040C2F120026E
:1003D0009140084319467047064C074D06E0E06817
:1003E00040F0010394E8070098471034AC42F6D37C
:1003F000FFF7E0FE0848000828480008FEE7000074
:1004000070B5124C00220821204600F0BCFD0220ED
:1004100002F0BEFC0E4D01224021284600F0B3FD43
:10042000022002F0B5FC00224021284600F0ABFD7E
:10043000022002F0ADFC01220821204600F0A3FDBD
:10044000BDE87040022002F0A3BC00000020024082
:10045000001C024010B501220821054800F093FD60
:100460000122BDE810404021024800F08CBD000090
:1004700000200240001C024010B5012208210C4857
:1004800000F081FD022002F083FC0A4C0122402191
:10049000204600F078FD022002F07AFC0022402184
:1004A000204600F070FDBDE81040022002F070BC54
:1004B00000200240001C02402DE9F0410025DFF839
:1004C0004C80134E0746802401224021304600F024
:1004D0005AFD022002F05CFC0821404600F046FD77
:1004E00000B1254300224021304600F04CFD02209F
:1004F00002F04EFC6408E7D127B1FFF781FF2846E0
:10050000BDE8F081FFF7B8FFF9E7000000200240E6
:10051000001C02402DE9F041124F134E0546802485
:10052000254201D0012200E000220821384600F0D7
:100530002AFD022002F02CFC01224021304600F06E
:1005400022FD022002F024FC00224021304600F06F
:100550001AFD6408E4D13846BDE8F04101220821C3
:1005600000F011BD00200240001C024070B5104C8C
:1005700001220821204600F006FD0E4D01224021F7
:10058000284600F000FD022002F002FC00220821B3
:10059000204600F0F8FC022002F0FAFB0022402185
:1005A000284600F0F0FCBDE87040022002F0F0BBED
:1005B00000200240001C024010B50D4C0022082112
:1005C000204600F0E0FC022002F0E2FB0122402184
:1005D000084800F0D8FC022002F0DAFB01220821D2
:1005E000204600F0D0FCBDE81040022002F0D0BB55
:1005F00000200240001C02402DE9F041164E00246C
:10060000254601220821304600F0BDFC022002F000
:10061000BFFB124F01224021384600F0B4FC07E036
:10062000641CE4B2FA2C03D9FFF7C6FF012508E0E9
:10063000022002F0ADFB0821304600F097FC0028B4
:10064000EED100224021384600F09DFC022002F04D
:100650009FFB2846BDE8F08100200240001C0240BC
:10066000704772B6FEE7F0B5D1E907354C6A0A6803
:10067000C2B102682B4322F4F842144323430360BF
:10068000D1E901231A43D1E9033423431A434B69C7
:1006900089691A430A4341686FF30E010A434260B5
:1006A0000020F0BDD1E901263243D1E903673E4382
:1006B00032434E69896932430A431A432A43016827
:1006C00022436FF30E010A430260E9E7426943F6F1
:1006D000FE739A4342EA410141610020704770B5C0
:1006E00014460546D1E9000210438A686FF01F03E3
:1006F000C96803EB421242EA4121084329696FF3BA
:1007000015010843286100F043FC064609E0601C1F
:1007100007D024B100F03CFC801BA04201D903208B
:1007200070BDA8698006F2D4002070BDF0B56FF0EE
:100730000F058C8A2E014FEA054ECB682F034FF030
:100740007F4C0EEB04540AB31A03A2F5805283685F
:1007500022431D4C23401A438260D1E9002305EB5C
:100760000313521E1A438B6806EB03231A430B8AAA
:10077000097E07EB03431A430CEB01610A43C1688E
:1007800001F070410A43C2600020F0BDD1E9002EA3
:1007900005EB0E15521E2A438D6806EB05252A43EC
:1007A0000A4D05EB03331A430B8A097E07EB03431B
:1007B0001A4322430CEB01610A43816801F0704146
:1007C0000A438260E0E70000FF0F0FFF00F0FFFF29
:1007D00070B5324988B00024086840F08000086095
:1007E000086800F080000790086840F48070086096
:1007F000086802A900F4807007908020012681E833
:10080000510003200590264800F096FA3502CDE904
:100810000256244E02A9304600F08EFAFFF71AFE67
:1008200000222946304600F0AEFB142002F0A2FA66
:1008300001222946304600F0A6FB322002F09AFA47
:100840008DF800400422694648F2401000F026F975
:100850008DF80440694614A002F01AF91548009971
:1008600048F24005C0F80A1002208DF8000001226D
:100870006946284600F042F901226946E81D00F069
:100880000DF90A2002F076FA8DF80040012269463F
:10089000284600F033F908B0204670BD30380240D9
:1008A000001C0240002002404354502049443A2595
:1008B000730D0A00000000202DE9F14F82B00026E0
:1008C000724C8DF8006005276078DFF8C491401CF9
:1008D000C0B20A21B0FBF1F201FB1201B246607016
:1008E00009F1140509B10A287ED2684869A10A30C5
:1008F000FFF72FFDA8B948F24E18012202A9404681
:1009000000F0CCF89DF8080001060AD500F00F00B1
:10091000052806D88DF8006001226946404600F09F
:10092000EDF89DF8080001077CD000F00F000528C5
:1009300078D8FF218140C8B2C043B4F808B040F075
:10094000C00053492081B9F800000881143128887B
:100950000881042002F00EFA8DF800604FF0010AC1
:100960004FEA04089DF800100AFA01F0B8F80810E0
:10097000084232D0454847A10A30FFF7EAFC60BB85
:1009800045489DF80010042230F8110001A900F03C
:1009900085F898F802009DF80510C0079DF804003E
:1009A00000EB01219DF800000AD029F810109DF8F5
:1009B00006109DF8072001EB022125F810100CE02D
:1009C00025F810109DF806109DF8072001EB022174
:1009D000B8F80420511A29F810109DF80000401CA6
:1009E000C0B28DF8000000E01CE0B842BAD3B9F8FC
:1009F0000010B8F804204FF0010A4846914204D88C
:100A00002988B8F8062091420AD99DF8081001F00B
:100A10000F0101290DD94188A9F8001068882880A4
:100A200088F8016019481BA10A30FFF792FC88B1D1
:100A300024E000EB470105EB470031F8021CA9F860
:100A4000001030F8020C288080208DF80800A8F8EB
:100A500008B0E7E79DF8080000F08F0080280DD16E
:100A60002089010602D520F0800006E04FF6FF71D4
:100A7000A9F80010298000F0E00020816078F028BB
:100A800001D90A2060705046BDE8FE8F00000020AA
:100A9000B400002039313100704700082DE9F041E1
:100AA00015460E460446FFF761FD2820FFF732FD8C
:100AB000FFF7A2FD200AFFF72DFDFFF79DFDE0B235
:100AC000FFF728FDFFF798FDFFF750FD2920FFF7FE
:100AD00021FDFFF791FD00246F1E09E0BC4201D00B
:100AE000012000E00020FFF7E7FC3055641CE4B271
:100AF000AC42F3D3BDE8F041FFF75EBD2DE9F04114
:100B000016460F4604460025FFF730FD2820FFF764
:100B100001FDFFF771FD200AFFF7FCFCFFF76CFDFC
:100B2000E0B2FFF7F7FCFFF767FD002408E0385D4F
:100B3000FFF7F0FCFFF760FD050003D1641CE4B291
:100B4000B442F4D3FFF738FD2846BDE8F081000039
:100B500070B590F83820012A24D0012680F838603A
:100B6000022280F8392000EB0112148CD36918326C
:100B700043EA04451E4C0A2B16D0092B14D0137BD4
:100B800045EA03630029016813D0CD69A5431D43DD
:100B9000CD6103681168196151680A291BD00929C0
:100BA00019D01DE0022070BDD36803F07F432B43B2
:100BB000E8E74D6AA5431D434D62036811689961DA
:100BC00051680A2901D009290AD1D168026821F0A7
:100BD0007F41916204E0D168026821F07F41116297
:100BE00080F83960002180F83810084670BD000098
:100BF0000F0003FF70B5040004D094F839000025FD
:100C000010B106E0012070BD84F83850204600F095
:100C10001FF8022084F8390020680168626821F416
:100C20004031114301602068416BA26821F0070147
:100C3000114341632068016CE2686FF30D011143B9
:100C40000164E563012084F83900002070BD0000D4
:100C500008B500680649884208D10648016841F491
:100C600000010160006800F40000009008BD000071
:100C700000B0024030380240F0B587B01421684619
:100C8000FFF75CFB25480168002944D10121016080
:100C900023480024016841F0010101600068022539
:100CA00000F0010005904FF63F00CDE9000502AAD3
:100CB00003260C2782E8D00069461A4800F03CF869
:100CC0000D20CDE9000502AA694682E8D000164849
:100CD00000F032F848F23710CDE9000502AA694663
:100CE00082E8D000114800F027F84FF68370CDE974
:100CF000000502AA694682E8D0000D4800F01CF801
:100D00004CF20370CDE9000502AA694682E8D000E2
:100D1000084800F011F807B0F0BD000018000020EE
:100D20003838024000140240000802400018024017
:100D300000100240000C02402DE9F84FDFF8F8A146
:100D40000022012403254FF00F090AF1040BAAF138
:100D5000040E00BF0B6804FA02F63340B34270D1B0
:100D60000F7907F00307012F01D0022F16D18768F2
:100D70004FEA420805FA08FC27EA0C07D1F80CC034
:100D80000CFA08FC4CEA070CC0F808C04768B743E7
:100D90000E79C6F3001696403E4346600E79F64340
:100DA000B6070AD0C7684FEA420C05FA0CF6B743FB
:100DB0008E6806FA0CF63E43C6600E7906F003060E
:100DC000022E10D1D60800EB8608D8F8206057070D
:100DD0004FEAD76C09FA0CF7BE430F6907FA0CF714
:100DE0003743C8F8207006684FEA420C05FA0CF742
:100DF000BE430F7907F0030707FA0CF73743076084
:100E00004E6816F4403F1CD04C4E376847F480477C
:100E10003760366822F0030706F480460096484E95
:100E200007EB060CDCF8086897073F0F09FA07F88C
:100E300026EA0806DFF80C81404503D14FF0000890
:100E400041E072E0DFF80081404502D14FF0010837
:100E500039E0DFF8F880404502D14FF0020832E077
:100E6000DFF8EC80404502D14FF003082BE0DFF8BB
:100E7000E480404502D14FF0040824E0DFF8D88038
:100E8000404502D14FF005081DE0DFF8D080404515
:100E900002D14FF0060816E0DFF8C480404502D1C9
:100EA0004FF007080FE0DFF8BC80404502D14FF05B
:100EB000080808E0DFF8B080404502D14FF009088B
:100EC00001E04FF00A0808FA07F848EA0608CCF8EB
:100ED0000888DAF800605746D1F804C09E435FEAFC
:100EE000CC2C00D51E433E60DBF800605F46D1F895
:100EF00004C09E435FEA8C2C00D51E433E60DEF8A2
:100F000000607746D1F804C09E435FEA8C3C00D570
:100F10001E433E60084F083F3E68D1F804C09E4320
:100F20005FEACC3C00D51E433E60521C102AFFF401
:100F300011AFBDE8F88F0000083C01404438024082
:100F4000003001400000024000040240000802405E
:100F5000000C024000100240001402400018024041
:100F6000001C0240002002400024024000690840AA
:100F700000D001207047426921EA02030A4043EA97
:100F80000241816170470AB1816170470904FBE742
:100F900001488068704700002000002002488168F6
:100FA0000278114481607047200000200B4810B582
:100FB000016841F400710160016841F480610160E1
:100FC000016841F480710160032000F017FA0F20DE
:100FD00000F006F800F0C8F9002010BD003C024007
:100FE00030B505461F4887B00024016841F0200154
:100FF0000160006806A900F02000009001A800F040
:101000000BFC0498A8B100F027FC40001649174AD1
:10101000B0FBF1F11648491E026040F2E732C0E928
:101020000324C0E90114846100F078FE040003D0B9
:1010300015E000F011FCE9E70D4800F09DFE04000A
:101040000DD1372000F0ACF9102D07D2002229462F
:10105000372000F0B3F90748056000E0012407B02D
:10106000204630BD4038024040420F00001400408E
:1010700050020020240000202DE9F041044690F8A1
:10108000A00016460F4601281DD0012584F8A05067
:10109000022084F8A10006EB860000EBC60004EBFA
:1010A000800034223830FFF730F932463946204686
:1010B00001F080F82068456284F8A150002084F88F
:1010C000A000BDE8F0810220FBE7000070B504003D
:1010D00004D094F8A100002510B106E0012070BDF5
:1010E00084F8A050204600F06BF8022084F8A1009C
:1010F0002068816921F070418161D4E901010843D0
:10110000D4E903121143084321688A6910438861B6
:1011100021688A68294802408A60A18A0A042168F5
:101120008B68A669334313438B602168CA68024009
:10113000CA60A18B0B042168CA68266A32431A432D
:10114000CA6021680A6902400A61A18C22680B0406
:101150001169A66A31431943116121684A69024045
:101160004A61A08D010420684269236B1A430A4337
:10117000426194F835002168020294F83600CB6A87
:1011800003F07F43CB622168CB6A94F8346042EA73
:10119000004033430343CB622068416B41F00601BA
:1011A00041632068816941F001018161C4F8A45064
:1011B000012084F8A100002070BD000000F800F0BC
:1011C00070B592B0044614216846FFF7B7F8302195
:1011D00005A8FFF7B3F834492068884261D1082098
:1011E000059000256C200E95022409900B9405A80B
:1011F00000F04EF908B1FFF734FA2C48016841F0CD
:1012000080610160006800F0806011902748143808
:10121000016841F480710160016801F480711191ED
:10122000016841F020010160016801F02001119185
:10123000016841F080010160016801F080011191B5
:10124000016841F04001016000680E2600F0400096
:10125000119040F2F7608DE83100CDE90346694610
:101260001348FFF769FD4FF480608DE83100CDE948
:10127000034669460F48FFF75FFD4FF47E408DE857
:101280003100CDE9034669460B48FFF755FD4FF4A1
:101290000C608DE83100CDE9034669460748FFF749
:1012A0004BFD12B070BD00000068014044380240A0
:1012B0000020024000140240001C024000180240BE
:1012C00070B5044690F8A0000E46012820D00125F4
:1012D00084F8A050022084F8A10003EB830000EB07
:1012E000C30004EB800141F8386F886A3044C1E9DB
:1012F0000102C86A1044C8601A46204600F05AFF2E
:101300002068456284F8A150002084F8A00070BDD8
:10131000022070BD70B5044690F8A0000E4601286A
:1013200020D0012584F8A050022084F8A10003EB0E
:10133000830000EBC30004EB800151F8380F304408
:10134000486088681044C860C1E90A621A462046AD
:1013500000F030FF2068456284F8A150002084F836
:10136000A00070BD022070BD0C4882B0016841F43D
:1013700080410160006800F4804000900748001F31
:10138000016841F0805101600068002200F0805047
:1013900000900F21901E02B000F010B844380240B7
:1013A000002809DB00F01F02012191404009800064
:1013B00000F1E020C0F8001170470000F0B40E4BBF
:1013C0001B680C46C3F30223C3F10705042D00D9A3
:1013D0000425191D072901D2002300E0DB1E012688
:1013E00006FA05F1491E214099409E40761E16409E
:1013F0003143F0BC01F05CBB0CED00E0064900F0AD
:10140000070208684FF6FF03184040EA0220034A2B
:1014100010430860704700000CED00E00000FA0582
:101420002DE9F8431748016841F0805101600068D8
:10143000154F00F08050012600903E64FFF7A8FD94
:1014400005464FF47A78114C05E000BFFFF7A0FD88
:10145000401B40450DD86068C003F7D57E64FFF798
:1014600097FD0546464607E0FFF792FD401BB04258
:1014700002D90320BDE8F88360688003F4D500201A
:10148000F8E700004038024000000E4200700040C3
:101490002DE9F84F04460068DFF824A2894F8A4DF1
:1014A000C1074FF001084FF0000603D1810701D4B6
:1014B000400648D5CAF86860FFF76AFD814605E036
:1014C000FFF766FDA0EB090002287DD8286800011F
:1014D000F6D42078C1077D4805D06168227A890159
:1014E00041EA027101602178890711D501686268BB
:1014F000237B9201C1F3027142EA036242EA017165
:1015000001603968E26921F01F01521E1143396000
:101510002178490608D56168227B890141EA026188
:10152000227A41EA02710160CAF86880FFF730FD53
:10153000814605E0FFF72CFDA0EB0900022843D807
:1015400028680001F6D52068410701D400074ED570
:10155000CAF87060FFF71CFD814605E0FFF718FD33
:10156000A0EB090002282FD82868C0438000F5D5D9
:1015700020784107564814D501682269237D9201DD
:10158000C1F3027142EA036242EA01710160396803
:10159000226A6FF0FF0321F4F85103EB022211439A
:1015A00039602178090712D501682269C1F3036106
:1015B000920142EA0161227E41EA027101603868CB
:1015C000616A20F4403000E051E008433860CAF816
:1015D0007080FFF7DDFC074605E000BFFFF7D8FC91
:1015E000C01B022843D82868C0438000F6D4207866
:1015F000800653D534484030016841F08051016085
:101600000068344D00F080500090286840F48070ED
:101610002860FFF7BDFC074605E000BFFFF7B8FCF8
:10162000C01B022823D82868C005F7D5274D143DD4
:10163000286810F4407020D0218D01F4407181425F
:101640001BD0286820F440712348C0F80080066051
:1016500029602868C00710D0FFF79AFC064641F2BF
:10166000883707E0FFF794FC801BB84202D90320BB
:10167000BDE8F88F28688007F4D5A16A1248C1F345
:1016800001220830032A13D0016821F4F811016007
:101690002868218DC1F30B01084328602078C0061B
:1016A00004D50E4994F82C00C1F8E0010020DFE7D2
:1016B00002680B4B22F4F81219400A430260E7E774
:1016C000000047428C380240003802408438024013
:1016D0008838024000700040400E474200104742E8
:1016E000FFFCFF0F2DE9F0470E46050065D0DFF83F
:1016F0001481D8F80000F7B200F00F00B04207D212
:1017000088F80070D8F8000000F00F00B04254D103
:1017100028683D4C810712D5400703D5206840F466
:10172000E05020602878000703D5206840F460402E
:1017300020602068A96820F0F00008432060287825
:10174000C0072DD0304968680839012812D0022816
:1017500013D0032811D00968890700292DDA2168E0
:1017600021F0030101432160FFF712FC814641F2A1
:10177000883A0EE009688903EFE709688901ECE718
:10178000FFF706FCA0EB0901514502D90320BDE893
:10179000F0872068696800F00C00B0EB810FEFD192
:1017A000D8F80010404601F00F01B14207D9077088
:1017B000006800F00F00B04201D00120E7E7287870
:1017C000400705D52068E96820F4E0500843206010
:1017D0002878000706D52068296920F4604040EA8F
:1017E000C100206000F058F82168084AC1F30311D5
:1017F000515CC8400649086006480068FFF7F0FBE6
:101800000020C4E7003C024008380240D8470008E6
:101810002C000020240000200F2202600C4A1368D4
:1018200003F003034360136803F0F003836013685D
:1018300003F4E053C36012684FF4E05303EAD202AA
:1018400002610448006800F00F0008607047000063
:1018500008380240003C0240044805490068096815
:10186000044AC1F38221515CC84070472C0000201B
:1018700008380240E847000804480549006809683C
:10188000044AC1F34231515CC84070472C0000202B
:1018900008380240E8470008154810B5006810F005
:1018A0000C02144813D01449042A0FD0082A0ED170
:1018B0000F4C241F2268236802F03F025B0207D509
:1018C0002068C0F38810A0FB010106E0084610BDA7
:1018D0002168C1F38811A1FB00010023FEF7E4FC9D
:1018E0002168C1F30141491C4900B0FBF1F010BD72
:1018F000083802400024F40040787D012DE9F84FBB
:1019000004006ED02078DFF84C93C007A9F10405DD
:101910004AD009F104000168C1F38101012908D00E
:101920000068C0F3810002280AD1D9F80000400203
:1019300006D52868800337D560680028E1D033E0F9
:101940006068B0F5803F10D0B0F5A02F286810D0A7
:1019500020F480302860286820F4802028606068A7
:10196000A8B1FFF715FB06460DE0286840F480306B
:10197000F4E740F480202860F7E700BFFFF708FB9A
:10198000801B642873D828688003F7D50CE0FFF724
:10199000FFFA064605E000BFFFF7FAFA801B64284D
:1019A000F0D828688003F7D42078DFF8AC8280076D
:1019B0004FF0000A3ED5A748001D016811F00C0F3A
:1019C00008D00068C0F3810002280BD1D9F80000CC
:1019D000400207D42868800716D5E068012800D1A6
:1019E00012E033E1E068B8B10120C8F80000FFF769
:1019F000CFFA064605E000BFFFF7CAFA801B0228AF
:101A0000C0D828688007F7D52868216920F0F80039
:101A100040EAC10028600DE0C8F800A0FFF7B8FA5E
:101A2000064604E0FFF7B4FA801B02281FD8286896
:101A30008007F7D42078000722D5864F8748616950
:101A4000703771B101210160FFF7A2FA064604E088
:101A5000FFF79EFA801B022809D838688007F7D55F
:101A60000EE0C0F800A0FFF793FA064605E082E01A
:101A7000FFF78EFA801B02287DD838688007F7D4DC
:101A80002078400768D5DFF8CCB100270BF13C0B7C
:101A9000DBF80000C0000BD4DBF8001041F08051EF
:101AA000CBF80010DBF80000012700F08050009018
:101AB0006B4E3068C00510D4306840F480703060E0
:101AC000FFF766FA009005E0FFF762FA0099401A06
:101AD000022850D83068C005F6D55E4EA0686C3636
:101AE00001280FD00528306810D020F001003060A8
:101AF000306820F004003060A068B8B1FFF748FA01
:101B000000900FE0306840F00100F4E740F004007E
:101B10003060F7E7FFF73CFA0099411A41F288304C
:101B2000814266D830688007F4D50EE0FFF730FABE
:101B3000009007E0FFF72CFA0099411A41F2883033
:101B4000814256D830688007F4D42FB1DBF80010FA
:101B500021F08051CBF80010A069C8B33D49091DA0
:101B60000968C1F3810102294AD00228504607D0F2
:101B7000C8F8600000E03CE0FFF70AFA04463BE0EA
:101B80004746C8F86000FFF703FA064605E000BFC5
:101B9000FFF7FEF9801B02282BD828688001F7D4B4
:101BA000D4E907010843A16A2E4A490802EB014122
:101BB000626A41EA8211084394F82C1040EA0161FC
:101BC000C9F8001001203866FFF7E2F9044606E084
:101BD0003EE000BFFFF7DCF9001B022809D82868A7
:101BE0008001F7D534E000BFFFF7D2F9001B0228CF
:101BF00002D90320BDE8F88F28688001F4D427E0DB
:101C00000128F7D0D9F80000E26900F48001914280
:101C10001CD1226A00F03F01914217D147F6C071F2
:101C2000626A0140B1EB821F10D1A26A4FF0FF330C
:101C300000F4403103EB5202B1EB024F06D194F8AD
:101C40002C1000F07060B0EB016F01D00120D1E7E3
:101C50000020CFE70438024000004742800E474290
:101C6000007000400000FFFF70B50D46040003D077
:101C700094F82C0010B107E0012070BD002084F81A
:101C80002D00204600F011F8022084F82C00211DC0
:101C90002068FEF7E8FCD4E900022946FEF746FD7D
:101CA000012084F82C00002070BDFEF7E5BF10B5C0
:101CB000044690F82C00022804D094F82C00012847
:101CC00001D0012010BD022084F82C002068FEF70E
:101CD000FDFC012084F82C00002010BD70B50446E6
:101CE00090F82C000D46022804D0012803D00528C6
:101CF00001D0012070BD022084F82C002068FEF77E
:101D0000EEFC2868022805D05FF0010084F82C0062
:101D1000002070BD0520F9E77047704710B504003A
:101D200003D094F83D0010B107E0012010BD002061
:101D300084F83C00204600F01EF8022084F83D00A4
:101D4000211D206800F040FD012084F8460084F841
:101D50003E0084F83F0084F8400084F8410084F895
:101D6000420084F8430084F8440084F8450084F875
:101D70003D00002010BD704790F83D10012901D0B2
:101D800001207047022180F83D100168CA6842F0C6
:101D90000102CA6000681149884214D0B0F1804F36
:101DA00011D00F4988420ED00E4988420BD00E49FF
:101DB000884208D00D49884205D00D49884202D09A
:101DC0000C49884204D1816801F00701062903D03B
:101DD000016841F0010101600020704700000140EE
:101DE0000004004000080040000C004000040140D6
:101DF000004001400018004070472DE9F0410446C2
:101E00000068C66805694FF00007A90713D5B10738
:101E100011D5F91E016101202077206880698007B3
:101E2000204602D0FFF7E8FF04E000F07EF82046ED
:101E300000F07CF82777680716D5700714D521685D
:101E40006FF004000861022020772068806910F498
:101E5000407F204602D0FFF7CFFF04E000F065F896
:101E6000204600F063F82777280715D5300713D5EB
:101E700021686FF008000861042020772068C0699D
:101E80008007204602D0FFF7B7FF04E000F04DF8CE
:101E9000204600F04BF82777E80616D5F00614D553
:101EA00021686FF010000861082020772068C06961
:101EB00010F4407F204602D0FFF79EFF04E000F0C0
:101EC00034F8204600F032F82777E80708D0F0070A
:101ED00006D021686FF001000861204600F028F864
:101EE000280608D5300606D521686FF08000086105
:101EF0002046FFF711FF680608D5700606D5216851
:101F00006FF040000861204600F01CF8A8060AD5D2
:101F1000B00608D521686FF0200008612046BDE8B2
:101F2000F041FFF7FABEBDE8F0817047704700004E
:101F300000680349884201D1FFF730B870470000BC
:101F400000140040704770B5040004D094F84100BC
:101F5000002510B106E0012070BD84F840502046F5
:101F600000F024F8242084F841002068C16821F49E
:101F70000051C160204600F0CBFC2068016921F4CB
:101F8000904101612068416921F02A014161206886
:101F9000C16841F40051C1606564202084F84100AB
:101FA00084F842006563002070BD000010B586B063
:101FB000044614216846FEF7C1F914492068884296
:101FC00021D113480021026842F01002026000682B
:101FD00000F0100005900E481438026842F001022B
:101FE0000260006800F0010005904FF4C0600090AE
:101FF0000220CDE9010103200390072004906946E7
:102000000448FEF799FE06B010BD00000010014024
:1020100044380240000002402DE9F843044690F89D
:102020004100984616460D46202802D00220BDE801
:10203000F88385B17EB100206064212084F84100DE
:10204000FEF7A6FFA6848146E684A0682027B0F5A7
:10205000805F02D003E00120E9E7206910B12E463D
:1020600000250EE000260CE08021204600F0D6FC82
:10207000A8B9C6B116F8010B21684860E08C401E73
:10208000E084E08C4B464FF00002CDF80080002841
:10209000EAD14FF04001204600F0C0FC40B184F886
:1020A00041700320C3E735F8020BC0F30800E3E7F3
:1020B00084F841700020BAE7FEE708B500210090DF
:1020C00040F2FF3340F25722084600F001F808BD05
:1020D000F8B5A0F25720A2F2572246425B1A00241C
:1020E0005242A3F2FF30404287B201EB82204FF010
:1020F000404101EB40011C48069DD0F800C04CF463
:10210000000CC0F800C0006800F400000090174800
:10211000D0F800C02CF0010CC0F800C04FF4403CD7
:10212000C0F800C04FF0020CC0F834C00764C163AF
:10213000B11A4FF4803202EB0342491C114341644F
:102140008563016841F0010101604FF4001102E074
:10215000641C8C4202D242689207F9D5816841F032
:1021600002018160F8BD00003038024000B002403A
:10217000002310B51A4619460948FFF7A1F80023B5
:102180004FF416724FF480610548FFF7C3F800F072
:1021900009F8BDE810404FF0FF30FFF78EBF000098
:1021A00060010020012220210148FEF7ECBE000062
:1021B00000040240F0B503688C88DD68C5F30B4568
:1021C0002C442504882404EBC2141E5906F47046DE
:1021D0001E5103680F68DE68C6F30B46761C3E444A
:1021E0002E431E5104688B89E568C5F30A052B440C
:1021F0001D048C2303EBC213E65806F47046E65028
:1022000004688F68E668C6F30A06761C3E442E43CF
:10221000E6509423046803EBC213E55825F0070544
:10222000E55005680C69EC5091F831300C7E1F02C6
:1022300026069C24056804EBC21491F8323055F848
:1022400004C04FF0000C45F804C091F8305046EA45
:1022500003433D431D4303681D519823046803EB6A
:10226000C213E55825F0FF05E55005684C69EC50B0
:10227000A023046803EBC213E55840F20776B54388
:10228000E550D1E907452C430568EC50AC230468C0
:1022900003EBC213E55844F803C005684C6AEC50E0
:1022A0000B698BB3012B32D0042B32D0022B30D0F0
:1022B000032B2ED0072B2CD00123B024056804EB70
:1022C000C2142E5906F0E0262E51D1E90065AD1B4F
:1022D0000E8D5D435E43ED1C45EA064305682B51B8
:1022E000B423046803EBC213E5586FF30A05E55005
:1022F0000468C96AE1500068842101EBC2114258A8
:1023000042F001024250F0BDFFE70423D5E703236A
:10231000D3E70223D1E700000F4810B50D49016053
:1023200000210222C0E90112C160C0E90A12016362
:102330004163FEF75FFC08B1FEF793F901210648FF
:10234000FEF706FC002803D0BDE81040FEF789B96F
:1023500010BD000000B00240DC00002000B587B0D6
:102360001C216846FDF7EAFF164815490122016065
:102370000021C0E901120822C2601022026140223D
:1023800042614FF4C072C0E906214FF4006202625C
:102390005200C0E909210220072105228DE807002B
:1023A00003910321CDE90410069069460548FFF723
:1023B0005BFC002801D0FEF754F907B000BD000017
:1023C000400100A02C01002010B500F01DF9FFF71E
:1023D000CFFE00F065FA00F067FC074A00210748CD
:1023E00000F01CFE064C044A0021206024320548FF
:1023F00000F014FE606010BD90470008B126000890
:1024000010000020D92600082DE9F04186B01421E3
:102410006846FDF793FF3E480025016841F004013E
:102420000160016801F004010591016841F48071C7
:102430000160016801F480710591016841F020019B
:102440000160016801F020010591016841F08001FF
:102450000160016801F080010591016841F002010D
:102460000160016801F002010591016841F040013D
:102470000160016801F040010591016841F010011F
:102480000160016801F010010591016841F0080147
:102490000160016801F008010591016841F0010146
:1024A000016000681B4F00F001000590002223210D
:1024B0003846FEF768FD184E012240213046FEF7EF
:1024C00062FDDFF85880012208214046FEF75BFDDF
:1024D000232001248DE83100694638460395FEF734
:1024E0002BFC402011250227CDE90005CDE902474C
:1024F00069463046FEF720FC0820CDE90005CDE90D
:10250000024769464046FEF717FC06B0BDE8F08179
:102510003038024000040240001C0240002002400B
:1025200030B58DB034216846FDF708FF26482549AF
:102530000024C0E9001484601321C460C0E9044190
:1025400002259F21C0E906511621016240F29F41F8
:10255000416240F26E21816240F23F51C16240F21D
:102560007A21016380F8344080F8354080F83640A5
:10257000FEF7ACFD08B1FEF774F84FF416714FF496
:102580008060CDE90241CDE90040CDE9064005205B
:10259000FF2108908807CDE90904CDE904518DF8A1
:1025A00030408DF831400B948DF83240002269465E
:1025B0000548FEF761FD002801D0FEF752F80DB086
:1025C00030BD000000680140600100200C4810B5DB
:1025D0000A4901604FF4E1314160002181600C2221
:1025E000C160C0E904128161C161FFF7ACFC002841
:1025F00003D0BDE81040FEF734B810BD0010014014
:1026000008020020FEE7FEE7024901F1100000F099
:1026100003B800001C0100202DE9F8430C460025FA
:10262000012610270095C4E90067C4E902654FF44C
:10263000805881464246FFF751FB052000F02AF8FA
:102640000220C4E90007C4E9026542462146484623
:10265000FFF744FB0320C4E900070820C4E9020592
:10266000424621464846FFF739FB40F2312004211B
:102670000090C4E90017C4E902604246214648467A
:10268000FFF72CFB4846BDE8F84340F2F921FFF77D
:102690000EBB000001B581B0044901984843009089
:1026A000002801D0401EFAE70CBD0000400D0300D9
:1026B0004FF47A7403A000F0EBF9204600F073FCAD
:1026C000F8E70000537461727444656661756C7458
:1026D0005461736B0D0A0000054C4FF4FA75032129
:1026E0002046FEF748FC284600F05DFCF7E70000B6
:1026F0000004024010B54FF0E020006901F082FEB6
:10270000012803D0BDE8104001F0B0BB10BD0000AF
:1027100070B592B030216846FDF710FE14210CA868
:10272000FDF70CFE1F480025016841F08051016053
:10273000006800F0805011901B48016841F440414E
:1027400001600068022400F44040119001200090D4
:10275000000401908001CDE906400F260896D8209C
:10276000CDE9090404200B906846FFF7C7F808B1CB
:1027700072B6FEE7FEF754FE08B172B6FEE74FF4FC
:10278000A050CDE90E504FF48050CDE90C6410906C
:1027900005210CA8FEF7A6FF002801D072B6FEE7BF
:1027A00012B070BD4038024000700040024801681D
:1027B00041F470010160704788ED00E00148FFF7C7
:1027C0001CBB000050020020F0B50268294C2A4DC5
:1027D0002A4E2B4F2B4B4FF0804CA04209D0604526
:1027E00007D0A84205D0B04203D0B84201D09842E9
:1027F00004D122F0700E4A6842EA0E02A0421BD0B9
:10280000604519D0A84217D0B04215D0B84213D0B5
:10281000984211D01C4DA8420ED01C4DA8420BD09E
:102820001B4DA84208D01B4DA84205D01A4DA84206
:1028300002D01A4DA84203D122F44075CA682A4337
:102840004D6922F080022A4302608A68C2620A68E7
:102850008262A04201D0984201D10969016301213D
:1028600041610169C90703D0016921F001010161DA
:10287000F0BD0000000001400004004000080040DE
:10288000000C0040000401400040014000440140B1
:102890000048014000180040001C0040002000409B
:1028A00010B5FDF795FF05488178027841F0800169
:1028B00002F001020A438270002010BD00000020D7
:1028C00001680C3151E8002F22F4907241E8002396
:1028D000002BF5D10168143151E8002F22F00102DC
:1028E00041E80023002BF5D1016B012909D10168D2
:1028F0000C3151E8002F22F0100241E80023002B98
:10290000F5D1202180F842100021016370470000BA
:1029100070B5044600680169E26821F44051114332
:1029200001612169A068E2690843616911430843B4
:102930002168CA6849F20C639A430243CA6020685E
:102940004169A26921F44071114341613149206814
:10295000884202D03049884202D1FEF78DFF01E063
:10296000FEF77AFFE2690023192164253226B2F5C9
:10297000004F626828D0A0FB0101930F9200FDF781
:1029800093FC0146B0FBF5F06FF01802504301EBE9
:10299000800006EB0010B0FBF5F000F0F002B1FB98
:1029A000F5F002EB0012B1FBF5F06FF0180358439D
:1029B00001EB800006EB0010B0FBF5F000F00F001B
:1029C00021681044886070BDA0FB010192185B4132
:1029D000FDF76AFC0146B0FBF5F00201B1FBF5F032
:1029E0006FF01803584301EB800006EBC000B0FB0A
:1029F000F5F000F0F80002EB4002B1FBF5F05843AF
:102A000001EB800006EBC000B0FBF5F000F0070022
:102A1000D6E7000000100140001401402DE9F84302
:102A2000984617460D460446089E24E0701C22D0A6
:102A3000FEF7AEFAA0EB0800B0421AD8CEB120687B
:102A4000C168490717D5802D15D0402D13D00168D6
:102A5000C94309070FD4016800254068009020464B
:102A6000FFF72EFF0820606484F840500120BDE885
:102A7000F8830320FBE72068006835EA000004D0F3
:102A80000020B842D2D00020F1E70120F9E7FEE7AC
:102A90000FB4054B10B503A9044A029800F028F8BA
:102AA00010BC5DF814FB0000C12D0008B000002030
:102AB0000907090E002804DB00F1E02080F800146B
:102AC000704700F00F0000F1E02080F8141D7047FF
:102AD00002E008C8121F08C1002AFAD170477047E7
:102AE000002001E001C1121F002AFBD17047000045
:102AF0002DE9FF4F8BB09A460F460546002606E0AB
:102B000025280BD052460D9990476D1C761C2878CD
:102B10000028F5D10FB03046BDE8F08F0024A04664
:102B20000122604900E0044315F8013F203B02FA0E
:102B300003F00842F7D128782E2817D115F8010F95
:102B400044F004042A280ED06FF02F022878A0F158
:102B5000300109290AD808EB880102EB410100EB9A
:102B600001086D1CF2E757F8048B6D1C2878692862
:102B70003ED006DC0028CDD063280BD0642804D1D9
:102B800036E0732810D075284BD052460D999047E7
:102B9000761C85E017F8040B8DF8000000208DF8F6
:102BA0000100E946012003E057F8049B4FF0FF3095
:102BB00061074FF0000401D40AE0641C44450DDABB
:102BC0008442FADB19F804100029F6D106E0641CEF
:102BD0008442FCDB19F804100029F8D1264404E0F3
:102BE00019F8010B52460D999047641EF8D257E030
:102BF00001CF4FF00A0B002802DA40422D2102E0FB
:102C0000210504D52B218DF82410012103E0E107D3
:102C100005D02021F7E70DF1200908910CE00021F3
:102C2000F9E701CF4FF00A0BF9E75946FDF79FFB93
:102C300001F1300209F8012D0028F6D1ADEB0900B1
:102C400000F1200B600701D44FF00108D84502DDE8
:102C5000A8EB0B0000E000208046002406E009A855
:102C60005246005D0D999047641C761C089884427A
:102C7000F5DB04E0302052460D999047761CB8F100
:102C80000001A8F10108F5DC05E019F8010B524636
:102C90000D999047761CBBF10001ABF1010BF4DC00
:102CA0006D1C34E7092801008EB000262D4DDFF899
:102CB000B8B005274FF001080DF108094FF6FF7A6B
:102CC0000020FDF7F9FD0024298908FA04F00842E4
:102CD00030D03BF81420A9888A422DD2DFF888E052
:102CE000E9880EF1140E3EF814308B4224D239F8E4
:102CF00024C0D44504D109EB840129F824204B8059
:102D00001A494FF0020C09EB840031F814100C90B2
:102D1000CDE900C1418839F8240000F0D4F8124808
:102D20003BF81410143029F8241030F814100C98C3
:102D3000418001E029F824A0641CE4B2BC42C3D362
:102D4000052000F017F8761CF6B21420B6FBF0F15F
:102D500000FB11600028B3D103210548FEF70BF9F1
:102D6000AEE7000000000020B40000207A47000811
:102D70000004024070B5054600244FF47A7603E063
:102D8000304600F005F8641CAC42F9D370BD000079
:102D900030B50A4900220D68084C083C23682168B8
:102DA0009942FCD002D9A1EB030302E0A5EB030397
:102DB0000B441A440B468242F1D330BD2C14004020
:102DC00013B54FF6FF73012269460248FFF724F955
:102DD00000981CBD08020020F8B51D46002A14D03A
:102DE0000A4C8618761EA3889E4202DB981A401E63
:102DF00080B2E388994201D35B1E99B20244521E0D
:102E000092B20B460095FFF763F9F8BD0000002071
:102E10002DE9FF5F80460E4640F2C32050434FF439
:102E20007A71B0FBF1F702FB02F000EB520B144693
:102E30004FF6FF7000EA4202A8EB040080B2314670
:102E40007F1C039BFFF7C8FF012538E005FB05F059
:102E500004FB040159451BD9BC4218D96800A0F1F4
:102E60000209301981B2A8EB050000F1010A1FFA2E
:102E700089F21FFA8AF0039BFFF7AEFF301B81B285
:102E80001FFA89F21FFA8AF0039BFFF7A5FF641E61
:102E90004FF6FF7000EA4402701981B2A8EB040AF1
:102EA00091461FFA8AF0039BFFF796FF701B81B2D1
:102EB0004A461FFA8AF0039BFFF78EFF6D1CBD4246
:102EC000C4D9BDE8FF9F2DE9FF5F4FF00008DDF892
:102ED00038A0474650454FD352454DD351454BD36B
:102EE000534549D3161A5D1A029000914FF0FF30F6
:102EF000002E02DD4FF0010102E003D14FF000018E
:102F00008B4602E08346C6F10006002D02DD4FF03D
:102F1000010002E003D14FF00000019002E0C5F192
:102F200000050190AE4201DD344600E02C46601CF5
:102F30004FF0000903901CE00098524681B20298BD
:102F40000F9B80B2FFF764FFB0442F44A04505DD1E
:102F50000299A8EB040801EB0B000290A74204DDE4
:102F6000DDE9000108443F1B009009F101001FFA50
:102F700080F903998945DFDDBDE8FF9FFEF716F86C
:102F8000FFF7C6FBFFF740FAFFF720FBFFF7E6F974
:102F9000FFF7C2F9FFF7C4FA00F012F8FFF714FACE
:102FA00000F020F8FEE710B5EFF3058111B16FF0E6
:102FB000050403E0002408B100F0F8FD204610BD30
:102FC000EFF3058010B16FF0050070470448016809
:102FD00011B14FF0FF3070470121016000207047B0
:102FE0008000002010B5EFF3058010B16FF00500F0
:102FF00010BD08480168012902D04FF0FF3010BD14
:10300000054A002182F8141D0221016000F036FEFD
:10301000002010BD800000200BE000E02DE9FF4102
:103020004FEA01034FF00005EFF30581039549BB1B
:1030300040B38027182100244AB3166806B13446ED
:1030400096691EB13146761E382E02D21679F607E1
:1030500003D0002004B0BDE8F081566906B1B7087E
:10306000D2F808C0BCF1000F0DD0D5685C2D18D384
:1030700012693AB136B18DE806103A46214601F0A0
:1030800096F903900DE0D6685EB912694AB903AAB1
:10309000CDE90012BAB2214601F05CF9012800D056
:1030A00003950398D6E700002DE9F041134C0F4635
:1030B0000546E6682068001D00F044FC681C07D146
:1030C00037B12168BDE8F0410D48091D00F08ABC08
:1030D00020683544B5424560216805D2A06BBDE843
:1030E000F041091D00F066BC606B091D00F062FC38
:1030F000A06A854200D2A562BDE8F08130000020C0
:10310000880700202DE9F041054600F077FC2D4CA2
:10311000A068401CA06020682B4F10B1606930B3DC
:103120002BE02560A068012827D1002606EB860049
:1031300007EB800000F030FC761C382EF6D32348D5
:1031400000F02AFC2148143000F026FC1F482830EB
:1031500000F022FC1D483C3000F01EFC1B485030A3
:1031600000F01AFC194860631430A06305E0206881
:10317000E96AC06A884200D82560606A401C6062C3
:103180006864E86A2169884200D9206100EB800008
:1031900007EB8000291D00F025FC00F04FFC606962
:1031A00000280CD02068E96AC06A884207D2084922
:1031B0004FF080500860BFF34F8FBFF36F8FBDE8B3
:1031C000F081000030000020D802002038070020E5
:1031D00004ED00E038B500F011FC104C2068C8B9CF
:1031E0000F4800F0D9FB0E48143000F0D5FB0C4816
:1031F000E060143020610A4B0020F03B009003F1A6
:10320000500210210A2000F047FE206010B105A1F5
:1032100000F096FCBDE8384000F010BC6C000020C7
:103220008C080020546D72510000000030B4026C14
:103230000B46002A0BD0C1681144C1608468A142CA
:1032400001D30168C16030BC1846FDF75EB830BCE0
:1032500070472DE9F041856B174604460026026C45
:1032600082B1C7B1E068FDF750F8E168206C091A37
:10327000E1602268914202D2A168081AE060022F40
:1032800016D017E02068A8B9A06801F033F9064607
:103290000020A0600EE06068FDF737F8216C6068E0
:1032A00008446060A168884204D32068606001E03F
:1032B00005B16D1E6D1CA5633046BDE8F08110B5EB
:1032C000044690F8590058B101280CD002280FD0BC
:1032D000502080F31188BFF34F8FBFF36F8FFEE74D
:1032E000206B00F0BFFB2046BDE8104000F0BABBE9
:1032F00010BD000010484FF47051420706D0C01DA9
:103300000D4920F00700411AC1F570510B4A002306
:103310000144C2E900030839183A21F0070111609D
:103320004B600B600B1AC0E9001393604FF0004034
:1033300053605061704700006C0F00209C0000201B
:10334000144E154CA6F29C474FF08058DFF84C9075
:1033500012E000BF00F052FBF068C568281D00F0C5
:10336000F1FAA068401EA0606068401E606000F036
:1033700065FB2846FFF7A3FF60680028EAD138689C
:103380000128F9D9C9F80080BFF34F8FBFF36F8FC1
:10339000F2E70000740700203000002004ED00E098
:1033A00070B51D46049C51B1C4F80020C4E90F015A
:1033B0000121204600F0A4FD84F84C5070BD24602B
:1033C000F4E700002DE9F05F8846DDE90B9415462F
:1033D000834691009A460A9EA522206BFCF7A7FF20
:1033E0006FF00301206B01EB8501084420F0070713
:1033F000780707D0502080F31188BFF34F8FBFF3B9
:103400006F8FFEE70025B8F1000F0FD05FF00000CE
:10341000221818F8001082F8341018F8001011B1B2
:10342000401C1028F4D384F8435001E084F8345051
:10343000382E00D33726E662C4E91365201D00F05C
:10344000B6FA04F1180000F0B2FA2461C6F13800AF
:103450006462A061656584F8585052465946384602
:1034600000F05AFA2060B9F1000F01D0C9F800400D
:10347000BDE8F09F30B5114900E011460A6882426C
:10348000FBD34B685C18844203D140681844486001
:10349000084643681C18944209D1084C183C24681B
:1034A000A24209D052681A4442600A681268026057
:1034B000814200D0086030BD0460F9E79C00002024
:1034C00070B5002441600B4D0061914206D8D11ABD
:1034D0008269914206D2011D286907E09A4203D20F
:1034E000994201D3012403E0011DE86800F062FA6B
:1034F000204670BD6C00002010B5044600F07EFA36
:10350000A06B28B15FF0000400F098FA204610BDCF
:103510000124F9E730B589B03C4D6EE004980028ED
:1035200006DADDE90601059A90470498002864DB75
:10353000069C606910B1201D00F004FA03A800F099
:10354000D7F8024604980A2857D2DFE800F00505AC
:10355000052D334A05052D3394F8280040F001006D
:1035600084F828000599A069059B01442046FFF7CF
:10357000A7FF68B3216A2046884794F828004007CF
:103580003BD5002000900598A169002342181946F8
:10359000204601F0B9F8D8B9502080F31188BFF364
:1035A0004F8FBFF36F8FFEE714F8280F20F0010054
:1035B000207022E094F8280040F0010084F82800F0
:1035C0000598A06128B1811813462046FFF778FFBF
:1035D00013E0502080F31188BFF34F8FBFF36F8F3C
:1035E000FEE794F82800810703D4204600F03AFA59
:1035F00003E020F0010084F82800002204A92868D4
:1036000000F0D2FD002889D109B030BD6C00002047
:103610002DE9FC410F46054600F074FB01A800F0BF
:1036200067F80446019818B100F0DCFFBDE8FC81A2
:10363000254EAFB130690068D0B30027291B3A4648
:10364000306800F091FA00F0CDFF0028EED11F495C
:103650004FF080500860BFF34F8FBFF36F8FE5E7E7
:10366000A542EBD800F0BEFFF0682746C068C468EA
:10367000201D00F067F994F82800410719D5A069CA
:103680002B4641193A462046FFF71AFFA8B1002001
:103690000346014600902A46204601F035F860B9FD
:1036A000502080F31188BFF34F8FBFF36F8FFEE779
:1036B00007E020F0010084F82800216A20468847AE
:1036C000B4E70127BAE700006C00002004ED00E039
:1036D0000648416B096829B1416BC968C9684968E6
:1036E000816270474FF0FF31FAE7000030000020A0
:1036F00070B5054600F094FE064E0446B06884425C
:1037000003D200F009F8012000E0002028602046E4
:10371000B46070BD6C000020F8B5194D20E0C068A1
:10372000C4680668201D00F00DF9216A204688470C
:1037300094F82800400713D5A0693044B04206D958
:1037400024616060211DE86800F034F908E0002081
:103750000346014600903246204600F0D5FF38B1BE
:10376000E86801680029DAD12969C5E90310F8BDC4
:10377000502080F31188BFF34F8FBFF36F8FFEE7A8
:103780006C00002008484068401C4FF0500080F357
:10379000118804D0BFF34F8FBFF36F8FFEE7BFF3E5
:1037A0004F8FBFF36F8FFEE7A4000020074CE06847
:1037B000016841B1C0680021D0F80000FFF728FF80
:1037C000FFF7A8FEF3E701210020F7E76C000020D7
:1037D0002DE9F041044600F011F994F9455004F147
:1037E000240609E0606A48B1304600F0C3FE08B123
:1037F00000F00AFA6D1E6DB2002DF3DC4FF0FF36BB
:1038000084F8456000F01AF900F0F8F894F9445093
:1038100004F1100709E0206948B1384600F0AAFE1B
:1038200008B100F0F1F96D1E6DB2002DF3DC84F8E3
:103830004460BDE8F04100F001B900002DE9F0411D
:103840000546002700F05EFA324E306808B9FFF7EF
:1038500051FD706905424ED1C5B3083568070ED0D9
:1038600005F00700C0F108000544680707D05020A4
:1038700080F31188BFF34F8FBFF36F8FFEE72DB337
:103880007068854237D82348183001460C6801E03B
:1038900020460C466168A94202D221680029F7D16E
:1038A00031688C4227D0076821680160606808375A
:1038B000411B10290FD96019420708D0502080F30E
:1038C0001188BFF34F8FBFF36F8FFEE713E04160A6
:1038D0006560FFF7CFFD61687068401A7060B2687C
:1038E000904200D2B060706901430020C4E9000139
:1038F000F068401CF06000F075FE780707D050209B
:1039000080F31188BFF34F8FBFF36F8FFEE7384608
:10391000BDE8F0818400002010B5031F4FF08074D3
:103920001C601B1F21F001011960191F044B0B6063
:1039300014390A60091F6FF0020244380A6010BD92
:1039400085370008D0E9013201699A60D0E9012386
:103950005A604A68824201D182684A60002202614C
:103960000868401E0860086870470000034B036049
:1039700003F15C000860802010607047B4080020EC
:10398000044B036003F15C0008604FF4807010602A
:1039900070470000100B002000F108014FF0FF32CB
:1039A000C0E90112C160016100210160704700217E
:1039B0000161704730B50B685A1C02D000F1080253
:1039C00002E0026904E02246546825689D42FAD963
:1039D00053684B6099608A60516008610168491CB6
:1039E000016030BD42684A6093688B60936859609B
:1039F000916008610168491C01607047502080F3A4
:103A00001188BFF34F8FBFF36F8F0A494868401C7E
:103A1000486001280CD10848006810F0FF0F07D05B
:103A2000502080F31188BFF34F8FBFF36F8FFEE7F5
:103A300070470000A400002004ED00E00849486839
:103A400028B1401E486001D180F311887047502092
:103A500080F31188BFF34F8FBFF36F8FFEE7000035
:103A6000A400002070B500282AD0164DA0F108044B
:103A700060686969084207D1502080F31188BFF35C
:103A80004F8FBFF36F8FFEE722683AB1502080F36B
:103A90001188BFF34F8FBFF36F8FFEE788436060DD
:103AA00000F030F960686968084468602046FFF7F4
:103AB000E1FC2869401C2861BDE8704000F092BD1F
:103AC00070BD0000840000204FF0E0200021016163
:103AD000816105494FF47A720968B1FBF2F1491E20
:103AE00041610721016170472C00002010B5FCF7EF
:103AF000C5FB114910280ED300F1E02090F8F00327
:103B00000A78904207D2502080F31188BFF34F8F7C
:103B1000BFF36F8FFEE709480068896800F4E06032
:103B2000884207D9502080F31188BFF34F8FBFF32D
:103B30006F8FFEE710BD0000A40000200CED00E038
:103B400010B5084B002200BF53F832401CB1521C84
:103B5000082AF9D310BD43F8321003EBC2014860C4
:103B600010BD00009802002070B515460E460446B0
:103B7000FFF744FF94F944100020491C01D184F858
:103B8000440094F94510491C01D184F84500FFF721
:103B900055FFA06B28B92A46314604F1240000F0F5
:103BA00051F82046BDE87040FFF712BE10B5020084
:103BB00014D00F48006B38B1502080F31188BFF348
:103BC0004F8FBFF36F8FFEE700F09CF80021104687
:103BD000FFF76AFA00F006FD002807D105494FF00B
:103BE00080500860BFF34F8FBFF36F8F10BD000090
:103BF0003000002004ED00E002490A6A0260C96852
:103C0000416070473000002001490120C8617047C1
:103C10003000002010B50C4650B109490968183130
:103C2000FFF7C8FE2046BDE810400121FFF73CBA6F
:103C3000502080F31188BFF34F8FBFF36F8FFEE7E3
:103C40003000002070B514460D4668B10A49096875
:103C50001831FFF7C7FE0CB14FF0FF35214628465B
:103C6000BDE87040FFF720BA502080F31188BFF301
:103C70004F8FBFF36F8FFEE73000002030B587B065
:103C80000024039405AA04A903A80494FFF76EFE78
:103C9000DDE903010094CDE90110002315A11748C7
:103CA000059A00F084FB164D0028E8621FD000F052
:103CB000FBFC012809D0401C19D1502080F3118849
:103CC000BFF34F8FBFF36F8FFEE7502080F3118853
:103CD000BFF34F8FBFF36F8F4FF0FF30A86201200B
:103CE0006861EC6007B0BDE8304000F045B807B04F
:103CF00030BD000049444C4500000000413300083D
:103D0000300000200248016B491C0163704700002D
:103D100030000020164810B5016B11B10121C161BE
:103D200010BD0021C1610169124A01E0B9B1491E0B
:103D300001EB810352F82330002BF7D001EB810314
:103D400002EB830202F1080453685B685360A342EC
:103D500001D15B685360DA680260016110BD5020D8
:103D600080F31188BFF34F8FBFF36F8FFEE7000022
:103D700030000020D80200201CB537480168374ABF
:103D8000914207D1502080F31188BFF34F8FBFF3CA
:103D90006F8FFEE700683149491E884207D15020E5
:103DA00080F31188BFF34F8FBFF36F8FFEE72C496D
:103DB00008780190FF20087008788DF800009DF8C1
:103DC00000009DF8002000F0F000904207D0502045
:103DD00080F31188BFF34F8FBFF36F8FFEE79DF81D
:103DE0000000204C00F0500020700720A06005E08B
:103DF0009DF8002052008DF80020401E9DF8002004
:103E00001206F5D4A060032807D0502080F3118853
:103E1000BFF34F8FBFF36F8FFEE74FF44070A0608A
:103E2000019808700C482030016841F4700101606D
:103E3000016841F070410160FFF746FE00206060BC
:103E4000FCF7E4F90848016841F040410160FCF7E3
:103E5000C9F900201CBD000000ED00E071C20F4157
:103E600000E400E0A400002034EF00E010B5502092
:103E700080F31188BFF34F8FBFF36F8F00F0D6FA36
:103E800018B104494FF080500860002080F3118879
:103E900010BD000004ED00E038B5049D18B153B129
:103EA000CAB181B120E0502080F31188BFF34F8F59
:103EB000BFF36F8FFEE7502080F31188BFF34F8F61
:103EC000BFF36F8FFEE7502080F31188BFF34F8F51
:103ED000BFF36F8FFEE739B1502080F31188BFF335
:103EE0004F8FBFF36F8FFEE750241C46012384F8E9
:103EF00046302B460094FFF753FA204638BD0000A9
:103F000070B50D46040025D0FFF778FDD4E90F20E9
:103F1000216802FB0011A1600021A163216861609A
:103F20000A46D4E90F01401E00FB0121E160214651
:103F30004FF0FF3001F8440F487004F110008DB1CC
:103F4000FFF72AFD04F12400FFF726FDFFF776FDB9
:103F5000012070BD502080F31188BFF34F8FBFF355
:103F60006F8FFEE721690029F0D000F003FB0028E5
:103F7000ECD004494FF080500860BFF34F8FBFF37F
:103F80006F8FE3E704ED00E02DE9FF4782B01D46A7
:103F90008A464FF00008040003D0BAF1000F08D0A1
:103FA00011E0502080F31188BFF34F8FBFF36F8F64
:103FB000FEE7206C38B1502080F31188BFF34F8F9B
:103FC000BFF36F8FFEE7022D0AD1E06B012807D007
:103FD000502080F31188BFF34F8FBFF36F8FFEE740
:103FE00000F010FA3F4F4FF000094FF0805648B9EB
:103FF000049838B1502080F31188BFF34F8FBFF37E
:104000006F8FFEE7FFF7FAFCA06BE16B884207D3E6
:10401000022D05D00498D0B1B8F1000F1AD01EE0DF
:104020002A4651462046FFF714F9616A19B104F196
:10403000240000F09FFA20B13E60BFF34F8FBFF322
:104040006F8FFFF7FBFC012006B0BDE8F087FFF79C
:10405000F5FC22E06846FFF7CFFD4FF00108FFF7BF
:10406000EDFCFFF74FFEFFF7C9FC94F94400401C3C
:1040700001D184F8449094F94500401C01D184F8A2
:104080004590FFF7DBFC04A9684600F029F930B140
:104090002046FFF79DFB00F0A5FA0020D4E7FFF7CC
:1040A000ADFCA06BE16B884213D1FFF7C7FC04F1B4
:1040B00010000499FFF7AEFD2046FFF789FB00F0E2
:1040C00091FA00289ED13E60BFF34F8FBFF36F8FF0
:1040D00098E7FFF7B3FC2046FFF77AFB00F082FA7F
:1040E00090E7000004ED00E02DE9F0471F46904600
:1040F0008946040003D0B9F1000F08D011E0502028
:1041000080F31188BFF34F8FBFF36F8FFEE7206CF2
:1041100038B1502080F31188BFF34F8FBFF36F8FFA
:10412000FEE7022F0AD1E06B012807D0502080F370
:104130001188BFF34F8FBFF36F8FFEE7FFF7D6FCF9
:104140005020EFF3118680F31188BFF34F8FBFF338
:104150006F8FA06BE16B884206D3022F04D0002042
:1041600086F31188BDE8F08794F94550A06B3A4674
:1041700049462046FFF76DF8681C04D06D1C84F892
:1041800045500120ECE7606A0028FAD004F12400D1
:1041900000F0F0F90028F4D0B8F1000FF1D00121BF
:1041A000C8F80010EDE700002DE9F747002683B0BE
:1041B0008A46040003D0BAF1000F08D011E0502065
:1041C00080F31188BFF34F8FBFF36F8FFEE7206C32
:1041D00038B1502080F31188BFF34F8FBFF36F8F3A
:1041E000FEE700F00FF9DFF8F4804FF000094FF020
:1041F000805748B9059838B1502080F31188BFF333
:104200004F8FBFF36F8FFEE7FFF7F8FBA56BC5B1CC
:1042100051462046FFF70AF86D1EA563206950B18C
:1042200004F1100000F0A6F928B1C8F80070BFF33F
:104230004F8FBFF36F8FFFF701FC012006B0BDE881
:10424000F087059808B11EB106E0FFF7F7FB27E0FD
:104250006846FFF7D1FC0126FFF7F0FBFFF752FDA0
:10426000FFF7CCFB94F94400401C01D184F8449042
:1042700094F94500401C01D184F84590FFF7DEFB1E
:1042800005A9684600F02CF8002820460AD0FFF760
:104290009FFA00F0A7F92046FFF72EF90028B3D0C7
:1042A0000020CBE7FFF728F990B104F1240005992D
:1042B000FFF7B0FC2046FFF78BFA00F093F90028D7
:1042C000A2D1C8F80070BFF34F8FBFF36F8F9BE789
:1042D0002046FFF77DFA00F085F995E704ED00E050
:1042E0002DE9F0410C46050011D0C4B1FFF786FB63
:1042F000174BDA686E682068911B471C17D02F682F
:104300001B6A9F4219D0964217D8012410E0502012
:1043100080F31188BFF34F8FBFF36F8FFEE75020FC
:1043200080F31188BFF34F8FBFF36F8FFEE7002438
:10433000FFF784FB2046BDE8F081884205D9401A8A
:1043400020602846FFF758FCF1E700202060DCE7FA
:10435000300000202DE9FF5F8346DDE90E87994696
:1043600016468A469000FFF769FA05001CD05C20CB
:10437000FFF764FA040014D00020256384F8590084
:10438000CDE90240CDE900874B46324651465846BA
:10439000FFF718F82046FEF7B5FE012004B0BDE88F
:1043A000F09F2846FFF75EFB4FF0FF30F6E7F0B5D1
:1043B00085B0DDE90B640A9DA6B1DCB15C270097EE
:1043C0002663022684F85960002604AFCDE9024630
:1043D000CDE90057FEF7F6FF2046FEF793FE04985E
:1043E00005B0F0BD502080F31188BFF34F8FBFF3AD
:1043F0006F8FFEE7502080F31188BFF34F8FBFF31C
:104400006F8FFEE70548416919B1006B18B10020B4
:1044100070470120704702207047000030000020E4
:104420000148C06870470000300000202DE9F041CD
:104430002E4C0027206B28B1A069401CA061384693
:10444000BDE8F081E668761CE66013D1606B006819
:1044500038B1502080F31188BFF34F8FBFF36F8FB7
:10446000FEE7606BA16B6163A063206A401C206261
:10447000FFF72EF9A06ADFF87880864209D3606BD7
:104480000068A0B1606BC068C5686868864211D2D8
:10449000A0622068C06A00EB800158F82100012862
:1044A00000D90127E0690028C9D00127C7E74FF0EC
:1044B000FF30EDE7281DFFF745FAA86A18B105F1AE
:1044C0001800FFF73FFAE86A2169884200D92061A5
:1044D00000EB800108EB8100291DFFF783FAE86AF1
:1044E0002168C96A8842CAD30127C8E73000002082
:1044F000D802002070B504004FF0000133D01B4DEE
:104500002868844207D0502080F31188BFF34F8F72
:10451000BFF36F8FFEE7206D38B1401E2065E36C5E
:10452000E26A9A421FD040B11DE0502080F311880A
:10453000BFF34F8FBFF36F8FFEE7201DFFF702FA27
:10454000E06CE062C0F13800A061E06A296988424D
:1045500000D92861064900EB800001EB8000211D95
:10456000FFF740FA0121084670BD0000300000202E
:10457000D802002070B5C068C46854B104F11800B6
:104580000646FFF7DFF9144D286B50B1314613484A
:1045900015E0502080F31188BFF34F8FBFF36F8F6A
:1045A000FEE7201DFFF7CEF9E06A2969884200D9AD
:1045B00028610B4900EB800001EB8000211DFFF713
:1045C00011FAE06A2968C96A884202D90120E861C3
:1045D00070BD002070BD000030000020600700208A
:1045E000D80200202DE9F0472C4D00242746286BE7
:1045F00038B1FFF703FA286B401E2863286B40B1DF
:1046000046E0502080F31188BFF34F8FBFF36F8FC8
:10461000FEE7A968224E0120D1B3A6F59169804634
:104620003068E0B1F068C46804F11800FFF78AF957
:10463000201DFFF787F9E06A2969884200D92861BF
:1046400000EB800109EB8100211DFFF7CBF9E06A47
:104650002968C96A8842E3D3C5F81C80E0E70CB139
:10466000FFF736F8AC694CB14FEA0806FFF7DEFEFB
:1046700000B1EE61641EF9D10020A861E86938B18B
:104680000849012738070860BFF34F8FBFF36F8FCA
:10469000FFF7D4F93846BDE8F0870000300000206D
:1046A0006007002004ED00E010B586B0FEF792FD33
:1046B000114C2068B8B100200390049005AA04A909
:1046C00003A8FFF75DF9DDE9032102208DE807006B
:1046D00000230AA10B48059AFFF769FE606010B13C
:1046E00006B0012010BD502080F31188BFF34F8F1A
:1046F000BFF36F8FFEE700006C000020546D722046
:1047000053766300AD3700082DE9FF411E4613467E
:1047100002000A9D4FF0000016D0144C2768002FAD
:104720000FD0CDE900130292062917DAFFF76AFECF
:1047300002284FF000030FD0002269462068FFF7DF
:1047400023FC04B0BDE8F081502080F31188BFF352
:104750004F8FBFF36F8FFEE72A46EEE70023324606
:1047600069463846FFF7C0FCEBE700006C0000200C
:104770005081588160816881708100F8E0071F00D6
:1047800040BCE0FF1FF8FF077C7D07FC3084000081
:10479000FC470008000000000000000000000000CE
:1047A00000000000000200001800000000000000EF
:1047B00000000000F04700080000000000000000BA
:1047C00000000000000000000002000008000000DF
:1047D00000000000000000000000000000000000D9
:1047E0000102030406070809000000000102030497
:1047F0006D795461736B303200000000646566614E
:10480000756C745461736B00284800080000002028
:10481000B4000000D02A0008DC480008B4000020E2
:10482000BC4E0000E02A000800000000580200040E
:104830000000000000000000000000000000000078
:104840000000000000000000010000001000000057
:10485000000000000024F400000000000000000040
:104860000000000000000000000000000000000048
:104870000000000000000000000000000000000038
:104880000000000000000000000000000000000028
:104890000000000000000000000000000000000018
:1048A0000000000000000000000000000000000008
:1048B00000000000000000000000000000000000F8
:1048C00000000000000000000000000000000000E8
:0C48D000AAAAAAAA000000000000000034
:04000005080001AD41
:00000001FF
