:020000040800F2
:10000000A8040020C50100082B120008C510000834
:1000100029120008FD020008FB150008000000007E
:10002000000000000000000000000000791300083C
:10003000FF020008000000002D1200087B130008DA
:10004000DF010008DF010008DF010008DF01000810
:10005000DF010008DF010008DF010008DF01000800
:10006000DF010008DF010008DF010008DF010008F0
:10007000DF010008DF010008DF010008DF010008E0
:10008000DF010008DF010008DF010008DF010008D0
:10009000DF010008DF010008DF010008DF010008C0
:1000A000DF010008DF010008DF010008DF010008B0
:1000B000DF010008DF010008DF010008DF010008A0
:1000C000DF010008DF010008DF010008DF01000890
:1000D000DF010008DF010008DF010008DF01000880
:1000E000DF010008DF010008DF010008DF01000870
:1000F000DF010008DF010008DF010008DF01000860
:10010000DF010008DF010008DF010008DF0100084F
:10011000DF010008DF010008DF010008DF0100083F
:10012000DF010008DF010008DF010008DF0100082F
:10013000DF010008DF010008DF010008DF0100081F
:10014000DF010008DF010008DF010008DF0100080F
:10015000DF010008DF010008DF010008DF010008FF
:10016000DF010008DF010008DF010008DF010008EF
:10017000DF010008DF010008DF01000800000000C7
:10018000DF010008DF010008DF010008DF010008CF
:10019000DF010008DF010008DF010008DF010008BF
:1001A000DF010008DF010008DF010008DFF810D0E0
:1001B00000F092F800480047C9170008AFF300802C
:1001C000A80400200648804706480047FEE7FEE7EF
:1001D000FEE7FEE7FEE7FEE7FEE7FEE7FEE7FEE7F7
:1001E0001D140008AD0100082DE9F05F0546002050
:1001F00092469B4688460646814640241BE0284698
:1002000041464746224600F057F853465A46C01A20
:10021000914110D311461846224600F03EF82D1A9F
:1002200067EB01084F4622460120002100F035F817
:1002300017EB00094E41201EA4F10104DFDC484603
:1002400031462A464346BDE8F09FD2B201E000F8AD
:10025000012B491EFBD270470022F6E710B513466A
:100260000A4604461946FFF7F0FF204610BD30B598
:100270000B46014600202022012409E021FA02F564
:100280009D4205D303FA02F5491B04FA02F52844FE
:10029000151EA2F10102F1DC30BD202A04DB203A58
:1002A00000FA02F1002070479140C2F1200320FAC9
:1002B00003F3194390407047202A04DB203A21FAC7
:1002C00002F00021704721FA02F3D040C2F120026F
:1002D0009140084319467047064C074D06E0E06818
:1002E00040F0010394E8070098471034AC42F6D37D
:1002F000FFF760FF5818000878180008FEE77047FD
:1003000072B6FEE7F0B5D1E907354C6A0A68C2B1AA
:1003100002682B4322F4F842144323430360D1E9DB
:1003200001231A43D1E9033423431A434B698969F2
:100330001A430A4341686FF30E010A4342600020EA
:10034000F0BDD1E901263243D1E903673E43324390
:100350004E69896932430A431A432A43016822439A
:100360006FF30E010A430260E9E7426943F6FE7348
:100370009A4342EA410141610020704770B514463A
:100380000546D1E9000210438A686FF01F03C9686F
:1003900003EB421242EA4121084329696FF3150138
:1003A0000843286100F0FEF9064609E0601C07D00A
:1003B00024B100F0F7F9801BA04201D9032070BDE1
:1003C000A8698006F2D4002070BD0000F0B56FF07F
:1003D0000F058C8A2E014FEA054ECB682F034FF094
:1003E0007F4C0EEB04540AB31A03A2F580528368C3
:1003F00022431D4C23401A438260D1E9002305EBC0
:100400000313521E1A438B6806EB03231A430B8A0D
:10041000097E07EB03431A430CEB01610A43C168F1
:1004200001F070410A43C2600020F0BDD1E9002E06
:1004300005EB0E15521E2A438D6806EB05252A434F
:100440000A4D05EB03331A430B8A097E07EB03437E
:100450001A4322430CEB01610A43816801F07041A9
:100460000A438260E0E70000FF0F0FFF00F0FFFF8C
:1004700070B5044600F096F90546601C02D00448A9
:100480000078044400F08EF9401BA042FAD370BDFE
:1004900008000020F0B587B014216846FFF7DCFEA5
:1004A00025480168002944D1012101602348002426
:1004B000016841F0010101600068022500F00100BF
:1004C00005904FF63F00CDE9000502AA03260C2750
:1004D00082E8D00069461A4800F03CF80D20CDE9CA
:1004E000000502AA694682E8D000164800F032F8FA
:1004F00048F23710CDE9000502AA694682E8D0002B
:10050000114800F027F84FF68370CDE9000502AAE4
:10051000694682E8D0000D4800F01CF84CF20370E8
:10052000CDE9000502AA694682E8D000084800F03B
:1005300011F807B0F0BD000000000020383802407C
:10054000001402400008024000180240001002405F
:10055000000C02402DE9F84FDFF8F8A10022012439
:1005600003254FF00F090AF1040BAAF1040E00BF96
:100570000B6804FA02F63340B34270D10F7907F0EA
:100580000307012F01D0022F16D187684FEA4208D6
:1005900005FA08FC27EA0C07D1F80CC00CFA08FC95
:1005A0004CEA070CC0F808C04768B7430E79C6F399
:1005B000001696403E4346600E79F643B6070AD0D1
:1005C000C7684FEA420C05FA0CF6B7438E6806FA84
:1005D0000CF63E43C6600E7906F00306022E10D1DB
:1005E000D60800EB8608D8F8206057074FEAD76C8A
:1005F00009FA0CF7BE430F6907FA0CF73743C8F83E
:10060000207006684FEA420C05FA0CF7BE430F79DA
:1006100007F0030707FA0CF7374307604E6816F434
:10062000403F1CD04C4E376847F4804737603668EF
:1006300022F0030706F480460096484E07EB060CAE
:10064000DCF8086897073F0F09FA07F826EA08065A
:10065000DFF80C81404503D14FF0000841E072E023
:10066000DFF80081404502D14FF0010839E0DFF8A2
:10067000F880404502D14FF0020832E0DFF8EC800C
:10068000404502D14FF003082BE0DFF8E4804045FD
:1006900002D14FF0040824E0DFF8D880404502D1B1
:1006A0004FF005081DE0DFF8D080404502D14FF043
:1006B000060816E0DFF8C480404502D14FF0070875
:1006C0000FE0DFF8BC80404502D14FF0080808E099
:1006D000DFF8B080404502D14FF0090801E04FF04B
:1006E0000A0808FA07F848EA0608CCF80888DAF891
:1006F00000605746D1F804C09E435FEACC2C00D579
:100700001E433E60DBF800605F46D1F804C09E43A4
:100710005FEA8C2C00D51E433E60DEF80060774611
:10072000D1F804C09E435FEA8C3C00D51E433E6076
:10073000084F083F3E68D1F804C09E435FEACC3CB6
:1007400000D51E433E60521C102AFFF411AFBDE8D5
:10075000F88F0000083C014044380240003001405E
:10076000000002400004024000080240000C024069
:10077000001002400014024000180240001C024019
:100780000020024000240240426921EA02030A409C
:1007900043EA0241816170470AB1816170470904EF
:1007A000FBE7000001488068704700000800002057
:1007B0000248816802781144816070470800002077
:1007C0000B4810B5016841F400710160016841F403
:1007D00080610160016841F480710160032000F0D4
:1007E00061F80F2000F006F800F024F8002010BD9A
:1007F000003C024070B50D4D04464FF47A712878E4
:10080000B1FBF0F00A490968B1FBF0F000F08EFB93
:1008100048B9102C07D200222146501E00F022F8C1
:1008200000206C6070BD012070BD00000800002039
:10083000140000200A4808B5016841F480410160B5
:10084000006800F4804000900548001F016841F0F6
:1008500080510160006800F08050009008BD0000E9
:1008600044380240F0B40E4B1B680C46C3F302231D
:10087000C3F10705042D00D90425191D072901D24C
:10088000002300E0DB1E012606FA05F1491E214087
:1008900099409E40761E16403143F0BC00F0BEBE2B
:1008A0000CED00E0064900F0070208684FF6FF0370
:1008B000184040EA0220034A1043086070470000D5
:1008C0000CED00E00000FA052DE9F8431748016837
:1008D00041F0805101600068154F00F08050012602
:1008E00000903E64FFF75EFF05464FF47A78114CA6
:1008F00005E000BFFFF756FF401B40450DD860687C
:10090000C003F7D57E64FFF74DFF0546464607E076
:10091000FFF748FF401BB04202D90320BDE8F8832F
:1009200060688003F4D50020F8E7000040380240FA
:1009300000000E42007000402DE9F0470E46050011
:1009400065D0DFF81481D8F80000F7B200F00F008E
:10095000B04207D288F80070D8F8000000F00F000D
:10096000B04254D128683D4C810712D5400703D5C9
:10097000206840F4E05020602878000703D5206804
:1009800040F4604020602068A96820F0F00008432F
:1009900020602878C0072DD03049686808390128C0
:1009A00012D0022813D0032811D009688907002922
:1009B0002DDA216821F0030101432160FFF7F2FEE7
:1009C000814641F2883A0EE009688903EFE7096839
:1009D0008901ECE7FFF7E6FEA0EB0901514502D9DA
:1009E0000320BDE8F0872068696800F00C00B0EBD8
:1009F000810FEFD1D8F80010404601F00F01B1424D
:100A000007D90770006800F00F00B04201D0012044
:100A1000E7E72878400705D52068E96820F4E0502A
:100A2000084320602878000706D52068296920F44B
:100A3000604040EAC100206000F038F82168084AB0
:100A4000C1F30311515CC8400649086006480068BC
:100A5000FFF7D0FE0020C4E7003C02400838024007
:100A600040180008140000200C000020044805492C
:100A700000680968044AC1F38221515CC84070478C
:100A800014000020083802405018000804480549A6
:100A900000680968044AC1F34231515CC84070479C
:100AA000140000200838024050180008154810B5FE
:100AB000006810F00C02144813D01449042A0FD017
:100AC000082A0ED10F4C241F2268236802F03F022F
:100AD0005B0207D52068C0F38810A0FB010106E087
:100AE000084610BD2168C1F38811A1FB0001002355
:100AF000FFF77AFB2168C1F30141491C4900B0FBB3
:100B0000F1F010BD083802400024F40040787D0167
:100B10002DE9F84F04006ED02078DFF84C93C00721
:100B2000A9F104054AD009F104000168C1F381016B
:100B3000012908D00068C0F3810002280AD1D9F841
:100B40000000400206D52868800337D56068002879
:100B5000E1D033E06068B0F5803F10D0B0F5A02F51
:100B6000286810D020F480302860286820F4802085
:100B700028606068A8B1FFF715FE06460DE02868FA
:100B800040F48030F4E740F480202860F7E700BFAD
:100B9000FFF708FE801B642873D828688003F7D508
:100BA0000CE0FFF7FFFD064605E000BFFFF7FAFD8A
:100BB000801B6428F0D828688003F7D42078DFF8F9
:100BC000AC8280074FF0000A3ED5A748001D01689F
:100BD00011F00C0F08D00068C0F3810002280BD17F
:100BE000D9F80000400207D42868800716D5E068CD
:100BF000012800D112E033E1E068B8B10120C8F863
:100C00000000FFF7CFFD064605E000BFFFF7CAFD75
:100C1000801B0228C0D828688007F7D5286821697A
:100C200020F0F80040EAC10028600DE0C8F800A0FC
:100C3000FFF7B8FD064604E0FFF7B4FD801B02286D
:100C40001FD828688007F7D42078000722D5864F60
:100C500087486169703771B101210160FFF7A2FD1A
:100C6000064604E0FFF79EFD801B022809D838687D
:100C70008007F7D50EE0C0F800A0FFF793FD064609
:100C800005E082E0FFF78EFD801B02287DD83868E2
:100C90008007F7D42078400768D5DFF8CCB100276B
:100CA0000BF13C0BDBF80000C0000BD4DBF80010AC
:100CB00041F08051CBF80010DBF80000012700F074
:100CC000805000906B4E3068C00510D4306840F4FE
:100CD00080703060FFF766FD009005E0FFF762FD71
:100CE0000099401A022850D83068C005F6D55E4EEB
:100CF000A0686C3601280FD00528306810D020F08D
:100D000001003060306820F004003060A068B8B1A5
:100D1000FFF748FD00900FE0306840F00100F4E775
:100D200040F004003060F7E7FFF73CFD0099411AFE
:100D300041F28830814266D830688007F4D50EE0F1
:100D4000FFF730FD009007E0FFF72CFD0099411AF6
:100D500041F28830814256D830688007F4D42FB1F0
:100D6000DBF8001021F08051CBF80010A069C8B367
:100D70003D49091D0968C1F3810102294AD00228B1
:100D8000504607D0C8F8600000E03CE0FFF70AFDDD
:100D900004463BE04746C8F86000FFF703FD0646FF
:100DA00005E000BFFFF7FEFC801B02282BD8286857
:100DB0008001F7D4D4E907010843A16A2E4A490803
:100DC00002EB0141626A41EA8211084394F82C1057
:100DD00040EA0161C9F8001001203866FFF7E2FC23
:100DE000044606E03EE000BFFFF7DCFC001B0228E3
:100DF00009D828688001F7D534E000BFFFF7D2FC9E
:100E0000001B022802D90320BDE8F88F2868800162
:100E1000F4D427E00128F7D0D9F80000E26900F403
:100E2000800191421CD1226A00F03F01914217D10A
:100E300047F6C071626A0140B1EB821F10D1A26A0D
:100E40004FF0FF3300F4403103EB5202B1EB024F9D
:100E500006D194F82C1000F07060B0EB016F01D057
:100E60000120D1E70020CFE70438024000004742CC
:100E7000800E4742007000400000FFFF70B50D4635
:100E8000040003D094F82C0010B107E0012070BDDD
:100E9000002084F82D00204600F011F8022084F88C
:100EA0002C00211D2068FFF72DFAD4E90002294605
:100EB000FFF78CFA012084F82C00002070BDFFF7AA
:100EC000E9BA10B5044690F82C00022804D094F832
:100ED0002C00012801D0012010BD022084F82C0034
:100EE0002068FFF742FA012084F82C00002010BD92
:100EF00070B5044690F82C000D46022804D0012855
:100F000003D0052801D0012070BD022084F82C00F8
:100F10002068FFF733FA2868022805D05FF0010047
:100F200084F82C00002070BD0520F9E710B5401EA4
:100F3000B0F1807F01D3012010BD4FF0E02460614B
:100F40000F21601700F06AFB0020A06107202061DC
:100F5000002010BD70B5040004D094F841000025B5
:100F600010B106E0012070BD84F84050204600F02A
:100F700023F8242084F841002068C16821F400513E
:100F8000C160204600F07AFA2068016921F490419E
:100F900001612068416921F02A0141612068C1682E
:100FA00041F40051C1606564202084F8410084F858
:100FB00042006563002070BD10B586B00446142160
:100FC0006846FFF749F914492068884221D113483F
:100FD0000021026842F010020260006800F0100078
:100FE00005900E481438026842F001020260006861
:100FF00000F0010005904FF4C06000900220CDE9A0
:101000000101032003900720049069460448FFF77C
:10101000A1FA06B010BD00000010014044380240A3
:10102000000002402DE9F843044690F8410098463C
:1010300016460D46202802D00220BDE8F88385B16F
:101040007EB100206064212084F84100FFF7AAFBF4
:10105000A6848146E684A0682027B0F5805F02D090
:1010600003E00120E9E7206910B12E4600250EE0DB
:1010700000260CE08021204600F086FAA8B9C6B10F
:1010800016F8010B21684860E08C401EE084E08C7B
:101090004B464FF00002CDF800800028EAD14FF017
:1010A0004001204600F070FA40B184F841700320FE
:1010B000C3E735F8020BC0F30800E3E784F841709A
:1010C0000020BAE7FEE7000000B587B01C216846A3
:1010D000FFF7C2F816481549012201600021C0E956
:1010E00001120822C26010220261402242614FF4C4
:1010F000C072C0E906214FF4006202625200C0E9EA
:1011000009210220072105228DE807000391032110
:10111000CDE90410069069460548FFF7AFFE0028A8
:1011200001D0FFF7EDF807B000BD0000400100A0BE
:101130002C00002030B587B014216846FFF78CF8EA
:1011400029480024016841F004010160016801F0B0
:1011500004010591016841F020010160016801F07E
:1011600020010591016841F080010160016801F0F2
:1011700080010591016841F002010160016801F000
:1011800002010591016841F040010160016801F030
:1011900040010591016841F010010160016801F012
:1011A00010010591016841F008010160016801F03A
:1011B00008010591016841F00101016000680B4DD3
:1011C00000F001000590002203212846FFF7E4FA11
:1011D000032000900120CDE90104694628460394CC
:1011E000FFF7B8F907B030BD3038024000040240C4
:1011F0000C4810B50A4901604FF4E131416000210B
:1012000081600C22C160C0E904128161C161FFF7F5
:10121000A1FE002803D0BDE81040FFF771B810BD53
:101220000010014060000020FEE7FEE7704700006C
:10123000024901F1100000F003B800001C0000207A
:101240002DE9F8430C460025012610270095C4E936
:101250000067C4E902654FF4805881464246FFF7B3
:1012600047FE052000F07AF80220C4E90007C4E92F
:101270000265424621464846FFF73AFE0320C4E98C
:1012800000070820C4E90205424621464846FFF708
:101290002FFE40F2312004210090C4E90017C4E978
:1012A0000260424621464846FFF722FE4846BDE816
:1012B000F84340F2F921FFF704BE000070B50024A6
:1012C000214620A000F09AF94FF080756000A0F14F
:1012D00080400480641CAC42F8D3214619A000F081
:1012E0008DF900204100A1F18041098882B28A4233
:1012F00003D015A000F082F91CE0401CA842F1D3F5
:10130000002421460FA000F079F94FF0007500BFCE
:10131000A4F180400470641CAC42F9D3214609A0BA
:1013200000F06CF95FF00000A0F180410978C2B2D2
:101330008A4201D0012070BD401CA842F4D3002095
:1013400070BD000025640A00534452414D2074656D
:101350007374206572726F720D0A000001B581B05E
:101360000449019848430090002801D0401EFAE744
:101370000CBD0000400D03007047FFF719BA0000D4
:1013800070B592B030216846FEF766FF14210CA8B4
:10139000FEF762FF1F480025016841F0805101609F
:1013A000006800F0805011901B48016841F44041F2
:1013B00001600068022400F4404011900120009078
:1013C000000401908001CDE906400F260896D82040
:1013D000CDE9090404200B906846FFF799FB08B19A
:1013E00072B6FEE7FFF770FA08B172B6FEE74FF487
:1013F000A050CDE90E504FF48050CDE90C64109010
:1014000005210CA8FFF798FA002801D072B6FEE774
:1014100012B070BD403802400070004002480168C0
:1014200041F470010160704788ED00E001680C3103
:1014300051E8002F22F4907241E80023002BF5D1EF
:101440000168143151E8002F22F0010241E8002325
:10145000002BF5D1016B012909D101680C3151E84C
:10146000002F22F0100241E80023002BF5D12021AB
:1014700080F84210002101637047000070B50446F7
:1014800000680169E26821F440511143016121695A
:10149000A068E26908436169114308432168CA688A
:1014A00049F20C639A430243CA6020684169A26909
:1014B00021F440711143416131492068884202D0D2
:1014C0003049884202D1FFF7E1FA01E0FFF7CEFA96
:1014D000E2690023192164253226B2F5004F6268C3
:1014E00028D0A0FB0101930F9200FEF77DFE01467C
:1014F000B0FBF5F06FF01802504301EB800006EBF3
:101500000010B0FBF5F000F0F002B1FBF5F002EBDB
:101510000012B1FBF5F06FF01803584301EB8000A7
:1015200006EB0010B0FBF5F000F00F00216810444E
:10153000886070BDA0FB010192185B41FEF754FE6C
:101540000146B0FBF5F00201B1FBF5F06FF01803B6
:10155000584301EB800006EBC000B0FBF5F000F053
:10156000F80002EB4002B1FBF5F0584301EB8000BC
:1015700006EBC000B0FBF5F000F00700D6E7000076
:1015800000100140001401402DE9F8439846174629
:101590000D460446089E24E0701C22D0FFF702F995
:1015A000A0EB0800B0421AD8CEB12068C168490744
:1015B00017D5802D15D0402D13D00168C9430907D8
:1015C0000FD401680025406800902046FFF72EFFE9
:1015D0000820606484F840500120BDE8F8830320AF
:1015E000FBE72068006835EA000004D00020B8421C
:1015F000D2D00020F1E70120F9E7FEE70FB4054B58
:1016000010B503A9044A029800F028F810BC5DF850
:1016100014FB0000B1170008180000200907090E8C
:10162000002804DB00F1E02080F80014704700F08F
:101630000F0000F1E02080F8141D704702E008C898
:10164000121F08C1002AFAD170477047002001E03C
:1016500001C1121F002AFBD1704700002DE9FF4F86
:1016600089B09B460446002506E025280BD05A4643
:101670000B999047641C6D1C20780028F5D10DB0A3
:101680002846BDE8F08F0027B8460122474900E010
:10169000074314F8013F203B02FA03F00842F7D158
:1016A00020782E2819D114F8010F47F004072A28B2
:1016B0000ED06FF02F022078A0F1300109290CD84C
:1016C00008EB880102EB410100EB0108641CF2E722
:1016D0000A98641C50F8048B0A9020780028CED019
:1016E000642808D0692806D075281ED05A460B9960
:1016F00090476D1C58E00A994FF00A0901C90A91F8
:10170000002802DA40422D2102E0390504D52B21C0
:101710008DF82010012103E0F90704D02021F7E71C
:101720008A4608AE0DE00021FAE70A994FF00A094F
:1017300001C90A91F7E74946FEF799FD303106F8ED
:10174000011D0028F7D1ADEB060000F12009780754
:1017500001D44FF00108C84502DDA8EB090000E004
:1017600000208046002706E008A85A46C05D0B9975
:1017700090476D1C7F1C5745F6DB04E030205A462D
:101780000B9990476D1CB8F10001A8F10108F5DC38
:1017900005E016F8010B5A460B9990476D1CB9F1FC
:1017A0000001A9F10109F4DC641C65E709280100C6
:1017B00013B54FF6FF73012269460248FFF732FC6A
:1017C00000981CBD60000020FEF7FAFFFFF7D8FD6F
:1017D000FFF7B0FCFFF70CFDFFF776FCFFF728FDE5
:1017E000FFF76CFD08B109A000E00DA0FFF706FFB0
:1017F000104C4FF4FA7503212046FEF7C5FF0EA0EA
:10180000FFF7FCFE2846FEF733FEF4E7534452414F
:101810004D2074657374206572726F720D0A00003A
:10182000534452414D2074657374204F4B21212144
:10183000210D0A0000040240746573740D0A000053
:101840000000000000000000010203040607080970
:1018500000000000010203047818000800000020C6
:101860001C0000003C160008941800081C00002012
:101870008C0400004C16000800000000000000006E
:101880000100000010000000000000000024F4002F
:041890000000000054
:04000005080001AD41
:00000001FF
