:020000040800F2
:10000000E0640020C5010008012D00083726000823
:10001000FD2C0008A1030008F532000800000000D4
:10002000000000000000000000000000D52D0008C6
:10003000ED05000800000000052D0008D72D000880
:10004000DF010008DF010008DF010008DF01000810
:10005000DF010008DF010008DF010008DF01000800
:10006000DF010008DF010008DF010008DF010008F0
:10007000DF010008DF010008DF010008DF010008E0
:10008000DF010008DF010008DF010008DF010008D0
:10009000DF010008DF010008DF010008DF010008C0
:1000A000DF010008DF010008DF010008DF010008B0
:1000B000DF010008DF010008DF010008DF010008A0
:1000C000DF010008DF010008DF010008DF01000890
:1000D000DF010008DF010008DF010008DF01000880
:1000E000DF010008DF010008DF010008DF01000870
:1000F000DF010008DF010008DF010008DF01000860
:10010000DF010008DF010008DF010008DF0100084F
:10011000DF010008DF010008DF010008A92E000848
:10012000DF010008DF010008DF010008DF0100082F
:10013000DF010008DF010008DF010008DF0100081F
:10014000DF010008DF010008DF010008DF0100080F
:10015000DF010008DF010008DF010008DF010008FF
:10016000DF010008DF010008DF010008DF010008EF
:10017000DF010008DF010008DF01000800000000C7
:10018000DF010008DF010008DF010008DF010008CF
:10019000DF010008DF010008DF010008DF010008BF
:1001A000DF010008DF010008DF010008DFF810D0E0
:1001B00000F0E4F80048004731120308AFF3008074
:1001C000E06400200648804706480047FEE7FEE757
:1001D000FEE7FEE7FEE7FEE7FEE7FEE7FEE7FEE7F7
:1001E000952E0008AD0100082DE9F05F05460020BE
:1001F00092469B4688460646814640241BE0284698
:1002000041464746224600F0A8F853465A46C01ACF
:10021000914110D311461846224600F08FF82D1A4E
:1002200067EB01084F4622460120002100F086F8C6
:1002300017EB00094E41201EA4F10104DFDC484603
:1002400031462A464346BDE8F09F2DE9F04100249F
:10025000061B254671F1000605DA01240027D0EBC4
:10026000070067EB0101161E73F1000605DA00278F
:10027000D2EB0702012567EB0303FFF7B5FF8646C4
:100280000E4617469C46AC4204D00025D0EB050E26
:1002900065EB010624B10020D2EB000760EB030CF4
:1002A000704631463A466346BDE8F08140EA0103B4
:1002B0009B0703D009E008C9121F08C0042AFAD21C
:1002C00003E011F8013B00F8013B521EF9D27047E0
:1002D000D2B201E000F8012B491EFBD27047002288
:1002E000F6E710B513460A4604461946FFF7F0FF35
:1002F000204610BD10B5002200E0521C835C8C5CCF
:10030000A34201D1002BF8D1D8B2E1B2401A10BDFE
:1003100030B50B46014600202022012409E021FAD5
:1003200002F59D4205D303FA02F5491B04FA02F5D2
:100330002844151EA2F10102F1DC30BD202A04DBA5
:10034000203A00FA02F1002070479140C2F12003E8
:1003500020FA03F3194390407047202A04DB203A27
:1003600021FA02F00021704721FA02F3D040C2F1D5
:10037000200291400843194670470000064C074D83
:1003800006E0E06840F0010394E807009847103465
:10039000AC42F6D3FFF70EFF682304088823040855
:1003A00000BFFEE710B5002208210F4800F038FE1C
:1003B000022008F0A9F9012240210C4800F030FE8B
:1003C000022008F0A1F900224021084800F028FE90
:1003D000022008F099F901220821034800F020FECC
:1003E000022008F091F910BD00200240001C0240DC
:1003F00010B501220821044800F012FE012240211C
:10040000024800F00DFE10BD00200240001C02401A
:1004100010B5012208210B4800F002FE022008F06E
:1004200073F901224021084800F0FAFD022008F08B
:100430006BF900224021044800F0F2FD022008F090
:1004400063F910BD00200240001C024070B5054653
:100450000026802416E0012240210F4800F0E0FD34
:10046000022008F051F908210C4800F0D1FD00B13C
:10047000264300224021084800F0D2FD022008F067
:1004800043F96410002CE6D115B9FFF7C1FF01E074
:10049000FFF788FF304670BD001C0240002002407C
:1004A00070B5054680241EE005EA040028B101224B
:1004B0000821114800F0B4FD04E0002208210E4894
:1004C00000F0AEFD022008F01FF9012240210B4888
:1004D00000F0A6FD022008F017F90022402107488D
:1004E00000F09EFD6410002CDED10122082102489C
:1004F00000F096FD70BD000000200240001C02408C
:1005000010B5012208210E4800F08AFD0122402189
:100510000C4800F085FD022008F0F6F800220821C2
:10052000074800F07DFD022008F0EEF8002240218F
:10053000044800F075FD022008F0E6F810BD000048
:1005400000200240001C024010B5002208210B4888
:1005500000F066FD022008F0D7F80122402108488B
:1005600000F05EFD022008F0CFF8012208210348C8
:1005700000F056FD022008F0C7F810BD0020024030
:10058000001C024070B500240025012208211548F6
:1005900000F046FD022008F0B7F801224021124881
:1005A00000F03EFD022008F0AFF80AE0601CC4B283
:1005B000FA2C03DDFFF7C8FF012508E0022008F050
:1005C000A3F80821074800F023FD0028EED100BF62
:1005D00000224021044800F023FD022008F094F896
:1005E000284670BD00200240001C0240704772B6D1
:1005F00000BFFEE702460868B0B9D1E9010318431D
:10060000CB6818430B6918434B6918438B6918432F
:10061000CB6918430B6A18434B6A184313686FF38E
:100620000E031843106019E0D1E9070318434B6A21
:100630001843136823F4F84318431060D1E9010309
:100640001843CB6818430B6918434B6918438B69EF
:10065000184353686FF30E0318435060002070472F
:100660000246506943F6FE73984340EA41005061E8
:10067000002070472DE9F04105460C46164600273C
:10068000D4E900010843A168491E40EA4110E1682D
:1006900040EA412029696FF315010843286100F001
:1006A000C5FC07460AE0701C40B126B100F0BEFC54
:1006B000C01BB04202D90320BDE8F081A86900F058
:1006C00020002028EFD00020F6E7000030B50346D8
:1006D000FAB90868401E4C68641E40EA0414886831
:1006E000401E44EA0024C868401E44EA0034088AD8
:1006F000401E44EA0044888A401E44EA0054087EB2
:10070000401E44EA00609C6804F0704420439860F6
:1007100022E0C868401E0403888A401E44EA005054
:100720009C680E4D2C40204398600868401E4C6821
:10073000641E40EA04148868401E44EA0024088AC3
:10074000401E44EA0044087E401E44EA0060DC6823
:1007500004F070442043D860002030BDFF0F0FFF2D
:1007600010B588B0012400BF00200090394800680F
:1007700040F08000374908600846006800F08000BB
:10078000009000BF00BF00BF002000900846006836
:1007900040F4807008600846006800F480700090A3
:1007A00000BF00BF80200190002002900120039034
:1007B0000320049001A9284800F022FB20020190A8
:1007C0000120029001A9254800F01AFBFFF710FE56
:1007D00000222102214800F023FC142007F088FFAA
:1007E000012211021D4800F01BFC322007F080FF9F
:1007F00000208DF81800042206A948F2401000F0ED
:100800005FF900208DF81C0006A915A002F074FD08
:1008100016480699016002208DF81800012206A9E9
:1008200048F2400000F081F9012206A948F2470091
:1008300000F046F90A2007F05BFF00208DF8180051
:10084000012206A948F2400000F06FF9002420467A
:1008500008B010BD30380240001C024000200240A9
:100860004354502049443A25730D0A0000000020EB
:10087000F1B582B00524002000900027864800785A
:10088000401C85490870084600780A2190FBF1F267
:1008900001FB120018B1804800780A287CDA7FA199
:1008A0007F48FFF727FDC0B9012202A948F24E1088
:1008B00000F006F99DF8080000F0800068B19DF88E
:1008C000080000F00F00A04207DC00200090012289
:1008D000694648F24E1000F028F99DF8080000F033
:1008E0000F00002858D09DF8080000F00F00A0422B
:1008F00052DC9DF8080000F00F01FF208840C5B2CF
:1009000068480688E84380B240F0C0006549088026
:1009100065480188601E644A22F810106348018807
:10092000601E624A22F81010042007F0E1FE002049
:10093000009050E09DF80010012088405949098836
:10094000084040B355A15648FFF7D4FC18BB58499E
:100950009DF8002031F81200042201A900F0B0F83F
:100960005448007800F00100B8B19DF804009DF8EB
:10097000051000EB01204C499DF8002021F81200E1
:100980009DF806009DF8071000EB012047499DF8EF
:10099000002021F8120019E052E09DF804009DF8B3
:1009A000051000EB012041499DF8002021F81200BC
:1009B0009DF806009DF8071000EB01203E490988CC
:1009C000081A39499DF8002021F812009DF800000E
:1009D000401CC0B200909DF80000A042AADB012795
:1009E0003148008834490988884205DC2F4800884E
:1009F00032490988884220DD9DF8080000F00F0088
:100A000001280BDD2848408827490880274840886E
:100A10002649088000202049087011E0601E224904
:100A200031F810000880601E204931F8100008805D
:100A3000802002901B48068002E0002016490870C2
:100A400016A11748FFF756FCE8B99DF8080000F01A
:100A50008F00802817D11348007800F0800030B153
:100A60001048008820F080000E4908800BE04FF607
:100A7000FF700D4908800D4908800A48007800F091
:100A8000E0000849088004480078F02802DD0A20C8
:100A9000014908703846FEBD0E0000203931310092
:100AA00000000020080000200401002018010020A0
:100AB0008AD60308050000200A0000200C00002050
:100AC0002DE9F04105460F461646FFF719FD28208F
:100AD000FFF7E6FCFFF756FD80462812FFF7E0FC23
:100AE000FFF750FD8046E8B2FFF7DAFCFFF74AFD5A
:100AF0008046FFF705FD2920FFF7D2FCFFF742FDF6
:100B0000804600240BE0711EA14201D0012100E0CB
:100B100000210846FFF79AFC3855601CC4B2B44265
:100B2000F1DBFFF711FDBDE8F0812DE9F04104464E
:100B30000E4617464FF00008FFF7E2FC2820FFF7AB
:100B4000AFFCFFF71FFD2012FFF7AAFCFFF71AFD0D
:100B5000E0B2FFF7A5FCFFF715FD00250BE0705D87
:100B6000FFF79EFCFFF70EFD8046B8F1000F00D0A6
:100B700003E0681CC5B2BD42F1DB00BFFFF7E4FC37
:100B80004046BDE8F081000070B502460C46506852
:100B9000B0F5403F02D0506800B100BF00BF92F8EE
:100BA0003800012801D1022070BD012082F83800F0
:100BB00000BF022082F8390002F1180000EB041196
:100BC0000E89486840EA0643214D48680A2802D049
:100BD0004868092804D1C86800F07F40034302E058
:100BE000087B43EA0063A4B91068406AA84318432D
:100BF0001668706208681668B06148680A2802D0F2
:100C00004868092819D1C86820F07F401668B0628A
:100C100013E01068C069A84318431668F0610868BB
:100C20001668306148680A2802D04868092804D14B
:100C3000C86820F07F4016683062012082F83900D1
:100C400000BF002082F8380000BF00BFACE7000002
:100C50000F0003FF10B504460CB9012010BD94F835
:100C6000390028B9002084F83800204600F022F826
:100C7000022084F839002068006820F44030616860
:100C80000843216808602068406B20F00700A168D5
:100C90000843216848632068006C6FF30D00E16829
:100CA0000843216808640020E063012084F83900CB
:100CB0000020D3E708B50A4A016891420FD100BF6E
:100CC000002100910749096841F40001054A1160BB
:100CD0001146096801F40001009100BF00BF08BD82
:100CE00000B002403038024070B5044600F09EF972
:100CF00006462546681C10B104480078054400BF2C
:100D000000F094F9801BA842FAD370BD20000020A7
:100D100000B587B0142102A8FFF7E1FA3148006856
:100D200008B107B000BD01202E49086000BF0020B7
:100D300001902D48006840F001002B4908600846EA
:100D4000006800F00100019000BF00BF4FF63F00B7
:100D500002900220039000200490032005900C20B4
:100D6000069002A9214800F04BF80D2002900220C5
:100D7000039000200490032005900C20069002A907
:100D80001B4800F03DF848F2371002900220039013
:100D900000200490032005900C20069002A915481D
:100DA00000F02EF84FF6837002900220039000208E
:100DB0000490032005900C20069002A90E4800F034
:100DC0001FF84CF203700290022003900020049060
:100DD000032005900C20069002A9084800F010F8A6
:100DE00000BF9EE710000020383802400014024087
:100DF000000802400018024000100240000C0240AF
:100E0000F8B502460B460025002400200021E0E052
:100E1000012606FA01F51E6806EA0504AC4274D103
:100E20001E7906F00306012E04D01E7906F0030693
:100E3000022E13D190684F000326BE40B0434F00EE
:100E4000DE68BE4030439060506801268E40B0435B
:100E50001E79C6F300168E40304350601E7906F0AE
:100E60000306032E09D0D0684F000326BE40B043CE
:100E70004F009E68BE403043D0601E7906F00306E6
:100E8000022E13D1CF0802F1200656F827004E0794
:100E9000F70E0F26BE40B0434F07FF0E1E69BE403F
:100EA0003043CF0802F1200646F8270010684F00B3
:100EB0000326BE40B0431E7906F003064F00BE4035
:100EC000304310605E6806F44036002E1DD000BF2F
:100ED00000260096414E366846F480463F4F3E60FD
:100EE0003E46366806F48046009600BF00BF3C4E82
:100EF0008F0856F827008E07370F0F26BE40B043E5
:100F0000384EB24202D100262EE061E0364EB242A7
:100F100001D1012628E0354EB24201D1022623E05C
:100F2000334EB24201D103261EE0324EB24201D10D
:100F3000042619E0304EB24201D1052614E02F4EAE
:100F4000B24201D106260FE02D4EB24201D1072652
:100F50000AE02C4EB24201D1082605E02A4EB242E8
:100F600001D1092600E00A268F073F0FBE4030431B
:100F70001B4E8F0846F82700244E3068A0435E6859
:100F800006F4801606B12043204E3060361D3068CE
:100F9000A0435E6806F4001606B120431B4E361DC2
:100FA00030601A4E361F3068A0435E6806F4003683
:100FB00006B12043154E361F3060361F3068A043FF
:100FC0005E6806F4803606B12043104E083E30605D
:100FD000491C1029FFF41CAFF8BD00004438024042
:100FE00008380140000002400004024000080240AE
:100FF000000C0240001002400014024000180240A1
:10100000001C02400020024000240240083C014035
:10101000024613690B400BB1012000E0002070472D
:101020000AB1816101E00B048361704701480068E7
:101030007047000018000020034800680349097841
:101040000844014908607047180000202000002073
:1010500010B50D48006840F400700B490860084660
:10106000006840F4806008600846006840F48070C2
:101070000860032000F0BAFA0F2000F007F800F033
:101080003FFA002010BD0000003C02402DE9F04175
:1010900088B004460027B84600BF002001902348CE
:1010A000006840F02000214908600846006800F010
:1010B0002000019000BF00BF02A903A800F034FD8A
:1010C000069F1FB900F058FD054602E000F054FDF0
:1010D00045001748B5FBF0F0A0F101081548164986
:1010E000086040F2E7311448C160C0F80480002174
:1010F00001618160816101F06EF8064696B90E4883
:1011000001F09EF806466EB9372000F01DFA102C4B
:1011100007D200222146372000F02AFA074804604F
:1011200000E00126304608B0BDE8F08140380240BA
:1011300040420F0000140040A00200201C000020CC
:1011400070B504460E46154600BF94F8A00001286D
:1011500001D1022070BD012084F8A00000BF022050
:1011600084F8A10005EB850101EBC50204F138010B
:1011700001EB820034223146FFF798F82A463146C7
:10118000204601F011FB01202168486284F8A1008B
:1011900000BF002084F8A00000BF00BFDAE7000015
:1011A00070B504460CB9012070BD94F8A10028B9AF
:1011B000002084F8A000204600F07EF8022084F889
:1011C000A1002068806920F0704021688861D4E91E
:1011D00001010843E16808432169084321688969DE
:1011E0000843216888612068806832490840216886
:1011F0008860A08A050420688068A16929430843A3
:10120000216888602068C0682A4908402168C86051
:10121000A08B05042068C068216A2943084321681F
:10122000C860206800692349084021680861A08CD3
:10123000050420680069A16A294308432168086100
:10124000206840691B49084021684861A08D050459
:1012500020684069216B294308432168486194F85C
:101260003500050294F8360006042068C06A00F0D4
:101270007F402168C86246EA050094F834100843AC
:101280002168C96A08432168C8622068406B40F041
:101290000600216848632068806940F001002168E9
:1012A00088610020C4F8A400012084F8A100002077
:1012B0007AE7000000F800F010B592B0044614215F
:1012C0000DA8FFF70CF8302101A8FFF708F85049E6
:1012D000206888427ED1082001906C200590022170
:1012E000079100200A9001A800F0DAF908B1FFF791
:1012F0007EF900BF002000904648006840F0806002
:10130000444908600846006800F08060009000BF13
:1013100000BF00BF002000903E481438006840F431
:1013200080703C49143908600846006800F48070F9
:10133000009000BF00BF00BF00200090084600687A
:1013400040F0200008600846006800F0200000908F
:1013500000BF00BF00BF002000900846006840F0BA
:10136000800008600846006800F08000009000BF20
:1013700000BF00BF002000900846006840F0400019
:1013800008600846006800F04000009000BF00BF01
:1013900040F2F7600D9002200E9000200F90022086
:1013A00010900E2011900DA91B48FFF729FD4FF456
:1013B00080600D9002200E9000200F90022010906F
:1013C0000E2011900DA91548FFF71AFD4FF47E402D
:1013D0000D9000E01AE002200E9000200F900220F5
:1013E00010900E2011900DA90D48FFF709FD4FF444
:1013F0000C600D9002200E9000200F9002201090A3
:101400000E2011900DA90748FFF7FAFC12B010BD8D
:1014100000680140443802400020024000140240AD
:10142000001C0240001802402DE9F04104460E461F
:101430001746984600BF94F8A000012802D1022068
:10144000BDE8F081012084F8A00000BF022084F8EC
:10145000A10008EB880000EBC80104F1380000EBA4
:1014600081052E60A86A30446860AF60E86A38443D
:10147000E86042462946204601F096F9012021689D
:10148000486284F8A10000BF002084F8A00000BFDB
:1014900000BFD5E72DE9F04104460E4617469846B1
:1014A00000BF94F8A000012802D10220BDE8F0811D
:1014B000012084F8A00000BF022084F8A10008EBFE
:1014C000880000EBC80104F1380000EB81052868B2
:1014D00030446860A8683844E860AE62EF62424613
:1014E0002946204601F060F901202168486284F80D
:1014F000A10000BF002084F8A00000BF00BFD5E716
:1015000008B500BF002000900E48006840F48040FD
:101510000C4908600846006800F48040009000BF55
:1015200000BF00BF00200090081F006840F08050FE
:10153000091F08600846006800F08050009000BF56
:1015400000BF08BD443802400146084600280DDBB4
:1015500000BF00BF00F01F0301229A4043099B0017
:1015600003F1E023C3F8002100BF00BF00BF7047B4
:101570002DE9F05F80460D461646002701F0CCFEAF
:10158000074639462A46334601F00700C0F1070AEC
:10159000BAF1040F02D94FF0040A01E0C0F1070AC2
:1015A000D14600F1040ABAF1070F02D24FF0000A47
:1015B00001E0A0F1030AD4464FF0010A0AFA09FA41
:1015C000AAF1010A0AEA020A0AFA0CFA4FF0010B20
:1015D0000BFA0CFBABF1010B0BEA030B4AEA0B0411
:1015E0002146404601F0A0FEBDE8F09F00BF00F09C
:1015F0000702064B19684FF6FF031940044B0B43D3
:1016000043EA0221014B196000BF70470CED00E076
:101610000000FA0538B5002400BF002000901D48E6
:10162000006840F080501B4908600846006800F0E0
:101630008050009000BF00BF012017490864FFF7E9
:10164000F5FC044607E0FFF7F1FC001BB0F57A7FDC
:1016500001D9032038BD1148406800F48030B0F54E
:10166000803FF0D101200C494864FFF7DFFC0446BD
:1016700007E0FFF7DBFC001BB0F57A7F01D9032000
:10168000E8E70648406800F40030B0F5003FF0D1CC
:101690000020DFE74038024000000E4200700040AA
:1016A000F8B5044600250026207800F0010048B96E
:1016B000207800F00200022804D0207800F04000DA
:1016C000402862D10020B1498866FFF7AFFC05468B
:1016D00006E0FFF7ABFC401B022801D90320F8BD50
:1016E000AB480068C0F3C0600028F2D1207800F059
:1016F000010038B160688101207A41EA0070A44994
:1017000084310860207800F00200022819D1A04836
:1017100084300068C0F3027660688101207B41EA72
:10172000006040EA06709A498431086098488C301D
:10173000006820F01F00E169491E084394498C317C
:101740000860207800F0400040280AD160688101DC
:10175000207B41EA0061207A41EA00708C498431A3
:101760000860012089498866FFF760FC054606E0AD
:10177000FFF75CFC401B022801D90320AFE7844837
:101780000068C0F3C0600028F2D0207800F00400A8
:10179000042804D0207800F00800082863D1002035
:1017A0007A490867FFF742FC054606E0FFF73EFC72
:1017B000401B022801D9032091E775480068C0F357
:1017C00040700028F2D1207800F00400042819D1DC
:1017D0006F4888300068C0F3027620698101207D5F
:1017E00041EA006040EA0670694988310860081DD6
:1017F000006820F4F851206A401E41EA0020644944
:101800008C310860207800F00800082817D1604863
:1018100088300068C0F303662069800140EA0661F1
:10182000207E41EA00705A4988310860081D00682E
:1018300020F44030616A084355498C31086001202A
:1018400052490867FFF7F2FB054606E0FFF7EEFB9B
:10185000401B022801D9032041E74D480068C0F32E
:1018600040700028F2D0207800F0200020287DD1A0
:1018700000BF0020009046484030006840F0805093
:101880004349403108600846006800F080500090ED
:1018900000BF00BF3F48006840F480703D490860C9
:1018A000FFF7C4FB054606E0FFF7C0FB401B02281C
:1018B00001D9032013E73748006800F4807000283E
:1018C000F2D033487030006800F440764EB3208D7B
:1018D00000F44070B04224D02D487030006820F4ED
:1018E000407601202C4908600020086028487030AC
:1018F0000660006800F0010098B1FFF797FB05460D
:1019000008E0FFF793FB401B41F28831884201D980
:101910000320E4E61E4870300068C0F34000002851
:10192000EFD000BF208D00F44070B0F5407F0CD1A7
:1019300017480830006820F4F810184AA16A1140CE
:10194000084313490831086007E01148083000686F
:1019500020F4F8100E49083108600D487030006816
:10196000218DC1F30B010843094900E002E0703109
:10197000086000BF207800F01000102803D194F810
:101980002C00074908600020A9E60000000047423B
:101990000038024000700040400E4742FFFCFF0F3D
:1019A000E011474270B504460D460CB9012070BDE8
:1019B0005848006800F00F00A84209D255490D7040
:1019C0000846006800F00F00A84201D00120EEE7B1
:1019D000207800F0020002281DD1207800F00400D9
:1019E000042805D14C48006840F4E0504A4908609A
:1019F000207800F00800082805D14748006840F426
:101A00006040454908604448006820F0F000A16843
:101A1000084341490860207800F00100A8B36068DD
:101A2000012807D13C4808380068C0F34040B8B9E5
:101A30000120BCE76068022802D06068032807D153
:101A4000354808380068C0F3406048B90120AEE767
:101A5000314808380068C0F3400008B90120A6E703
:101A60002D48006820F00300616808432A49086097
:101A7000FFF7DCFA064609E0FFF7D8FA801B41F2CF
:101A80008831884202D9032091E707E022480068A4
:101A900000F00C006168B0EB810FEDD11D480068CB
:101AA00000F00F00A84209D91A490D7008460068D5
:101AB00000F00F00A84201D0012078E7207800F064
:101AC0000400042807D11448006820F4E050E168BD
:101AD000084311490860207800F00800082808D160
:101AE0000D48006820F46040216940EAC1000A49BD
:101AF000086000F061F808490968C1F30311074A5A
:101B0000515CC8400649086006480068FFF7BEFA05
:101B100000204CE7003C024008380240A8D60308E9
:101B2000240000201C0000200F2202600D4A1268D1
:101B300002F0030242600B4A126802F0F002826077
:101B4000084A126802F4E052C260064A126802F4BF
:101B50006042D2080261044A126802F00F020A6071
:101B60007047000008380240003C0240014800680D
:101B7000704700002400002000B5FFF7F7FF04497C
:101B80000968C1F38221034A515CC84000BD0000CE
:101B900008380240B8D6030800B5FFF7E7FF04494C
:101BA0000968C1F34231034A515CC84000BD0000DE
:101BB00008380240B8D603082DE9F0470024002574
:101BC0000026A1462548006800F00C0020B104283A
:101BD00005D008283AD105E0DFF8849039E0DFF835
:101BE000849036E01D48001F006800F03F041B4849
:101BF000001F006800F4800078B11A481749091FD7
:101C00000968C1F38811A0FB017001462246002338
:101C10003846FEF7E9FA05460EE011480F49091F5C
:101C20000968C1F38811A0FB017001462246002318
:101C30003846FEF7D9FA05460848001F0068C0F389
:101C40000140401C4600B5FBF6F902E0DFF81090B9
:101C500000BF00BF4846BDE8F087000008380240DA
:101C60000024F40040787D01F8B504460CB9012049
:101C7000F8BD207800F00100002874D0F948006811
:101C800000F00C0004280DD0F648006800F00C00AD
:101C9000082813D1F348001F006800F48000B0F555
:101CA000800F0BD1EF4808380068C0F3404000288F
:101CB00059D06068002856D10120D9E700BF60687C
:101CC000B0F5803F08D1E7480838006840F480301C
:101CD000E449083908601EE06068B0F5A02F0DD116
:101CE000E0480838006840F48020DE490839086080
:101CF0000846006840F4803008600CE0D948083895
:101D0000006820F48030D749083908600846006828
:101D100020F48020086000BF606890B1FFF786F96A
:101D2000054606E0FFF782F9401B642801D903202D
:101D30009EE7CC4808380068C0F340400028F1D046
:101D400011E0FFF773F9054606E0FFF76FF9401B56
:101D5000642801D903208BE7C24808380068C0F323
:101D600040400028F1D1207800F0020002285FD125
:101D7000BC48006800F00C0058B1BA48006800F098
:101D80000C0008281CD1B748001F006800F4800030
:101D9000B0B9B44808380068C0F3400020B1E0682A
:101DA000012801D0012063E7AE480838006820F020
:101DB000F800216940EAC100AA490839086037E003
:101DC000E06800B30120A8490860FFF72FF9054635
:101DD00006E0FFF72BF9401B022801D9032047E753
:101DE000A04808380068C0F340000028F1D09D48A2
:101DF0000838006820F0F800216940EAC1009949DC
:101E00000839086014E0002097490860FFF70EF9D0
:101E1000054606E0FFF70AF9401B022801D9032016
:101E200026E7904808380068C0F340000028F1D148
:101E3000207800F0080008282CD16069A8B10120A2
:101E40008A490860FFF7F2F8054606E0FFF7EEF86A
:101E5000401B022801D903200AE782486C30006841
:101E6000C0F340000028F1D014E000207F49086052
:101E7000FFF7DCF8054606E0FFF7D8F8401B02281C
:101E800001D90320F4E677486C300068C0F34000C5
:101E90000028F1D1207800F00400042870D1002738
:101EA00070483830006800F0805090B900BF0020C2
:101EB00000906C483830006840F0805069493831F3
:101EC00008600846006800F08050009000BF00BF26
:101ED00001276748006800F48070B0B96448006862
:101EE00040F4807062490860FFF7A0F8054606E0FC
:101EF000FFF79CF8401B022801D90320B8E65C4894
:101F0000006800F480700028F2D000BFA0680128AB
:101F100008D154486830006840F0010051496831E8
:101F200008601DE0A06805280DD14E4868300068A3
:101F300040F004004B49683108600846006840F0F2
:101F4000010008600CE047486830006820F001009C
:101F50004449683108600846006820F004000860C1
:101F600000BFA068A8B1FFF761F8054609E0FFF7D8
:101F70005DF8401B41F28831884202D9032077E6A0
:101F800026E0384868300068C0F340000028EED0F2
:101F900013E0FFF74BF8054608E0FFF747F8401B52
:101FA00041F28831884201D9032061E62D4868302A
:101FB0000068C0F340000028EFD1012F07D1294865
:101FC0003830006820F0805026493831086000BF62
:101FD000A069002845D02348006800F00C000828BC
:101FE0005DD0A069022845D100201F490866FFF78F
:101FF0001DF8054606E0FFF719F8401B022801D935
:10200000032035E6174808380068C0F34060002810
:10201000F1D1D4E907010843616A40EA8111012244
:10202000A06AC2EB500041EA00412C20005D41EA69
:1020300000600C49091F086001200B490866FEF783
:10204000F5FF054606E0FEF7F1FF401B022801D927
:1020500003200DE6034808380068C0F340600028FC
:10206000F1D049E00838024000004742800E474264
:1020700000700040002021490866FEF7D7FF0546A2
:1020800006E0FEF7D3FF401B022801D90320EFE54D
:102090001B480068C0F340600028F2D12CE0A06922
:1020A000012800D1E4E51648001D0668A069012852
:1020B00020D006F48001E06981421BD106F03F0187
:1020C000206A814216D147F6C0703040616AB0EB99
:1020D000811F0FD106F440310122A06AC2EB5000EB
:1020E000B1EB004F06D106F070612C20005DB1EB22
:1020F000006F01D00120BBE50020B9E50000474298
:102100000038024070B504460D460CB9012070BD80
:1021100094F82C0028B9002084F82D00204600F007
:1021200011F8022084F82C00211D2068FEF762FAC5
:102130002946D4E90002FEF7C9FA012084F82C00F0
:102140000020E4E710B50446FEF7E2FD10BD70B5CF
:1021500004460D4694F82C00022800D170BD94F876
:102160002C0001280AD1022084F82C00294620687E
:10217000FEF776FA012084F82C0001E00120EDE75B
:102180000020EBE72DE9F04104460E46174694F88F
:102190002C50022D02D10220BDE8F081012D01D08A
:1021A000052D12D1022084F82C003A4631462068D1
:1021B000FEF760FA3068022803D1052084F82C006D
:1021C00005E0012084F82C0001E00120E4E7002074
:1021D000E2E77047704710B504460CB9012010BD06
:1021E00094F83D0028B9002084F83C00204600F017
:1021F00025F8022084F83D00211D206800F05CFED7
:10220000012084F8460000BF84F83E0001213F20F1
:102210000155402001554120015500BF00BF01205C
:1022200084F84200432001554420015545200155C2
:1022300000BF012084F83D000020D0E77047000077
:10224000014691F83D00012801D00120704702208D
:1022500081F83D000868C06840F001000B68D86054
:102260001A4B086898421BD00868B0F1804F17D00D
:10227000174B0868984213D0164B086898420FD045
:10228000154B086898420BD0144B0868984207D049
:10229000134B0868984203D0124B086898420CD13F
:1022A0000868806800F00702062A0CD008680068F9
:1022B00040F001000B68186005E00868006840F015
:1022C00001000B6818600020C0E70000000001401A
:1022D0000004004000080040000C004000040140E1
:1022E0000040014000180040704770B50446206867
:1022F000C5682068066906F00200022819D105F0B9
:102300000200022815D1401F2168086101202077B2
:102310002068806900F0030018B12046FFF7E4FF51
:1023200005E0204600F097F8204600F095F80020E0
:10233000207706F00400042819D105F004000428D1
:1023400015D1C04321680861022020772068806988
:1023500000F4407018B12046FFF7C6FF05E02046A4
:1023600000F079F8204600F077F80020207706F09A
:102370000800082819D105F00800082815D1C04325
:1023800021680861042020772068C06900F00300FC
:1023900018B12046FFF7A8FF05E0204600F05BF8E3
:1023A000204600F059F80020207706F01000102891
:1023B00019D105F01000102815D1C043216808611B
:1023C000082020772068C06900F4407018B12046CA
:1023D000FFF78AFF05E0204600F03DF8204600F0B8
:1023E0003BF80020207706F0010048B105F001001D
:1023F00030B16FF0010021680861204600F02EF82E
:1024000006F08000802809D105F08000802805D1E1
:10241000C043216808612046FFF7DBFE06F040005C
:10242000402809D105F04000402805D1C04321686B
:102430000861204600F020F806F02000202809D18D
:1024400005F02000202805D1C043216808612046FE
:10245000FFF7C0FE70BD70477047000010B504461E
:1024600004492068884204D1FEF7E6FD01202EF0E1
:1024700017F810BD00140040704710B504460CB9A1
:10248000012010BDA06900B100E000BF94F8410038
:1024900028B9002084F84000204600F029F82420C4
:1024A00084F841002068C06820F400502168C860AA
:1024B000204600F0C3FD2068006920F490402168A8
:1024C00008612068406920F02A002168486120687E
:1024D000C06840F400502168C8600020606420207B
:1024E00084F8410084F842000020606300BFC8E720
:1024F00010B586B00446142101A8FDF7F0FE1B4973
:102500002068884230D100BF002000901848006841
:1025100040F01000164908600846006800F01000FE
:10252000009000BF00BF00BF00200090104814388A
:10253000006840F001000E49143908600846006840
:1025400000F00100009000BF00BF4FF4C060019098
:1025500002200290002003900320049007200590A1
:1025600001A90448FEF74CFC06B010BD0010014064
:1025700044380240000002402DE9F84F04460E4660
:10258000174699464FF0000A94F84100202850D190
:1025900006B117B90120BDE8F88F00206064212042
:1025A00084F84100FEF742FD8246A784E784A068D4
:1025B000B0F5805F04D1206910B90025B04602E073
:1025C00035464FF000081EE0534600228021204689
:1025D000CDF8009000F048FE20B1202084F84100A2
:1025E0000320D8E745B9B8F80000C0F30800216817
:1025F000486008F1020803E02878216848606D1CF3
:10260000E08C401EE084E08C0028DDD1534600229F
:1026100040212046CDF8009000F026FE20B1202079
:1026200084F841000320B6E7202084F84100002010
:10263000B1E70220AFE700BFFEE710B5440004EBAE
:10264000C123A3F180431A8010BD18B5044640F29F
:10265000FF3340F2572200210846009400F002F8B0
:1026600018BD00002DE9F84F1C46DDF828C00027F2
:1026700003460D461646A046A6EB030B0BF1010BD5
:10268000CBF5806B1FFA8BF94FF4806B0BFB053B8E
:102690004FEA4B0BABF1804A00BFBB46CDF800B010
:1026A000DFF8B8B0DBF800B04BF4000BDFF8ACE0BB
:1026B000CEF800B0F346DBF800B00BF4000BCDF819
:1026C00000B000BF00BFDFF898B0DBF800B02BF01F
:1026D000010BDFF88CE0CEF800B04FF4403BCEF8B1
:1026E00000B04FF0020BCEF834B0F346CBF8409078
:1026F000CBF83CA0A8EB050B0BF1010BA6EB030EEE
:102700000EF1010E4BEA0E4BDFF854E0CEF844B068
:10271000F346CBF838C0DBF800B04BF0010BCEF835
:1027200000B004E07F1CB7F5001F00D308E0DFF81D
:1027300030B0DBF804B00BF0020BBBF1000FF1D0AE
:1027400000BFDFF81CB0DBF808B04BF0020BDFF87D
:1027500010E0CEF808B0BDE8F88F00003038024035
:1027600000B0024010B500231A4619460848FEF78B
:102770005BFE00234FF416724FF480610448FEF7AD
:1027800089FE00F007F84FF0FF30FFF75EFF10BD45
:10279000B001002010B5012220210248FEF740FCC4
:1027A00010BD000000040240F0B58E880768FF6885
:1027B000C7F30B473E44330406688436802707FB83
:1027C0000266766806F47047066884364FF0800C1F
:1027D0000CFB026677600E680768FF68C7F30B475B
:1027E0003E44761C1E43076884370CFB02777E60EC
:1027F0008E890768FF68C7F30A073E4433040668FA
:102800008436802707FB0266B66806F470470668C0
:1028100084360CFB0266B7608E680768FF68C7F3F2
:102820000A073E44761C46EA0307066884360CFB1A
:102830000266B76006688436802707FB0266366941
:1028400026F00707066884360CFB026637610F69BD
:10285000066884360CFB026637613126765C3302EB
:102860003226765C34040E7E350606688436802770
:1028700007FB0266B6690027066884360CFB026611
:10288000B76191F830601E43264346EA05070668A3
:1028900084360CFB0266B76106688436802707FB26
:1028A0000266766926F0FF07066884360CFB02662E
:1028B00077614F69066884360CFB026677610668AB
:1028C0008436802707FB0266F66940F20777BE432D
:1028D000076884370CFB0277FE61D1E9077637433E
:1028E000066884360CFB0266F7610668843680272A
:1028F00007FB0266B66A0027066884360CFB026690
:10290000B7624F6A066884360CFB0266B7620E69CE
:102910000EB9042313E00E69012E01D103230EE04A
:102920000E69042E08D00E69022E05D00E69032E02
:1029300002D00E69072E01D1022300E001230668B0
:102940008436802707FB0266F66A06F0E0270668F1
:1029500084364FF0800C0CFB0266F762D1E90076FA
:10296000F61B5E43F61C0F8D5F4346EA0747066879
:1029700084360CFB0266F76206688436802707FB04
:102980000266366BF70AFF02066884360CFB0266A5
:102990003763CF6A066884360CFB026637630668C5
:1029A0008436D701F65946F00107066884364FEAA7
:1029B000C21C46F80C70F0BD10B50E480E490860F8
:1029C0000020486002210C4881600021C1608162C2
:1029D0000221C162002101634163FEF73BF908B1A6
:1029E000FDF705FE01210448FEF7CEF808B1FDF71A
:1029F000FEFD10BD00B002402C01002000B587B0E4
:102A00001C216846FDF76BFC174818490860002038
:102A100048600121154881600821C16010210161D1
:102A2000402141614FF4C07181610021C1614FF4C7
:102A30000061016249004162002181620220009030
:102A400007200190052002900720039003200490A6
:102A500002200590069069460448FFF753FB08B131
:102A6000FDF7C5FD07B000BD400100A07C010020BE
:102A700000B587B0142102A8FDF731FC00BF00208B
:102A800001905C48006840F004005A49086008461C
:102A9000006800F00400019000BF00BF00BF0020EC
:102AA00001900846006840F480700860084600689D
:102AB00000F48070019000BF00BF00BF00200190B3
:102AC0000846006840F0200008600846006800F0F2
:102AD0002000019000BF00BF00BF00200190084609
:102AE000006840F0800008600846006800F0800040
:102AF000019000BF00BF00BF0020019008460068A1
:102B000040F0020008600846006800F002000190F2
:102B100000BF00BF00BF002001900846006840F0E1
:102B2000400008600846006800F04000019000BFC7
:102B300000BF00BF002001900846006840F0100070
:102B400008600846006800F01000019000BF00BF58
:102B500000BF002001900846006840F008000860AF
:102B60000846006800F00800019000BF00BF00BFE9
:102B7000002001900846006840F001000860084607
:102B8000006800F00100019000BF00BF0022232177
:102B90001948FEF745FA012240211848FEF740FA8D
:102BA000012208211648FEF73BFA2320029001205B
:102BB000039000200490059002A90F48FEF720F929
:102BC00040200290112003900120049002200590E3
:102BD00002A90A48FEF714F9082002901120039078
:102BE000012004900220059002A90548FEF708F98B
:102BF00007B000BD3038024000040240001C024013
:102C00000020024000B58DB034216846FDF767FB17
:102C10002A482B490860002048600021284881602C
:102C2000C160016113214161022181619F21C16164
:102C30001621016240F29F41416240F26E218162A1
:102C400040F23F51C16240F27A210163002180F8D5
:102C5000341080F8351080F83610FEF7A1FA08B16C
:102C6000FDF7C5FC002000904FF48060019000202B
:102C700002904FF41670039002200490FF200590FC
:102C8000002006904FF480600790052008904FF0D8
:102C90004040099000200A900B908DF830000021F0
:102CA0008DF831108DF83210002269460448FEF785
:102CB00047FA08B1FDF79BFC0DB000BD006801406C
:102CC000B001002010B50B480B4908604FF4E1300B
:102CD0004860002108488160C16001610C214161A8
:102CE00000218161C161FFF7C8FB08B1FDF77FFCDE
:102CF00010BD0000001001405802002000BFFEE798
:102D000000BFFEE77047000010B50249024800F01E
:102D100005F810BD6C0100207C01002038B5054687
:102D20000C460020009001202060102060600120EF
:102D3000A0600020E0604FF4805221462846FFF753
:102D400021FA052000F034F8022020601020606095
:102D50000120A0600020E0604FF480522146284608
:102D6000FFF710FA03202060102060600820A060A8
:102D70000020E0604FF4805221462846FFF702FA17
:102D800040F231200090042020601020606001207B
:102D9000A0600098E0604FF4805221462846FFF77B
:102DA000F1F940F2F9212846FFF7D1F938BD0000CA
:102DB00001B581B00020009005490198484300907A
:102DC00002E00098401E009000980028F9D10CBD48
:102DD000400D03007047704700B593B0302107A83D
:102DE000FDF77DFA142102A8FDF779FA00BF002053
:102DF00001902648006840F0805024490860084649
:102E0000006800F08050019000BF00BF00BF0020AC
:102E100001901F48006840F440401D490860084682
:102E2000006800F44040019000BF00BF01200790FF
:102E30000004089002200D9041050E910F210F9182
:102E4000D8211091022111910421129107A8FEF7B7
:102E50000BFF08B1FDF7CBFBFEF7DCFB08B1FDF77C
:102E6000C6FB0F20029002200390002004904FF434
:102E7000A05005904FF480500690052102A8FEF75F
:102E800091FD08B1FDF7B3FB13B000BD403802401F
:102E9000007000400348006840F470000149086079
:102EA0007047000088ED00E010B50248FFF71DFAFA
:102EB00010BD0000A002002010B502682D4B984202
:102EC0000ED0B0F1804F0BD02B4B984208D02B4B3B
:102ED000984205D02A4B984202D02A4B984203D1FF
:102EE00022F070024B681A43224B984220D0B0F176
:102EF000804F1DD0204B98421AD0204B984217D0BB
:102F00001F4B984214D01F4B984211D01E4B984231
:102F10000ED01E4B98420BD01D4B984208D01D4B33
:102F2000984205D01C4B984202D01C4B984203D1CA
:102F300022F44072CB681A4322F080034C6943EAC2
:102F4000040202608B68C3620B688362094B98427B
:102F500002D00C4B984201D10B69036301234361FA
:102F6000036903F001031BB1036923F0010303614B
:102F700010BD0000000001400004004000080040B7
:102F8000000C0040000401400040014000440140AA
:102F90000048014000180040001C00400020004094
:102FA00010B5FDF7DDFB0848007840F080000649C9
:102FB00008700648007800F00100097808430249CB
:102FC0000870002010BD0000050000200600002051
:102FD00000BF00BF02680C3252E8002F22F490714B
:102FE00002680C3242E80013002BF3D100BF00BF8F
:102FF00000BF0268143252E8002F22F0010102687B
:10300000143242E80013002BF3D100BF016B0129F9
:103010000ED100BF00BF02680C3252E8002F22F030
:10302000100102680C3242E80013002BF3D100BFFC
:10303000202180F842100021016370472DE9F84FEC
:1030400004462068006920F44050E1680843216884
:1030500008612169A068084361690843E169084380
:1030600000902068C06849F20C61884300990843C9
:103070002168C8602068406920F44070A169084355
:103080002168486176492068884203D075492068E4
:10309000884203D1FEF780FD814602E0FEF76CFD19
:1030A0008146E069B0F5004F6CD102206168A0FB59
:1030B000015003461920A9FB007001462A463846F4
:1030C000FDF792F86421B0FBF1F04FEA001A0220FC
:1030D0006168A0FB01510B461920A9FB00712A462B
:1030E0003846FDF781F8834602206168A0FB015055
:1030F00003461920A9FB00712A463846FDF774F8EB
:103100006421B0FBF1F000EBC00101EB0010ABEB70
:103110008000322101EBC0006421B0FBF1F000F02F
:10312000F8000AEB400A02206168A0FB0150034648
:103130001920A9FB007001462A463846FDF754F8CD
:10314000834602206168A0FB015003461920A9FBB9
:1031500000712A463846FDF747F86421B0FBF1F0CC
:1031600000EBC00101EB0010ABEB8000322101EB62
:10317000C0006421B0FBF1F000F00700504421686A
:1031800088606AE004206168A0FB015003461920B2
:10319000A9FB007001462A463846FDF725F882460D
:1031A00004206168A0FB015003461920A9FB0070B0
:1031B00001462A463846FDF717F86421B0FBF1F0C6
:1031C00000EBC00101EB0010AAEB8000322101EB03
:1031D00000106421B0FBF1F000F0F00A04206168F7
:1031E000A0FB017003461920A9FB00513A4628466E
:1031F000FCF7FAFF6421B0FBF1F00AEB001A04209F
:103200006168A0FB01510B461920A9FB00712A46F9
:103210003846FCF7E9FF834604206168A0FB0150B3
:1032200003461920A9FB007001462A463846FCF7E0
:10323000DBFF6421B0FBF1F000EBC00101EB0010FB
:10324000ABEB8000322101EB00106421B0FBF1F008
:1032500000F00F00504421688860BDE8F88F00003E
:1032600000100140001401402DE9F84304460D46CA
:1032700017469846089E31E0701C70B3FDF7D6FEE5
:10328000A0EB0800B04200D816B90320BDE8F883CF
:103290002068C06800F00400F8B1802D1ED0402DD9
:1032A0001CD020680068C0F3C000B0B100BF00208F
:1032B000009020680068009020684068009000BF7F
:1032C00000BF2046FFF784FE0820606400BF002096
:1032D00084F8400000BF0120D8E7FFE720680068BD
:1032E0002840A84201D1012000E00020B842C3D00C
:1032F0000020CBE700BFFEE70FB4054B10B503A9D4
:10330000044A029800F0E6F910BC5DF814FB0000D6
:103310000DD900080001002002480068C0F3022017
:10332000704700000CED00E010B5002804DB0A0730
:10333000130E054A135406E00A07140E034A00F060
:103340000F031B1FD45410BD00E400E018ED00E093
:1033500002E008C8121F08C1002AFAD1704770475E
:10336000002001E001C1121F002AFBD1704770B597
:103370000446002508E02168481C206008783038A1
:1033800005EB850100EB41052168087800F033F872
:103390000028F0D1284670BD2DE9F04180460F4647
:1033A00014461D4625B92146404616F005FE054641
:1033B00005FB07F6142C03D1680800FB076617E02D
:1033C000072C15DB0A2C13DC072C01D102200DE0A1
:1033D000082C01D1042009E0092C01D1102005E0BE
:1033E0000A2C02D14FF4807000E0002006EB80062A
:1033F0003046BDE8F0810146302903DB392901DC84
:10340000012070470020FCE72DE9FF4F85B083467F
:10341000DDE9158ADDE91349DDE91775129E05F02E
:103420000200F8B94FB105F0010030B1B9F1000F59
:1034300002D105F00C0000B17F1E03E030222046CF
:10344000641C3254544501D2202CF7D303E03022BF
:103450002046641C325405F0010018B1BC4201D270
:10346000202CF4D305F01000B0B305F4806050B9FF
:103470004CB1544501D0BC4205D1641E1CB1B8F119
:10348000100F00D1641EB8F1100F09D105F0200013
:1034900030B9202C04D278222046641C325415E026
:1034A000B8F1100F09D105F0200030B1202C04D262
:1034B00058222046641C325408E0B8F1020F05D1AE
:1034C000202C03D262222046641C3254202C03D2CA
:1034D00030222046641C3254202C16D2B9F1000F41
:1034E00004D02D222046641C32540EE005F0040066
:1034F00020B12B222046641C325406E005F008005F
:1035000018B120222046641C3254CDE90275CDE961
:103510000064584606A90EC900F0A2F809B0BDE83B
:10352000F08F2DE9FF4F8FB08046DDE91FABDDE95D
:103530001D96219D1C9C00270CB925F0100505F453
:10354000806000B1E4B100BFB4FBF6F106FB1141AD
:10355000C8B20A2802DA00F1300107E005F02001C4
:1035600009B1412100E0612101440A39CBB2394659
:103570007F1C07AA5354B4FBF6F40CB1202FE3D3FD
:1035800007A8CDE904AB8DE8810203960695404675
:1035900010A90EC9FFF738FF13B0BDE8F08F2DE971
:1035A000FF4F8FB0DDE9217BDDF89080209EDDE9C3
:1035B0001C454FF00009002184EA010069400843DE
:1035C00001D128F0100808F4806028B1002184EAB5
:1035D0000100694008432DD000BF32463B462046DB
:1035E0002946FCF701FE02F0FF0ABAF10A0F02DADF
:1035F0000AF1300007E008F0200008B1412000E0A7
:10360000612050440A38C2B2484609F1010907A9AD
:103610000A5432463B4620462946FCF7E5FD04465F
:103620000D46002184EA01006940084302D0B9F147
:10363000200FD2D32398CDE9036BCDE9050807A964
:103640001E98CDE9001902900FA80FC8FFF7DCFE05
:1036500013B0BDE8F08F9A4200D28854704770478B
:103660002DE9FF5F05461446DDE90EA6DDE910876A
:10367000A34607F0020078B907F0010060B9B1462F
:1036800007E02246641C2020039B0199A84709F10A
:103690000109C145F5D300BF08E02246641C711E34
:1036A0000E461AF80100039B0199A847002EF4D199
:1036B00007F0020050B105E02246641C2020039B65
:1036C0000199A847A4EB0B004045F5D3204604B070
:1036D000BDE8F09F2DE9FF4F8BB09A460F46054697
:1036E000002606E025280BD052460D9990476D1C08
:1036F000761C28780028F5D10FB03046BDE8F08F51
:103700000024A0460122604900E0044315F8013F6F
:10371000203B02FA03F00842F7D128782E2817D16F
:1037200015F8010F44F004042A280ED06FF02F0280
:103730002878A0F1300109290AD808EB880102EBAA
:10374000410100EB01086D1CF2E757F8048B6D1C7A
:10375000287869283ED006DC0028CDD063280BD01D
:10376000642804D136E0732810D075284BD0524617
:103770000D999047761C85E017F8040B8DF8000032
:1037800000208DF80100E946012003E057F8049B72
:103790004FF0FF3061074FF0000401D40AE0641CD1
:1037A00044450DDA8442FADB19F804100029F6D1F9
:1037B00006E0641C8442FCDB19F804100029F8D1EF
:1037C000264404E019F8010B52460D999047641EF7
:1037D000F8D257E001CF4FF00A0B002802DA40423E
:1037E0002D2102E0210504D52B218DF82410012183
:1037F00003E0E10705D02021F7E70DF1200908914A
:103800000CE00021F9E701CF4FF00A0BF9E7594628
:10381000FCF77EFD01F1300209F8012D0028F6D1F8
:10382000ADEB090000F1200B600701D44FF0010857
:10383000D84502DDA8EB0B0000E000208046002404
:1038400006E009A85246005D0D999047641C761C5D
:1038500008988442F5DB04E0302052460D999047E9
:10386000761CB8F10001A8F10108F5DC05E019F8B3
:10387000010B52460D999047761CBBF10001ABF14C
:10388000010BF4DC6D1C34E7092801002DE9F04739
:1038900004460D469046264600BF1EB900BF00BF35
:1038A00000BFFEE700BF00BF1DB900BF00BF00BFE3
:1038B000FEE700BF06B115B90020BDE8F08742461B
:1038C0002946304601F0CAF807460FB90020F4E750
:1038D0006168386913F06BFC81462846F16B8847B4
:1038E000E1680844E0604846E7E72DE9FF5F0746E6
:1038F0000E461546984632462946684611F06BFE3C
:1039000020B301986968411A0E9800FB017900986C
:103910002968401A8144009840443168A0EB010AAC
:10392000684611F045FE834600240CE01AF80410A6
:1039300019F804208818FF2801D9FF2100E001466A
:103940000AF80410641C5C45F0D300BFBDE8FF9F7B
:103950002DE9F04104460E46002774B13146204659
:1039600001F053F80546B5F5803F05D20C2D01D97D
:10397000284600E00C20074600BF3846BDE8F0812D
:103980002DE9F04F87B00646D6F804B0B06806902F
:1039900096F82180D6F80090F0680590D6F818A027
:1039A000F069049037697069039001A814F0A7FECC
:1039B00096F8220000287BD10FBBB8F1FD0F1EDB6B
:1039C000002518E0002409E009EB44010AEB44005B
:1039D000008801AA009014F045FB641C5C45F3DBF1
:1039E0004846059909F072F881465046049909F055
:1039F0006DF882466D1C06988542E3DBC2E04FBB42
:103A0000B8F1FD0F26DA002520E0002411E00AEBD2
:103A10004400008800909DF8010000FB08F00012AF
:103A20008DF8010009EB440101AA009814F01AFB7B
:103A3000641C5C45EBDB4846059909F047F8814674
:103A40005046049909F042F882466D1C069885425A
:103A5000DBDB97E06FB3B8F1FD0F2BDB002523E034
:103A6000002412E00AEB4400008800909DF8010059
:103A7000395D10FB01F000128DF8010009EB4401E3
:103A800001AA009814F0EEFA641C5C45EADB484693
:103A9000059909F01BF881465046049909F016F87B
:103AA0008246039807446D1C06988542D8DB69E07E
:103AB00031E0FFE7002F65D0B8F1FD0F62DA002595
:103AC00025E0002414E00AEB4400008800909DF8F3
:103AD0000100395D10FB01F000FB08F000148DF8C7
:103AE000010009EB440101AA009814F0BBFA641C20
:103AF0005C45E8DB4846059908F0E8FF81465046FA
:103B0000049908F0E3FF8246039807446D1C069869
:103B10008542D6DB36E0002531E000241FE00AEBC9
:103B20004400008800903FB99DF8010000FB08F0B8
:103B300000128DF8010009E09DF80100395D10FBCD
:103B400001F000FB08F000148DF8010096F8222027
:103B500009EB440001AB009902F056FB641C5C4584
:103B6000DDDB0FB1039807444846059908F0AEFF26
:103B700081465046049908F0A9FF82466D1C0698BC
:103B80008542CADB07B0BDE8F08F2DE9F04F8BB05E
:103B9000074678680A90B868099097F821A0D7F886
:103BA00000B0F8680890BE69F8690790D7F81080EF
:103BB0007869069097F8220000287ED1B8F1000FAE
:103BC00026D1BAF1FD0F23DB00251DE04FF00009DF
:103BD00000240BE006EB44035A780BEB890116F83E
:103BE000140014F0C6FB09F10109641C0A98844210
:103BF000F0DB5846089908F06CFF83463046079979
:103C000008F067FF06466D1C09988542DEDBE1E09F
:103C1000B8F1000F29D1BAF1FD0F26DA002520E016
:103C20004FF0000900240EE006EB44035B7803FB31
:103C30000AF31A120BEB890116F8140014F099FB21
:103C400009F10109641C0A988442EDDB5846089981
:103C500008F03FFF83463046079908F03AFF0646D2
:103C60006D1C09988542DBDBB4E0B8F1000F2FD062
:103C7000BAF1FD0F2CDB002526E04FF000090024EF
:103C800010E006EB44035B7818F804C013FB0CF358
:103C90001A120BEB890116F8140014F06AFB09F1F3
:103CA0000109641C0A988442EBDB5846089908F025
:103CB00010FF83463046079900E03CE008F009FF1A
:103CC0000646069880446D1C09988542D5DB81E044
:103CD000B8F1000F7ED0BAF1FD0F7BDA002526E0A7
:103CE0004FF00009002412E006EB44035B7818F85B
:103CF00004C013FB0CF303FB0AF31A140BEB89014A
:103D000016F8140014F035FB09F10109641C0A9837
:103D10008442E9DB5846089908F0DBFE83463046CA
:103D2000079908F0D6FE0646069880446D1C09984F
:103D30008542D5DB4EE001A814F0F3FC002545E0F8
:103D40004FF0000900242EE016F814008DF816003C
:103D500016F814008DF8150016F814008DF81400EC
:103D6000B8F1000F08D106EB4400407800FB0AF0E0
:103D700000128DF817000BE006EB4400407818F8AD
:103D8000091010FB01F000FB0AF000148DF8170079
:103D900097F822200BEB890001AB059902F08EFA0F
:103DA00009F10109641C0A988442CDDBB8F1000FC7
:103DB00001D0069880445846089908F08AFE834648
:103DC0003046079908F085FE06466D1C0998854225
:103DD000B6DB00BF0BB0BDE8F08F2DE9F04F87B028
:103DE0008046D8F804000690D8F80800059098F8A6
:103DF00021B0D8F800000490D8F80C000390D8F84F
:103E00001870D8F81C000290D8F810A0D8F8140048
:103E10000190D8F82400C11700EB5171C910A0EB34
:103E2000C10998F8220000287DD1BAF1000F3BD1DA
:103E3000BBF1FD0F38DB002632E00025002421E035
:103E400005EB0901049809F02EFEC0EB0020C0B27A
:103E5000009007EB44014A7817F81400694614F003
:103E6000ADFA9DF800007F2805DD05EB09010498F7
:103E700033F0A0FB04E005EB0901049804F094F989
:103E80006D1C641C06988442DADBDDE9031008F03F
:103E900023FE04903846029908F01EFE0746761C61
:103EA00005988642C9DB1BE1BAF1000F40D1BBF196
:103EB000FD0F3DDA002635E00025002424E005EB67
:103EC0000901049809F0EFFDC0EB0020C0B200909A
:103ED00007EB4401497801FB0BF10A1217F81400B3
:103EE000694614F06BFA9DF800007F2805DD05EBAC
:103EF0000901049833F05EFB04E005EB0901049826
:103F000004F052F96D1C641C06988442D7DBDDE98D
:103F1000031008F0E1FD04903846029908F0DCFD3A
:103F20000746761C00E091E005988642C4DBD7E0A6
:103F3000BAF1000F42D0BBF1FD0F3FDB002639E0A4
:103F40000025002426E005EB0901049809F0ABFDEB
:103F5000C0EB0020C0B2009007EB440149781AF88A
:103F6000043011FB03F10A1217F81400694614F02B
:103F700025FA9DF800007F2805DD05EB090104986E
:103F800033F018FB04E005EB0901049804F00CF988
:103F90006D1C641C06988442D5DBDDE9031008F033
:103FA0009BFD04903846029908F096FD074601985B
:103FB0008244761C05988642C2DB91E0BAF1000F7C
:103FC000B5D0BBF1FD0FB2DA00263BE0002500249E
:103FD00028E005EB0901049809F065FDC0EB00201D
:103FE000C0B2009007EB440149781AF8043011FB85
:103FF00003F101FB0BF10A1417F81400694614F0E1
:10400000DDF99DF800007F2805DD05EB0901049826
:1040100033F0D0FA04E005EB0901049804F0C4F889
:104020006D1C641C06988442D3DBDDE9031008F0A4
:1040300053FD04903846029908F04EFD074601985A
:104040008244761C05988642C0DB49E0002643E0A6
:10405000002500242DE017F814008DF8020017F851
:1040600014008DF8010017F814008DF80000BAF163
:10407000000F08D107EB4400407800FB0BF0001262
:104080008DF803000BE007EB440040781AF80410A9
:1040900010FB01F000FB0BF000148DF8030098F802
:1040A000223005EB0901009A049802F0D6F96D1C44
:1040B000641C06988442CEDBBAF1000F01D001984F
:1040C0008244DDE9031008F007FD049038460299A8
:1040D00008F002FD0746761C05988642B8DB00BF53
:1040E00007B0BDE8F08F2DE9F04F87B00646706845
:1040F0000690B068059096F821A0D6F800B0F06858
:104100000490B769F0690390D6F810807069029046
:1041100096F8220000287ED1B8F1000F26D1BAF11E
:10412000FD0F23DB00251DE04FF0000900240BE00C
:1041300007EB44035A780BEB090117F8140014F04D
:1041400050F909F10109641C06988442F0DB5846D5
:10415000049908F0C4FC83463846039908F0BFFC74
:1041600007466D1C05988542DEDBD2E0B8F1000FF2
:1041700029D1BAF1FD0F26DA002520E04FF0000921
:1041800000240EE007EB44035B7803FB0AF31A12EA
:104190000BEB090117F8140014F023F909F10109D8
:1041A000641C06988442EDDB5846049908F097FC9D
:1041B00083463846039908F092FC07466D1C059823
:1041C0008542DBDBA5E0B8F1000F2FD0BAF1FD0F7F
:1041D0002CDB002526E04FF00009002410E007EB5F
:1041E00044035B7818F804C013FB0CF31A120BEBB2
:1041F000090117F8140014F0F4F809F10109641C1E
:1042000006988442EBDB5846049908F068FC834624
:104210003846039900E03CE008F061FC074602984C
:1042200080446D1C05988542D5DB72E0B8F1000F23
:104230006FD0BAF1FD0F6CDA002526E04FF00009CF
:10424000002412E007EB44035B7818F804C013FB6A
:104250000CF303FB0AF31A140BEB090117F8140013
:1042600014F0BFF809F10109641C06988442E9DBE7
:104270005846049908F033FC83463846039908F001
:104280002EFC0746029880446D1C05988542D5DBBC
:104290003FE0002539E04FF00009002422E017F844
:1042A00014008DF8060017F814008DF8050017F8B3
:1042B00014008DF80400B8F1000F02D18DF807A0AA
:1042C00006E018F8090000FB0AF000128DF807005C
:1042D00096F822200BEB0900019902F020F909F170
:1042E0000109641C06988442D9DBB8F1000F01D0A3
:1042F000029880445846049908F0F1FB83463846FA
:10430000039908F0ECFB07466D1C05988542C2DB5B
:1043100000BF07B0BDE8F08F2DE9F14F88B00898D5
:1043200040680790089880680690089890F82100E7
:104330000590089806680898C06804900898D0F816
:1043400018A00898C06903900898D0F810B0089891
:1043500040690290089890F8220000287ED1BBF1B5
:10436000000F28D10598FD2825DB4FF000091EE03D
:10437000002400270CE00AEB47035A7836F81410A3
:104380001AF8170013F0A0FF26F81400641C7F1C15
:1043900007988442EFDB3046049908F0A3FB0646F9
:1043A0005046039908F09EFB824609F101090698E0
:1043B0008145DDDBF9E1BBF1000F2BD10598FD282C
:1043C00028DA4FF0000921E0002400270FE00AEB73
:1043D00047035B78059D6B431A1236F814101AF8E0
:1043E000170013F071FF26F81400641C7F1C079857
:1043F0008442ECDB3046049908F074FB06465046D4
:10440000039908F06FFB824609F10109069881457E
:10441000DADBCAE1BBF1000F31D00598FD282EDBB5
:104420004FF0000927E00024002711E00AEB4703C2
:104430005B781BF8045013FB05F31A1236F81410BE
:104440001AF8170013F040FF26F81400641C7F1CB4
:1044500007988442EADB3046049900E044E008F023
:1044600041FB06465046039908F03CFB8246029801
:10447000834409F1010906988145D4DB95E1BBF13C
:10448000000F97D00598FD2894DA4FF0000927E037
:104490000024002713E00AEB47035B781BF8045065
:1044A00013FB05F3059D6B431A1436F814101AF824
:1044B000170013F009FF26F81400641C7F1C0798EE
:1044C0008442E8DB3046049908F00CFB064650466F
:1044D000039908F007FB82460298834409F1010919
:1044E00006988145D4DB60E100200190814657E1C8
:1044F0003546002400273EE11AF817004FEAE0088D
:104500001AF8170080100090089890F822000128EF
:1045100006D002283DD0032878D004286FD198E037
:1045200035F8140008EBD0201F2804DA35F8140001
:1045300008EBD02000E01F204FF6FF7101EAC020F9
:10454000019035F81400C0F34511009808443F2845
:1045500006DA35F81400C0F345110098084400E06D
:104560003F20019901EB401080B2019015F8140032
:1045700000F01F0040441F2805DA15F8140000F071
:104580001F00404400E01F200199084480B20190C0
:10459000ACE035F81400C8EBD020002804DD35F875
:1045A0001400C8EBD02000E000204FF6FF7101EAB4
:1045B000C020019035F81400C0F345110098081A86
:1045C000002806DD35F81400C0F345110098081ADC
:1045D00000E00020019901EB401080B2019015F835
:1045E000140000F01F00A0EB0800002808DD15F8FB
:1045F000140000F01F00A0EB080002E006E070E0ED
:1046000000200199084480B201906FE035F8140051
:10461000C00A00FB08F040114FF6FF7101EAC0200C
:10462000019035F81400C0F34510009948438111FA
:10463000019800EB411080B2019015F8140000F0D1
:104640001F0000FB08F0019901EB601080B201909F
:104650004CE035F81400C8EBD020002804DD35F814
:104660001400C8EBD02003E035F81400A8EBD020EC
:104670004FF6FF7101EAC020019035F81400C0F335
:1046800045110098081A002806DD35F81400C0F31B
:1046900045110098081A05E035F81400C0F34511DB
:1046A0000098401A019901EB401080B2019015F872
:1046B000140000F01F00A0EB0800002806DD15F82C
:1046C000140000F01F00A0EB080005E015F814002E
:1046D00000F01F00A8EB00000199084480B201908F
:1046E00004E000BF00BF09B0BDE8F08F00BFBBF120
:1046F000000F0DD10598FD280ADB0AEB4700427830
:1047000036F81410019813F087FC26F8140030E0F6
:10471000BBF1000F10D10598FD280DDA0AEB470018
:104720004078059B5843021236F81410019813F094
:1047300073FC26F814001CE00598FD2809DB1BF823
:10474000042036F81410019813F066FC26F81400C3
:104750000FE01BF80400059B58430AEB47035B7806
:104760005843021436F81410019813F055FC26F83B
:104770001400641C3F1D07988442FFF6BDAE30460E
:10478000049908F0AFF906465046039908F0AAF9D3
:104790008246BBF1000F01D00298834409F1010960
:1047A00006988145FFF6A4AE00BF00BF9BE72DE948
:1047B000F34F87B0064670680690B068059096F88B
:1047C00021B0D6F800A0F0680490B769F0690390B2
:1047D000D6F810807069029096F8220000287ED1E9
:1047E000B8F1000F23D1BBF1FD0F20DB00251AE04B
:1047F0004FF0000900240BE007EB44035A780AEB62
:10480000090117F8140013F091FD08988144641C05
:1048100006988442F0DB049882443846039908F0F5
:1048200064F907466D1C05988542E1DBCBE0B8F1E1
:10483000000F26D1BBF1FD0F23DA00251DE04FF05C
:10484000000900240EE007EB44035B7803FB0BF345
:104850001A120AEB090117F8140013F067FD089803
:104860008144641C06988442EDDB049882443846F7
:10487000039908F03AF907466D1C05988542DEDB7E
:10488000A1E0B8F1000F2BD0BBF1FD0F28DB002514
:1048900021E04FF00009002410E007EB44035B78AF
:1048A00018F804C013FB0CF31A120AEB090117F8ED
:1048B000140013F03BFD08988144641C0698844260
:1048C000EBDB049882443846039908F00EF907465A
:1048D000029880446D1C05988542DADB73E02FE076
:1048E000B8F1000F6FD0BBF1FD0F6CDA002523E0AB
:1048F0004FF00009002412E007EB44035B7818F83E
:1049000004C013FB0CF303FB0BF31A140AEB0901AD
:1049100017F8140013F00AFD08988144641C0698E7
:104920008442E9DB049882443846039908F0DDF8B4
:104930000746029880446D1C05988542D8DB42E00A
:1049400000253DE04FF00009002429E017F814008D
:104950008DF804008DF805008DF80600B8F1000F01
:1049600008D107EB4400407800FB0BF000128DF8F3
:1049700007000BE007EB4400407818F8091010FB23
:1049800001F000FB0BF000148DF8070096F82220D0
:104990000AEB0900019901F002FE08988144641CA9
:1049A00006988442D2DBB8F1000F01D0029880440F
:1049B000049882443846039908F097F807466D1C1E
:1049C00005988542BEDB09B0BDE8F08F024600BF06
:1049D000481E084018B100BF00BF00BFFEE700BF7F
:1049E000481E1040101A704710B502464B1E134463
:1049F0004C1E23EA040000BF4B1E0B401BB100BF3E
:104A000000BF00BFFEE700BF10BD024600BF481E4A
:104A1000084018B100BF00BF00BFFEE700BF481E3E
:104A200010444B1E9843704770B5402020F000FBA7
:104A3000044600BF1CB900BF00BF00BFFEE700BFB7
:104A40001CB900BF00BF002070BD40252A460021D0
:104A5000204620F0F3FC00BF2046F5E72DE9FC4797
:104A600004460D46904600BF1CB900BF00BF00BF02
:104A7000FEE700BF00BF1DB900BF00BF00BFFEE7DB
:104A800000BF04B115B90020BDE8FC87294604F138
:104A9000240027F010FD0190019800B92FE0019843
:104AA00006693046616812F082FB074629463046A7
:104AB000626820F057FB04F1300020F0B6F9009056
:104AC000009800B913E0042201A9009820F04AFBE5
:104AD0002046019909F013FE81460422694620F020
:104AE00041FB21463846626812F084FB07E004F17E
:104AF0002400019927F075FC0020019000BF019867
:104B0000C2E700002DE9F04780460E4644460120EA
:104B1000E063002500270BE056F8270027A128F0C6
:104B200095FF08B16D1C02E0E06B401CE0637F1C48
:104B300056F8270020B156F8270000780028EBD15E
:104B4000A06BA84201D1BDE8F087206B20B1206B9B
:104B50001CF074FA00202063606B20B1606B1CF0C5
:104B60006DFA00206063280120F062FA206300BF24
:104B7000206B18B900BF00BF00BFFEE700BF680090
:104B800020F056FA606300BF606B18B900BF00BF29
:104B900000BFFEE700BF206B08B1606B00B90025C5
:104BA0004FEA450AD4F8349052460021484620F096
:104BB00045FC00BFA56300BFC5E700000A00000078
:104BC0002DE9F047074688469146F87A00F00F0035
:104BD00006280BD2DFE800F00A080304050600BF30
:104BE00000BF00BF454603E04D4601E0402500BF41
:104BF00000BF05EB4500C01C20F003000C30E91C91
:104C000021F0030100EB010A504620F011FA04469E
:104C100000BF1CB900BF00BF00BFFEE700BF14B952
:104C20000020BDE8F0872646344606F10C003060CF
:104C300005EB4500C01C20F0030106F10C00084400
:104C40007060A5602046ECE77CB505460C4605F192
:104C50001401204610F040FD08B901207CBD002061
:104C60008DF8000001946A461A21284626F03CFB84
:104C70009DF8000008B90020F0E70120EEE70000F1
:104C800010B5044694F85C00C0F3400038B9606C7D
:104C900028B1606C401C10B1606C401E6064606C98
:104CA000D0B9E06B20B194F85C00C0F3400098B13B
:104CB00021461E4820F074F900F03AF8206910B13E
:104CC000204621698847606910B12046616988479C
:104CD00020461CF0B3F928E00021D4E90C209042D2
:104CE00002DDD4E90C20811A206C081A6063E06BA5
:104CF000D0B194F85C20C2F3400212B9A26B5242C8
:104D0000626394F85C205208D24394F85C3062F3FA
:104D1000410384F85C30606AE26A6262E062206BA0
:104D2000E26B2263E06300BF00BF10BD945300201C
:104D300010B50120094981F8A40001F1AC0020F070
:104D400041F828B90549D1F8A8002BF027FD04E067
:104D50000249D1F8A8002BF03EFD10BDE85200201A
:104D60002DE9F04781466C4890F8A50008B901216B
:104D700000E00021684880F8A510AC3020F022F84F
:104D80000446C4E0206D2BF06BFB074694F85C00F2
:104D900000F0010040B3606D2BF062FB0546A06D92
:104DA000401C20B1A06DA84201D8012000E00020E5
:104DB0000646C6B1A16D681A94F85C1021F0010195
:104DC00084F85C10616B01446163534991F8A5104C
:104DD00009B9012100E0002194F85C2061F382020E
:104DE00084F85C2000BF02E0606B384460632BF005
:104DF00045FB20650020484981F8A40094F85C0038
:104E000000F00100002871D194F85C00C0F380012B
:104E1000414890F8A500814268D03F4890F8A5101D
:104E200014F85C0F61F38200207014F85C09C0F381
:104E3000C00030BB606B002823DB94F85C00C0F33B
:104E4000001060B9A06950B12046A16988470546A5
:104E5000606A28446062E06A2844E06200BF20463D
:104E60002EF0C8FCE06810B12046E168884794F84D
:104E70005C0020F00800083084F85C0020462EF02A
:104E800077FB606B002831DBD4F83480D4E90C1058
:104E9000884201DD206B6063666B2046216A88478B
:104EA0000546A16AA94210D0A562606818B12946DA
:104EB000D4E900029047184890F8A40028B9A068E7
:104EC00018B129462046A2689047134890F8A400DC
:104ED00058B9606BB04201D1C4F83480D4E90C10E9
:104EE000884202DB2046FFF7CBFE00BF0A4890F85D
:104EF000A40028B10848AC301FF064FF044605E068
:104F000021460548AC301FF075FF044600BF002C59
:104F10007FF438AFBDE8F087E85200202DE9F04F6C
:104F2000A7B00546EC6920682690002213A8A96E58
:104F30001CF0EAFE0E900E98012801D11E9858B977
:104F40000E98012802D113A81CF070FE00BF00BF0C
:104F5000012027B0BDE8F08F1E980088C0F307201D
:104F60000E280CD01E980088C0F30720062806D013
:104F700013A81CF05BFE00BF00BF0120E9E71E9EE6
:104F800030891FFA80FB05F158000FC80AAF0FC720
:104F900001217068C1EB10400090B08880B2431EC0
:104FA000002211460FA810F0C5FC0020034609227C
:104FB0000FA900900AA810F055F8D4E90313D4E91A
:104FC0000102CDE90C13CDE90A020AAA0FA906A82D
:104FD00010F001FB20B913A81CF028FE0020B8E750
:104FE000002002900390049005902068808880B291
:104FF000401E04900798401E0B99401A059002A984
:10500000206814F0DEFB0998401C0B99401A0390AD
:10501000206840680121C1EB1040059002A920687A
:1050200014F0CFFB0020039002900698401E0A99CE
:10503000401A049002A9206814F0C3FB0898401C91
:105040000A99401A02902068808880B2401E04901D
:1050500002A9206814F0B5FB0B9B0798C21A0A9BA3
:105060000698C11A269814F0C4FD0746DDF840C022
:10507000079BA3EB0C02DDF83CC0069BA3EB0C01E5
:105080001E9814F0B6FD804606A810F07EFA019036
:1050900006A810F08DFA81464FF0000A18E00020B3
:1050A0000DE018F80010032202EB8002BA5C11FB3D
:1050B00002F10912032202EB8002B954401C484558
:1050C000EFDB2168098989B20F44D8440AF1010A4B
:1050D00001988245E3DB13A81CF0A8FD012038E706
:1050E00070B504460D46606818B129466068FFF740
:1050F000F7FF206818B1294620462268904770BD06
:1051000070B505460C4626682068006858B12068CE
:10511000006AC0F3005030B120680068206021466A
:105120002846FFF7EDFF266021462846FFF7D8FF07
:1051300070BD70B504460D46294620460FF0BEFEF0
:1051400070BD70B504460D46294620460FF019FF84
:1051500070BD2DE9F04F89B00646D6F804B0B068AE
:10516000089096F82190D6F800A0F0680790D6F83D
:105170001880F069069037697069059003A813F0EC
:10518000BEFA96F8220000287DD15FBBB9F1FD0F71
:1051900028DB002522E0002413E008EB84000068EF
:1051A000019012F019FF8DF8080008EB8400C07818
:1051B0008DF809000AEB440103AA029812F052FF8D
:1051C000641C5C45E9DB5046079907F07FFC82468A
:1051D0004046069907F07AFC80466D1C0898854287
:1051E000D9DBDCE077BBB9F1FD0F2CDA002525E037
:1051F000002416E008EB84000068019012F0ECFE39
:105200008DF8080008EB8400C07800FB09F000125C
:105210008DF809000AEB440103AA029812F022FF5C
:10522000641C5C45E6DB5046079907F04FFC82465C
:105230004046069907F04AFC80466D1C0898854256
:10524000D6DBACE0FFE79FB3B9F1FD0F31DB002502
:105250002AE0002419E008EB84000068019012F0B5
:10526000BBFE8DF8080008EB8400C078395D10FBA8
:1052700001F000128DF809000AEB440103AA02981C
:1052800012F0F0FE00E04AE0641C5C45E3DB5046AF
:10529000079907F01BFC82464046069907F016FC6A
:1052A0008046059807446D1C08988542D1DB76E05E
:1052B000FFE7002F73D0B9F1FD0F70DA00252AE067
:1052C000002419E008EB84000068019012F084FECD
:1052D0008DF8080008EB8400C078395D10FB01F000
:1052E00000FB09F000148DF809000AEB440103AA41
:1052F000029812F0B7FE641C5C45E3DB5046079948
:1053000007F0E4FB82464046069907F0DFFB804643
:10531000059807446D1C08988542D1DB3FE00025C5
:105320003AE0002428E008EB84000068019012F0C5
:1053300053FE8DF8080008EB8400C0788DF8090052
:105340003FB99DF8090000FB09F000128DF8090033
:1053500009E09DF80900395D10FB01F000FB09F040
:1053600000148DF8090096F822200AEB440003ABE4
:10537000029900F049FF641C5C45D4DB0FB105982D
:1053800007445046079907F0A1FB8246404606991C
:1053900007F09CFB80466D1C08988542C1DB09B074
:1053A000BDE8F08F2DE9F04F8DB00646D6F804B079
:1053B000B0680C9096F82190D6F80080F0680B90B9
:1053C000D6F818A0F0690A9037697069099004A8A6
:1053D00013F0A7F996F8220000287DD14FBBB9F150
:1053E000FD0F26DB002520E0002411E008EB8400FF
:1053F000006802900AEB8400006804AA01900299F8
:1054000012F0FCFE039008EB840003990160641C19
:105410005C45EBDB40460B9907F05BFB8046504652
:105420000A9907F056FB82466D1C0C988542DBDB1F
:10543000DBE08FBBB9F1FD0F2FDA002528E0002457
:1054400019E00AEB8400006808909DF8230000FB37
:1054500009F000128DF8230008EB8400006804AA0C
:1054600001460290089812F0C9FE039008EB8400F0
:1054700003990160641C5C45E3DB40460B9907F02F
:1054800028FB804650460A9907F023FB82466D1C94
:105490000C988542D3DBA8E0FFE7B7B3B9F1FD0F65
:1054A00034DB00252DE000241CE00AEB84000068BA
:1054B00008909DF82300395D10FB01F000128DF873
:1054C000230008EB8400006804AA014602900898B3
:1054D00012F094FE039000E050E008EB8400039982
:1054E0000160641C5C45E0DB40460B9907F0F1FA73
:1054F000804650460A9907F0ECFA8246099807441C
:105500006D1C0C988542CEDB6FE0FFE7002F6CD05E
:10551000B9F1FD0F69DA00252CE000241BE00AEB4D
:105520008400006808909DF8230000FB09F0395DB5
:10553000484300148DF8230008EB8400006804AA97
:1055400001460290089812F059FE039008EB84007F
:1055500003990160641C5C45E1DB40460B9907F050
:10556000B8FA804650460A9907F0B3FA824609987D
:1055700007446D1C0C988542CFDB36E0002531E0F6
:1055800000241FE00AEB8400006808903FB99DF8F2
:10559000230000FB09F000128DF8230009E09DF8BC
:1055A0002300395D10FB01F000FB09F000148DF8B9
:1055B000230096F8222008EB840004AB089900F041
:1055C0007DFE641C5C45DDDB0FB109980744404655
:1055D0000B9907F07EFA804650460A9907F079FA4F
:1055E00082466D1C0C988542CADB0DB0BDE8F08F79
:1055F0002DE9F04F89B00646D6F804B0B06808909F
:1056000096F821A030680790F0680690D6F81890B8
:10561000F0690590D6F8108070690490706AC1171F
:1056200000EB5171C910A0EBC10796F822000028C9
:105630007ED1B8F1000F3BD1BAF1FD0F38DB002568
:1056400032E0002423E009EB84000068019012F0AE
:10565000C3FC0390E119079808F025FAC0EB00207D
:10566000C0B2029009EB8400C27802A9039812F03C
:10567000A5FE9DF808007F2804DDE119079831F0A8
:1056800099FF03E0E119079802F08EFD641C5C4568
:10569000D9DBDDE9061007F01FFA079048460599A7
:1056A00007F01AFA81466D1C08988542C9DB0BE1A8
:1056B000B8F1000F40D1BAF1FD0F3DDA002535E019
:1056C000002426E009EB84000068019012F084FCBD
:1056D0000390E119079808F0E6F9C0EB0020C0B28A
:1056E000029009EB8400C07800FB0AF0021202A9C4
:1056F000039812F063FE9DF808007F2804DDE1198D
:10570000079831F057FF03E0E119079802F04CFDCC
:10571000641C5C45D6DBDDE9061007F0DDF9079077
:105720004846059907F0D8F981466D1C089800E0B5
:105730008FE08542C4DBC7E0B8F1000F42D0BAF178
:10574000FD0F3FDB002539E0002428E009EB840051
:105750000068019012F040FC0390E119079808F0EE
:10576000A2F9C0EB0020C0B2029018F8040009EBC7
:105770008401C97810FB01F0021202A9039812F00B
:105780001DFE9DF808007F2804DDE119079831F01F
:1057900011FF03E0E119079802F006FD641C5C4567
:1057A000D4DBDDE9061007F097F907904846059924
:1057B00007F092F98146049880446D1C0898854250
:1057C000C2DB81E0B8F1000F7ED0BAF1FD0F7BDAC9
:1057D00000253AE0002429E009EB840000680190EC
:1057E00012F0FAFB0390E119079808F05CF9C0EB9E
:1057F0000020C0B2029018F8040000FB0AF009EB88
:105800008401C9784843021402A9039812F0D6FD16
:105810009DF808007F2804DDE119079831F0CAFEE1
:1058200003E0E119079802F0BFFC641C5C45D3DB80
:10583000DDE9061007F050F907904846059907F092
:105840004BF98146049880446D1C08988542C1DB61
:105850003AE0002535E0002421E009EB84000068EF
:105860000390B8F1000F07D19DF80F0000FB0AF07C
:1058700000128DF80F000AE09DF80F0018F80410D0
:1058800010FB01F000FB0AF000148DF80F0096F8F1
:105890002230E119039A079800F0DFFD641C5C4593
:1058A000DBDBB8F1000F01D004988044DDE906107D
:1058B00007F012F907904846059907F00DF981465F
:1058C0006D1C08988542C6DB09B0BDE8F08F2DE954
:1058D000F04F87B00646D6F804B0B068069096F848
:1058E0002190D6F800A0F0680590D6F81880F069ED
:1058F000049037697069039096F8220000287ED1E1
:105900003FBBB9F1FD0F24DB00251EE000240FE0B2
:1059100008EB84000068019012F05EFB029008EB37
:105920008400C2780AEB0401029812F05AFD641C4C
:105930005C45EDDB5046059907F0D1F882464046BC
:10594000049907F0CCF880466D1C06988542DDDB93
:10595000C4E057BBB9F1FD0F27DA002521E0002490
:1059600012E008EB84000068019012F035FB029011
:1059700008EB8400C07800FB09F002120AEB040176
:10598000029812F02EFD641C5C45EADB5046059936
:1059900007F0A5F882464046049907F0A0F8804633
:1059A0006D1C06988542DADB98E04FB3B9F1FD0F24
:1059B0002DDB002527E0002413E008EB84000068BD
:1059C000019012F009FB029008EB8400C0783B5D67
:1059D00010FB03F002120AEB0401029812F001FD21
:1059E000641C5C45E9DB5046059907F078F882466F
:1059F0004046049907F073F88046039801E037E0C9
:105A000005E007446D1C06988542D4DB66E0002F54
:105A100064D0B9F1FD0F61DA002525E0002414E01F
:105A200008EB84000068019012F0D6FA029008EBAF
:105A30008400C07800FB09F03B5D584302140AEB78
:105A40000401029812F0CDFC641C5C45E8DB504672
:105A5000059907F044F882464046049907F03FF85C
:105A60008046039807446D1C06988542D6DB35E0D6
:105A7000002530E000241EE008EB8400006802905E
:105A80003FB99DF80B0000FB09F000128DF80B00E8
:105A900009E09DF80B00395D10FB01F000FB09F0F7
:105AA00000148DF80B0096F822200AEB04000299EE
:105AB00000F035FD641C5C45DEDB0FB10398074444
:105AC0005046059907F00BF882464046049907F0C6
:105AD00006F880466D1C06988542CBDB07B0BDE812
